{
	"contracts/ZodiacTokenRecommender.sol": {
		"ZodiacTokenRecommender": {
			"abi": [
				{
					"anonymous": false,
					"inputs": [
						{
							"indexed": true,
							"internalType": "address",
							"name": "wallet",
							"type": "address"
						},
						{
							"indexed": false,
							"internalType": "string",
							"name": "tokenName",
							"type": "string"
						},
						{
							"indexed": false,
							"internalType": "string",
							"name": "description",
							"type": "string"
						},
						{
							"indexed": false,
							"internalType": "uint256",
							"name": "luckFactor",
							"type": "uint256"
						},
						{
							"indexed": false,
							"internalType": "uint256",
							"name": "recommendedAt",
							"type": "uint256"
						}
					],
					"name": "TokenRecommended",
					"type": "event"
				},
				{
					"inputs": [],
					"name": "getAllTokens",
					"outputs": [
						{
							"internalType": "string[12]",
							"name": "",
							"type": "string[12]"
						},
						{
							"internalType": "string[12]",
							"name": "",
							"type": "string[12]"
						}
					],
					"stateMutability": "view",
					"type": "function"
				},
				{
					"inputs": [
						{
							"internalType": "address",
							"name": "wallet",
							"type": "address"
						}
					],
					"name": "getRecommendation",
					"outputs": [
						{
							"components": [
								{
									"internalType": "string",
									"name": "tokenName",
									"type": "string"
								},
								{
									"internalType": "string",
									"name": "description",
									"type": "string"
								},
								{
									"internalType": "uint256",
									"name": "luckFactor",
									"type": "uint256"
								},
								{
									"internalType": "uint256",
									"name": "recommendedAt",
									"type": "uint256"
								}
							],
							"internalType": "struct ZodiacTokenRecommender.TokenRecommendation",
							"name": "",
							"type": "tuple"
						}
					],
					"stateMutability": "view",
					"type": "function"
				},
				{
					"inputs": [],
					"name": "recommendToken",
					"outputs": [
						{
							"components": [
								{
									"internalType": "string",
									"name": "tokenName",
									"type": "string"
								},
								{
									"internalType": "string",
									"name": "description",
									"type": "string"
								},
								{
									"internalType": "uint256",
									"name": "luckFactor",
									"type": "uint256"
								},
								{
									"internalType": "uint256",
									"name": "recommendedAt",
									"type": "uint256"
								}
							],
							"internalType": "struct ZodiacTokenRecommender.TokenRecommendation",
							"name": "",
							"type": "tuple"
						}
					],
					"stateMutability": "nonpayable",
					"type": "function"
				},
				{
					"inputs": [
						{
							"internalType": "address",
							"name": "",
							"type": "address"
						}
					],
					"name": "recommendations",
					"outputs": [
						{
							"internalType": "string",
							"name": "tokenName",
							"type": "string"
						},
						{
							"internalType": "string",
							"name": "description",
							"type": "string"
						},
						{
							"internalType": "uint256",
							"name": "luckFactor",
							"type": "uint256"
						},
						{
							"internalType": "uint256",
							"name": "recommendedAt",
							"type": "uint256"
						}
					],
					"stateMutability": "view",
					"type": "function"
				}
			],
			"devdoc": {
				"kind": "dev",
				"methods": {},
				"version": 1
			},
			"evm": {
				"assembly": "    /* \"contracts/ZodiacTokenRecommender.sol\":58:3920  contract ZodiacTokenRecommender {... */\n  mstore(0x40, 0x80)\n    /* \"contracts/ZodiacTokenRecommender.sol\":558:1022  string[12] private tokenNames = [... */\n  mload(0x40)\n  dup1\n  0x0180\n  add\n  0x40\n  mstore\n  dup1\n  mload(0x40)\n  dup1\n  0x40\n  add\n  0x40\n  mstore\n  dup1\n  0x08\n  dup2\n  mstore\n  0x20\n  add\n  0x46697265436f696e000000000000000000000000000000000000000000000000\n  dup2\n  mstore\n  pop\n  dup2\n  mstore\n  0x20\n  add\n  mload(0x40)\n  dup1\n  0x40\n  add\n  0x40\n  mstore\n  dup1\n  0x0a\n  dup2\n  mstore\n  0x20\n  add\n  0x4561727468546f6b656e00000000000000000000000000000000000000000000\n  dup2\n  mstore\n  pop\n  dup2\n  mstore\n  0x20\n  add\n  mload(0x40)\n  dup1\n  0x40\n  add\n  0x40\n  mstore\n  dup1\n  0x08\n  dup2\n  mstore\n  0x20\n  add\n  0x4169724275636b73000000000000000000000000000000000000000000000000\n  dup2\n  mstore\n  pop\n  dup2\n  mstore\n  0x20\n  add\n  mload(0x40)\n  dup1\n  0x40\n  add\n  0x40\n  mstore\n  dup1\n  0x08\n  dup2\n  mstore\n  0x20\n  add\n  0x43726162436f696e000000000000000000000000000000000000000000000000\n  dup2\n  mstore\n  pop\n  dup2\n  mstore\n  0x20\n  add\n  mload(0x40)\n  dup1\n  0x40\n  add\n  0x40\n  mstore\n  dup1\n  0x09\n  dup2\n  mstore\n  0x20\n  add\n  0x4c696f6e546f6b656e0000000000000000000000000000000000000000000000\n  dup2\n  mstore\n  pop\n  dup2\n  mstore\n  0x20\n  add\n  mload(0x40)\n  dup1\n  0x40\n  add\n  0x40\n  mstore\n  dup1\n  0x0b\n  dup2\n  mstore\n  0x20\n  add\n  0x48617276657374436f696e000000000000000000000000000000000000000000\n  dup2\n  mstore\n  pop\n  dup2\n  mstore\n  0x20\n  add\n  mload(0x40)\n  dup1\n  0x40\n  add\n  0x40\n  mstore\n  dup1\n  0x0c\n  dup2\n  mstore\n  0x20\n  add\n  0x42616c616e63654275636b730000000000000000000000000000000000000000\n  dup2\n  mstore\n  pop\n  dup2\n  mstore\n  0x20\n  add\n  mload(0x40)\n  dup1\n  0x40\n  add\n  0x40\n  mstore\n  dup1\n  0x0c\n  dup2\n  mstore\n  0x20\n  add\n  0x53636f7270696f546f6b656e0000000000000000000000000000000000000000\n  dup2\n  mstore\n  pop\n  dup2\n  mstore\n  0x20\n  add\n  mload(0x40)\n  dup1\n  0x40\n  add\n  0x40\n  mstore\n  dup1\n  0x0a\n  dup2\n  mstore\n  0x20\n  add\n  0x417263686572436f696e00000000000000000000000000000000000000000000\n  dup2\n  mstore\n  pop\n  dup2\n  mstore\n  0x20\n  add\n  mload(0x40)\n  dup1\n  0x40\n  add\n  0x40\n  mstore\n  dup1\n  0x0d\n  dup2\n  mstore\n  0x20\n  add\n  0x4d6f756e7461696e546f6b656e00000000000000000000000000000000000000\n  dup2\n  mstore\n  pop\n  dup2\n  mstore\n  0x20\n  add\n  mload(0x40)\n  dup1\n  0x40\n  add\n  0x40\n  mstore\n  dup1\n  0x09\n  dup2\n  mstore\n  0x20\n  add\n  0x41717561546f6b656e0000000000000000000000000000000000000000000000\n  dup2\n  mstore\n  pop\n  dup2\n  mstore\n  0x20\n  add\n  mload(0x40)\n  dup1\n  0x40\n  add\n  0x40\n  mstore\n  dup1\n  0x08\n  dup2\n  mstore\n  0x20\n  add\n  0x46697368436f696e000000000000000000000000000000000000000000000000\n  dup2\n  mstore\n  pop\n  dup2\n  mstore\n  pop\n  0x01\n  swap1\n  0x0c\n  tag_1\n  swap3\n  swap2\n  swap1\n  tag_2\n  jump\t// in\ntag_1:\n  pop\n    /* \"contracts/ZodiacTokenRecommender.sol\":1029:1991  string[12] private tokenDescriptions = [... */\n  mload(0x40)\n  dup1\n  0x0180\n  add\n  0x40\n  mstore\n  dup1\n  mload(0x40)\n  dup1\n  0x60\n  add\n  0x40\n  mstore\n  dup1\n  0x23\n  dup2\n  mstore\n  0x20\n  add\n  data_e9c6373a2c8664db4b0287b0ef5bda8a81de9365b7d577db250ce5761356af8f\n  0x23\n  swap2\n  codecopy\n  dup2\n  mstore\n  0x20\n  add\n  mload(0x40)\n  dup1\n  0x60\n  add\n  0x40\n  mstore\n  dup1\n  0x26\n  dup2\n  mstore\n  0x20\n  add\n  data_a3e176ec47dc9ce55e7428f3c847203d66e8197418dfc7a054a54f21c276a524\n  0x26\n  swap2\n  codecopy\n  dup2\n  mstore\n  0x20\n  add\n  mload(0x40)\n  dup1\n  0x60\n  add\n  0x40\n  mstore\n  dup1\n  0x25\n  dup2\n  mstore\n  0x20\n  add\n  data_faa929ba64820dae19b2e2abcfa459e8960e50d05a8d07439fa1fad40f847a11\n  0x25\n  swap2\n  codecopy\n  dup2\n  mstore\n  0x20\n  add\n  mload(0x40)\n  dup1\n  0x60\n  add\n  0x40\n  mstore\n  dup1\n  0x27\n  dup2\n  mstore\n  0x20\n  add\n  data_1f89b0acf349e93ae615a0c28414bba207e7144082ef55b7e60a5215de2675a1\n  0x27\n  swap2\n  codecopy\n  dup2\n  mstore\n  0x20\n  add\n  mload(0x40)\n  dup1\n  0x60\n  add\n  0x40\n  mstore\n  dup1\n  0x21\n  dup2\n  mstore\n  0x20\n  add\n  data_7fe8cb28d7fd6c846904a78859d3a78df6ea64fc19ee79d714806af0c7e3c13e\n  0x21\n  swap2\n  codecopy\n  dup2\n  mstore\n  0x20\n  add\n  mload(0x40)\n  dup1\n  0x60\n  add\n  0x40\n  mstore\n  dup1\n  0x25\n  dup2\n  mstore\n  0x20\n  add\n  data_11e989ae6386ff792244266c87cf31a8df9648cbabf57d2b834c68c8fb5baf9a\n  0x25\n  swap2\n  codecopy\n  dup2\n  mstore\n  0x20\n  add\n  mload(0x40)\n  dup1\n  0x60\n  add\n  0x40\n  mstore\n  dup1\n  0x2b\n  dup2\n  mstore\n  0x20\n  add\n  data_04392527d6e9e7042eb03aaa48694cd98158143804f3955e04fe5242e5ed8e3b\n  0x2b\n  swap2\n  codecopy\n  dup2\n  mstore\n  0x20\n  add\n  mload(0x40)\n  dup1\n  0x60\n  add\n  0x40\n  mstore\n  dup1\n  0x27\n  dup2\n  mstore\n  0x20\n  add\n  data_f0eb97cd148984859eb773273399c09794776db504b1e7fcc328587d1fcf08e2\n  0x27\n  swap2\n  codecopy\n  dup2\n  mstore\n  0x20\n  add\n  mload(0x40)\n  dup1\n  0x60\n  add\n  0x40\n  mstore\n  dup1\n  0x23\n  dup2\n  mstore\n  0x20\n  add\n  data_a7031d59d55152b9cc4911e80f88addf7bd2afcb619a04d53bf5b7af115bd127\n  0x23\n  swap2\n  codecopy\n  dup2\n  mstore\n  0x20\n  add\n  mload(0x40)\n  dup1\n  0x60\n  add\n  0x40\n  mstore\n  dup1\n  0x26\n  dup2\n  mstore\n  0x20\n  add\n  data_fa91658017a31b978eebc0ca020e7c10039edaccb6ebc8158bd76912ec2a2883\n  0x26\n  swap2\n  codecopy\n  dup2\n  mstore\n  0x20\n  add\n  mload(0x40)\n  dup1\n  0x60\n  add\n  0x40\n  mstore\n  dup1\n  0x24\n  dup2\n  mstore\n  0x20\n  add\n  data_8b75162ffd9843ca4afbc70a3d8db325474ce3b64ffe0f2d3b3e223b75411116\n  0x24\n  swap2\n  codecopy\n  dup2\n  mstore\n  0x20\n  add\n  mload(0x40)\n  dup1\n  0x60\n  add\n  0x40\n  mstore\n  dup1\n  0x23\n  dup2\n  mstore\n  0x20\n  add\n  data_0a770c5a8b82057ee2b4fef30142faa0c0d70ff40b40ac0eeb68b9874a24cb89\n  0x23\n  swap2\n  codecopy\n  dup2\n  mstore\n  pop\n  0x0d\n  swap1\n  0x0c\n  tag_3\n  swap3\n  swap2\n  swap1\n  tag_2\n  jump\t// in\ntag_3:\n  pop\n    /* \"contracts/ZodiacTokenRecommender.sol\":58:3920  contract ZodiacTokenRecommender {... */\n  callvalue\n  dup1\n  iszero\n  tag_4\n  jumpi\n  revert(0x00, 0x00)\ntag_4:\n  pop\n  jump(tag_5)\ntag_2:\n  dup3\n  0x0c\n  dup2\n  add\n  swap3\n  dup3\n  iszero\n  tag_6\n  jumpi\n  swap2\n  0x20\n  mul\n  dup3\n  add\ntag_7:\n  dup3\n  dup2\n  gt\n  iszero\n  tag_8\n  jumpi\n  dup3\n  mload\n  dup3\n  swap1\n  dup2\n  tag_9\n  swap2\n  swap1\n  tag_10\n  jump\t// in\ntag_9:\n  pop\n  swap2\n  0x20\n  add\n  swap2\n  swap1\n  0x01\n  add\n  swap1\n  jump(tag_7)\ntag_8:\ntag_6:\n  pop\n  swap1\n  pop\n  tag_11\n  swap2\n  swap1\n  tag_12\n  jump\t// in\ntag_11:\n  pop\n  swap1\n  jump\t// out\ntag_12:\ntag_13:\n  dup1\n  dup3\n  gt\n  iszero\n  tag_14\n  jumpi\n  0x00\n  dup2\n  dup2\n  tag_15\n  swap2\n  swap1\n  tag_16\n  jump\t// in\ntag_15:\n  pop\n  0x01\n  add\n  jump(tag_13)\ntag_14:\n  pop\n  swap1\n  jump\t// out\ntag_16:\n  pop\n  dup1\n  sload\n  tag_17\n  swap1\n  tag_18\n  jump\t// in\ntag_17:\n  0x00\n  dup3\n  sstore\n  dup1\n  0x1f\n  lt\n  tag_20\n  jumpi\n  pop\n  jump(tag_19)\ntag_20:\n  0x1f\n  add\n  0x20\n  swap1\n  div\n  swap1\n  0x00\n  mstore\n  keccak256(0x00, 0x20)\n  swap1\n  dup2\n  add\n  swap1\n  tag_21\n  swap2\n  swap1\n  tag_22\n  jump\t// in\ntag_21:\ntag_19:\n  pop\n  jump\t// out\ntag_22:\ntag_23:\n  dup1\n  dup3\n  gt\n  iszero\n  tag_24\n  jumpi\n  0x00\n  dup2\n  0x00\n  swap1\n  sstore\n  pop\n  0x01\n  add\n  jump(tag_23)\ntag_24:\n  pop\n  swap1\n  jump\t// out\n    /* \"#utility.yul\":7:106   */\ntag_25:\n    /* \"#utility.yul\":59:65   */\n  0x00\n    /* \"#utility.yul\":93:98   */\n  dup2\n    /* \"#utility.yul\":87:99   */\n  mload\n    /* \"#utility.yul\":77:99   */\n  swap1\n  pop\n    /* \"#utility.yul\":7:106   */\n  swap2\n  swap1\n  pop\n  jump\t// out\n    /* \"#utility.yul\":112:292   */\ntag_26:\n    /* \"#utility.yul\":160:237   */\n  0x4e487b7100000000000000000000000000000000000000000000000000000000\n    /* \"#utility.yul\":157:158   */\n  0x00\n    /* \"#utility.yul\":150:238   */\n  mstore\n    /* \"#utility.yul\":257:261   */\n  0x41\n    /* \"#utility.yul\":254:255   */\n  0x04\n    /* \"#utility.yul\":247:262   */\n  mstore\n    /* \"#utility.yul\":281:285   */\n  0x24\n    /* \"#utility.yul\":278:279   */\n  0x00\n    /* \"#utility.yul\":271:286   */\n  revert\n    /* \"#utility.yul\":298:478   */\ntag_27:\n    /* \"#utility.yul\":346:423   */\n  0x4e487b7100000000000000000000000000000000000000000000000000000000\n    /* \"#utility.yul\":343:344   */\n  0x00\n    /* \"#utility.yul\":336:424   */\n  mstore\n    /* \"#utility.yul\":443:447   */\n  0x22\n    /* \"#utility.yul\":440:441   */\n  0x04\n    /* \"#utility.yul\":433:448   */\n  mstore\n    /* \"#utility.yul\":467:471   */\n  0x24\n    /* \"#utility.yul\":464:465   */\n  0x00\n    /* \"#utility.yul\":457:472   */\n  revert\n    /* \"#utility.yul\":484:804   */\ntag_18:\n    /* \"#utility.yul\":528:534   */\n  0x00\n    /* \"#utility.yul\":565:566   */\n  0x02\n    /* \"#utility.yul\":559:563   */\n  dup3\n    /* \"#utility.yul\":555:567   */\n  div\n    /* \"#utility.yul\":545:567   */\n  swap1\n  pop\n    /* \"#utility.yul\":612:613   */\n  0x01\n    /* \"#utility.yul\":606:610   */\n  dup3\n    /* \"#utility.yul\":602:614   */\n  and\n    /* \"#utility.yul\":633:651   */\n  dup1\n    /* \"#utility.yul\":623:704   */\n  tag_49\n  jumpi\n    /* \"#utility.yul\":689:693   */\n  0x7f\n    /* \"#utility.yul\":681:687   */\n  dup3\n    /* \"#utility.yul\":677:694   */\n  and\n    /* \"#utility.yul\":667:694   */\n  swap2\n  pop\n    /* \"#utility.yul\":623:704   */\ntag_49:\n    /* \"#utility.yul\":751:753   */\n  0x20\n    /* \"#utility.yul\":743:749   */\n  dup3\n    /* \"#utility.yul\":740:754   */\n  lt\n    /* \"#utility.yul\":720:738   */\n  dup2\n    /* \"#utility.yul\":717:755   */\n  sub\n    /* \"#utility.yul\":714:798   */\n  tag_50\n  jumpi\n    /* \"#utility.yul\":770:788   */\n  tag_51\n  tag_27\n  jump\t// in\ntag_51:\n    /* \"#utility.yul\":714:798   */\ntag_50:\n    /* \"#utility.yul\":535:804   */\n  pop\n    /* \"#utility.yul\":484:804   */\n  swap2\n  swap1\n  pop\n  jump\t// out\n    /* \"#utility.yul\":810:951   */\ntag_28:\n    /* \"#utility.yul\":859:863   */\n  0x00\n    /* \"#utility.yul\":882:885   */\n  dup2\n    /* \"#utility.yul\":874:885   */\n  swap1\n  pop\n    /* \"#utility.yul\":905:908   */\n  dup2\n    /* \"#utility.yul\":902:903   */\n  0x00\n    /* \"#utility.yul\":895:909   */\n  mstore\n    /* \"#utility.yul\":939:943   */\n  0x20\n    /* \"#utility.yul\":936:937   */\n  0x00\n    /* \"#utility.yul\":926:944   */\n  keccak256\n    /* \"#utility.yul\":918:944   */\n  swap1\n  pop\n    /* \"#utility.yul\":810:951   */\n  swap2\n  swap1\n  pop\n  jump\t// out\n    /* \"#utility.yul\":957:1050   */\ntag_29:\n    /* \"#utility.yul\":994:1000   */\n  0x00\n    /* \"#utility.yul\":1041:1043   */\n  0x20\n    /* \"#utility.yul\":1036:1038   */\n  0x1f\n    /* \"#utility.yul\":1029:1034   */\n  dup4\n    /* \"#utility.yul\":1025:1039   */\n  add\n    /* \"#utility.yul\":1021:1044   */\n  div\n    /* \"#utility.yul\":1011:1044   */\n  swap1\n  pop\n    /* \"#utility.yul\":957:1050   */\n  swap2\n  swap1\n  pop\n  jump\t// out\n    /* \"#utility.yul\":1056:1163   */\ntag_30:\n    /* \"#utility.yul\":1100:1108   */\n  0x00\n    /* \"#utility.yul\":1150:1155   */\n  dup3\n    /* \"#utility.yul\":1144:1148   */\n  dup3\n    /* \"#utility.yul\":1140:1156   */\n  shl\n    /* \"#utility.yul\":1119:1156   */\n  swap1\n  pop\n    /* \"#utility.yul\":1056:1163   */\n  swap3\n  swap2\n  pop\n  pop\n  jump\t// out\n    /* \"#utility.yul\":1169:1562   */\ntag_31:\n    /* \"#utility.yul\":1238:1244   */\n  0x00\n    /* \"#utility.yul\":1288:1289   */\n  0x08\n    /* \"#utility.yul\":1276:1286   */\n  dup4\n    /* \"#utility.yul\":1272:1290   */\n  mul\n    /* \"#utility.yul\":1311:1408   */\n  tag_56\n    /* \"#utility.yul\":1341:1407   */\n  0xffffffffffffffffffffffffffffffffffffffffffffffffffffffffffffffff\n    /* \"#utility.yul\":1330:1339   */\n  dup3\n    /* \"#utility.yul\":1311:1408   */\n  tag_30\n  jump\t// in\ntag_56:\n    /* \"#utility.yul\":1429:1468   */\n  tag_57\n    /* \"#utility.yul\":1459:1467   */\n  dup7\n    /* \"#utility.yul\":1448:1457   */\n  dup4\n    /* \"#utility.yul\":1429:1468   */\n  tag_30\n  jump\t// in\ntag_57:\n    /* \"#utility.yul\":1417:1468   */\n  swap6\n  pop\n    /* \"#utility.yul\":1501:1505   */\n  dup1\n    /* \"#utility.yul\":1497:1506   */\n  not\n    /* \"#utility.yul\":1490:1495   */\n  dup5\n    /* \"#utility.yul\":1486:1507   */\n  and\n    /* \"#utility.yul\":1477:1507   */\n  swap4\n  pop\n    /* \"#utility.yul\":1550:1554   */\n  dup1\n    /* \"#utility.yul\":1540:1548   */\n  dup7\n    /* \"#utility.yul\":1536:1555   */\n  and\n    /* \"#utility.yul\":1529:1534   */\n  dup5\n    /* \"#utility.yul\":1526:1556   */\n  or\n    /* \"#utility.yul\":1516:1556   */\n  swap3\n  pop\n    /* \"#utility.yul\":1245:1562   */\n  pop\n  pop\n    /* \"#utility.yul\":1169:1562   */\n  swap4\n  swap3\n  pop\n  pop\n  pop\n  jump\t// out\n    /* \"#utility.yul\":1568:1645   */\ntag_32:\n    /* \"#utility.yul\":1605:1612   */\n  0x00\n    /* \"#utility.yul\":1634:1639   */\n  dup2\n    /* \"#utility.yul\":1623:1639   */\n  swap1\n  pop\n    /* \"#utility.yul\":1568:1645   */\n  swap2\n  swap1\n  pop\n  jump\t// out\n    /* \"#utility.yul\":1651:1711   */\ntag_33:\n    /* \"#utility.yul\":1679:1682   */\n  0x00\n    /* \"#utility.yul\":1700:1705   */\n  dup2\n    /* \"#utility.yul\":1693:1705   */\n  swap1\n  pop\n    /* \"#utility.yul\":1651:1711   */\n  swap2\n  swap1\n  pop\n  jump\t// out\n    /* \"#utility.yul\":1717:1859   */\ntag_34:\n    /* \"#utility.yul\":1767:1776   */\n  0x00\n    /* \"#utility.yul\":1800:1853   */\n  tag_61\n    /* \"#utility.yul\":1818:1852   */\n  tag_62\n    /* \"#utility.yul\":1827:1851   */\n  tag_63\n    /* \"#utility.yul\":1845:1850   */\n  dup5\n    /* \"#utility.yul\":1827:1851   */\n  tag_32\n  jump\t// in\ntag_63:\n    /* \"#utility.yul\":1818:1852   */\n  tag_33\n  jump\t// in\ntag_62:\n    /* \"#utility.yul\":1800:1853   */\n  tag_32\n  jump\t// in\ntag_61:\n    /* \"#utility.yul\":1787:1853   */\n  swap1\n  pop\n    /* \"#utility.yul\":1717:1859   */\n  swap2\n  swap1\n  pop\n  jump\t// out\n    /* \"#utility.yul\":1865:1940   */\ntag_35:\n    /* \"#utility.yul\":1908:1911   */\n  0x00\n    /* \"#utility.yul\":1929:1934   */\n  dup2\n    /* \"#utility.yul\":1922:1934   */\n  swap1\n  pop\n    /* \"#utility.yul\":1865:1940   */\n  swap2\n  swap1\n  pop\n  jump\t// out\n    /* \"#utility.yul\":1946:2215   */\ntag_36:\n    /* \"#utility.yul\":2056:2095   */\n  tag_66\n    /* \"#utility.yul\":2087:2094   */\n  dup4\n    /* \"#utility.yul\":2056:2095   */\n  tag_34\n  jump\t// in\ntag_66:\n    /* \"#utility.yul\":2117:2208   */\n  tag_67\n    /* \"#utility.yul\":2166:2207   */\n  tag_68\n    /* \"#utility.yul\":2190:2206   */\n  dup3\n    /* \"#utility.yul\":2166:2207   */\n  tag_35\n  jump\t// in\ntag_68:\n    /* \"#utility.yul\":2158:2164   */\n  dup5\n    /* \"#utility.yul\":2151:2155   */\n  dup5\n    /* \"#utility.yul\":2145:2156   */\n  sload\n    /* \"#utility.yul\":2117:2208   */\n  tag_31\n  jump\t// in\ntag_67:\n    /* \"#utility.yul\":2111:2115   */\n  dup3\n    /* \"#utility.yul\":2104:2209   */\n  sstore\n    /* \"#utility.yul\":2022:2215   */\n  pop\n    /* \"#utility.yul\":1946:2215   */\n  pop\n  pop\n  pop\n  jump\t// out\n    /* \"#utility.yul\":2221:2294   */\ntag_37:\n    /* \"#utility.yul\":2266:2269   */\n  0x00\n    /* \"#utility.yul\":2287:2288   */\n  0x00\n    /* \"#utility.yul\":2280:2288   */\n  swap1\n  pop\n    /* \"#utility.yul\":2221:2294   */\n  swap1\n  jump\t// out\n    /* \"#utility.yul\":2300:2489   */\ntag_38:\n    /* \"#utility.yul\":2377:2409   */\n  tag_71\n  tag_37\n  jump\t// in\ntag_71:\n    /* \"#utility.yul\":2418:2483   */\n  tag_72\n    /* \"#utility.yul\":2476:2482   */\n  dup2\n    /* \"#utility.yul\":2468:2474   */\n  dup5\n    /* \"#utility.yul\":2462:2466   */\n  dup5\n    /* \"#utility.yul\":2418:2483   */\n  tag_36\n  jump\t// in\ntag_72:\n    /* \"#utility.yul\":2353:2489   */\n  pop\n    /* \"#utility.yul\":2300:2489   */\n  pop\n  pop\n  jump\t// out\n    /* \"#utility.yul\":2495:2681   */\ntag_39:\n    /* \"#utility.yul\":2555:2675   */\ntag_74:\n    /* \"#utility.yul\":2572:2575   */\n  dup2\n    /* \"#utility.yul\":2565:2570   */\n  dup2\n    /* \"#utility.yul\":2562:2576   */\n  lt\n    /* \"#utility.yul\":2555:2675   */\n  iszero\n  tag_76\n  jumpi\n    /* \"#utility.yul\":2626:2665   */\n  tag_77\n    /* \"#utility.yul\":2663:2664   */\n  0x00\n    /* \"#utility.yul\":2656:2661   */\n  dup3\n    /* \"#utility.yul\":2626:2665   */\n  tag_38\n  jump\t// in\ntag_77:\n    /* \"#utility.yul\":2599:2600   */\n  0x01\n    /* \"#utility.yul\":2592:2597   */\n  dup2\n    /* \"#utility.yul\":2588:2601   */\n  add\n    /* \"#utility.yul\":2579:2601   */\n  swap1\n  pop\n    /* \"#utility.yul\":2555:2675   */\n  jump(tag_74)\ntag_76:\n    /* \"#utility.yul\":2495:2681   */\n  pop\n  pop\n  jump\t// out\n    /* \"#utility.yul\":2687:3230   */\ntag_40:\n    /* \"#utility.yul\":2788:2790   */\n  0x1f\n    /* \"#utility.yul\":2783:2786   */\n  dup3\n    /* \"#utility.yul\":2780:2791   */\n  gt\n    /* \"#utility.yul\":2777:3223   */\n  iszero\n  tag_79\n  jumpi\n    /* \"#utility.yul\":2822:2860   */\n  tag_80\n    /* \"#utility.yul\":2854:2859   */\n  dup2\n    /* \"#utility.yul\":2822:2860   */\n  tag_28\n  jump\t// in\ntag_80:\n    /* \"#utility.yul\":2906:2935   */\n  tag_81\n    /* \"#utility.yul\":2924:2934   */\n  dup5\n    /* \"#utility.yul\":2906:2935   */\n  tag_29\n  jump\t// in\ntag_81:\n    /* \"#utility.yul\":2896:2904   */\n  dup2\n    /* \"#utility.yul\":2892:2936   */\n  add\n    /* \"#utility.yul\":3089:3091   */\n  0x20\n    /* \"#utility.yul\":3077:3087   */\n  dup6\n    /* \"#utility.yul\":3074:3092   */\n  lt\n    /* \"#utility.yul\":3071:3120   */\n  iszero\n  tag_82\n  jumpi\n    /* \"#utility.yul\":3110:3118   */\n  dup2\n    /* \"#utility.yul\":3095:3118   */\n  swap1\n  pop\n    /* \"#utility.yul\":3071:3120   */\ntag_82:\n    /* \"#utility.yul\":3133:3213   */\n  tag_83\n    /* \"#utility.yul\":3189:3211   */\n  tag_84\n    /* \"#utility.yul\":3207:3210   */\n  dup6\n    /* \"#utility.yul\":3189:3211   */\n  tag_29\n  jump\t// in\ntag_84:\n    /* \"#utility.yul\":3179:3187   */\n  dup4\n    /* \"#utility.yul\":3175:3212   */\n  add\n    /* \"#utility.yul\":3162:3173   */\n  dup3\n    /* \"#utility.yul\":3133:3213   */\n  tag_39\n  jump\t// in\ntag_83:\n    /* \"#utility.yul\":2792:3223   */\n  pop\n  pop\n    /* \"#utility.yul\":2777:3223   */\ntag_79:\n    /* \"#utility.yul\":2687:3230   */\n  pop\n  pop\n  pop\n  jump\t// out\n    /* \"#utility.yul\":3236:3353   */\ntag_41:\n    /* \"#utility.yul\":3290:3298   */\n  0x00\n    /* \"#utility.yul\":3340:3345   */\n  dup3\n    /* \"#utility.yul\":3334:3338   */\n  dup3\n    /* \"#utility.yul\":3330:3346   */\n  shr\n    /* \"#utility.yul\":3309:3346   */\n  swap1\n  pop\n    /* \"#utility.yul\":3236:3353   */\n  swap3\n  swap2\n  pop\n  pop\n  jump\t// out\n    /* \"#utility.yul\":3359:3528   */\ntag_42:\n    /* \"#utility.yul\":3403:3409   */\n  0x00\n    /* \"#utility.yul\":3436:3487   */\n  tag_87\n    /* \"#utility.yul\":3484:3485   */\n  0x00\n    /* \"#utility.yul\":3480:3486   */\n  not\n    /* \"#utility.yul\":3472:3477   */\n  dup5\n    /* \"#utility.yul\":3469:3470   */\n  0x08\n    /* \"#utility.yul\":3465:3478   */\n  mul\n    /* \"#utility.yul\":3436:3487   */\n  tag_41\n  jump\t// in\ntag_87:\n    /* \"#utility.yul\":3432:3488   */\n  not\n    /* \"#utility.yul\":3517:3521   */\n  dup1\n    /* \"#utility.yul\":3511:3515   */\n  dup4\n    /* \"#utility.yul\":3507:3522   */\n  and\n    /* \"#utility.yul\":3497:3522   */\n  swap2\n  pop\n    /* \"#utility.yul\":3410:3528   */\n  pop\n    /* \"#utility.yul\":3359:3528   */\n  swap3\n  swap2\n  pop\n  pop\n  jump\t// out\n    /* \"#utility.yul\":3533:3828   */\ntag_43:\n    /* \"#utility.yul\":3609:3613   */\n  0x00\n    /* \"#utility.yul\":3755:3784   */\n  tag_89\n    /* \"#utility.yul\":3780:3783   */\n  dup4\n    /* \"#utility.yul\":3774:3778   */\n  dup4\n    /* \"#utility.yul\":3755:3784   */\n  tag_42\n  jump\t// in\ntag_89:\n    /* \"#utility.yul\":3747:3784   */\n  swap2\n  pop\n    /* \"#utility.yul\":3817:3820   */\n  dup3\n    /* \"#utility.yul\":3814:3815   */\n  0x02\n    /* \"#utility.yul\":3810:3821   */\n  mul\n    /* \"#utility.yul\":3804:3808   */\n  dup3\n    /* \"#utility.yul\":3801:3822   */\n  or\n    /* \"#utility.yul\":3793:3822   */\n  swap1\n  pop\n    /* \"#utility.yul\":3533:3828   */\n  swap3\n  swap2\n  pop\n  pop\n  jump\t// out\n    /* \"#utility.yul\":3833:5228   */\ntag_10:\n    /* \"#utility.yul\":3950:3987   */\n  tag_91\n    /* \"#utility.yul\":3983:3986   */\n  dup3\n    /* \"#utility.yul\":3950:3987   */\n  tag_25\n  jump\t// in\ntag_91:\n    /* \"#utility.yul\":4052:4070   */\n  0xffffffffffffffff\n    /* \"#utility.yul\":4044:4050   */\n  dup2\n    /* \"#utility.yul\":4041:4071   */\n  gt\n    /* \"#utility.yul\":4038:4094   */\n  iszero\n  tag_92\n  jumpi\n    /* \"#utility.yul\":4074:4092   */\n  tag_93\n  tag_26\n  jump\t// in\ntag_93:\n    /* \"#utility.yul\":4038:4094   */\ntag_92:\n    /* \"#utility.yul\":4118:4156   */\n  tag_94\n    /* \"#utility.yul\":4150:4154   */\n  dup3\n    /* \"#utility.yul\":4144:4155   */\n  sload\n    /* \"#utility.yul\":4118:4156   */\n  tag_18\n  jump\t// in\ntag_94:\n    /* \"#utility.yul\":4203:4270   */\n  tag_95\n    /* \"#utility.yul\":4263:4269   */\n  dup3\n    /* \"#utility.yul\":4255:4261   */\n  dup3\n    /* \"#utility.yul\":4249:4253   */\n  dup6\n    /* \"#utility.yul\":4203:4270   */\n  tag_40\n  jump\t// in\ntag_95:\n    /* \"#utility.yul\":4297:4298   */\n  0x00\n    /* \"#utility.yul\":4321:4325   */\n  0x20\n    /* \"#utility.yul\":4308:4325   */\n  swap1\n  pop\n    /* \"#utility.yul\":4353:4355   */\n  0x1f\n    /* \"#utility.yul\":4345:4351   */\n  dup4\n    /* \"#utility.yul\":4342:4356   */\n  gt\n    /* \"#utility.yul\":4370:4371   */\n  0x01\n    /* \"#utility.yul\":4365:4983   */\n  dup2\n  eq\n  tag_97\n  jumpi\n    /* \"#utility.yul\":5027:5028   */\n  0x00\n    /* \"#utility.yul\":5044:5050   */\n  dup5\n    /* \"#utility.yul\":5041:5118   */\n  iszero\n  tag_98\n  jumpi\n    /* \"#utility.yul\":5093:5102   */\n  dup3\n    /* \"#utility.yul\":5088:5091   */\n  dup8\n    /* \"#utility.yul\":5084:5103   */\n  add\n    /* \"#utility.yul\":5078:5104   */\n  mload\n    /* \"#utility.yul\":5069:5104   */\n  swap1\n  pop\n    /* \"#utility.yul\":5041:5118   */\ntag_98:\n    /* \"#utility.yul\":5144:5211   */\n  tag_99\n    /* \"#utility.yul\":5204:5210   */\n  dup6\n    /* \"#utility.yul\":5197:5202   */\n  dup3\n    /* \"#utility.yul\":5144:5211   */\n  tag_43\n  jump\t// in\ntag_99:\n    /* \"#utility.yul\":5138:5142   */\n  dup7\n    /* \"#utility.yul\":5131:5212   */\n  sstore\n    /* \"#utility.yul\":5000:5222   */\n  pop\n    /* \"#utility.yul\":4335:5222   */\n  jump(tag_96)\n    /* \"#utility.yul\":4365:4983   */\ntag_97:\n    /* \"#utility.yul\":4417:4421   */\n  0x1f\n    /* \"#utility.yul\":4413:4422   */\n  not\n    /* \"#utility.yul\":4405:4411   */\n  dup5\n    /* \"#utility.yul\":4401:4423   */\n  and\n    /* \"#utility.yul\":4451:4488   */\n  tag_100\n    /* \"#utility.yul\":4483:4487   */\n  dup7\n    /* \"#utility.yul\":4451:4488   */\n  tag_28\n  jump\t// in\ntag_100:\n    /* \"#utility.yul\":4510:4511   */\n  0x00\n    /* \"#utility.yul\":4524:4732   */\ntag_101:\n    /* \"#utility.yul\":4538:4545   */\n  dup3\n    /* \"#utility.yul\":4535:4536   */\n  dup2\n    /* \"#utility.yul\":4532:4546   */\n  lt\n    /* \"#utility.yul\":4524:4732   */\n  iszero\n  tag_103\n  jumpi\n    /* \"#utility.yul\":4617:4626   */\n  dup5\n    /* \"#utility.yul\":4612:4615   */\n  dup10\n    /* \"#utility.yul\":4608:4627   */\n  add\n    /* \"#utility.yul\":4602:4628   */\n  mload\n    /* \"#utility.yul\":4594:4600   */\n  dup3\n    /* \"#utility.yul\":4587:4629   */\n  sstore\n    /* \"#utility.yul\":4668:4669   */\n  0x01\n    /* \"#utility.yul\":4660:4666   */\n  dup3\n    /* \"#utility.yul\":4656:4670   */\n  add\n    /* \"#utility.yul\":4646:4670   */\n  swap2\n  pop\n    /* \"#utility.yul\":4715:4717   */\n  0x20\n    /* \"#utility.yul\":4704:4713   */\n  dup6\n    /* \"#utility.yul\":4700:4718   */\n  add\n    /* \"#utility.yul\":4687:4718   */\n  swap5\n  pop\n    /* \"#utility.yul\":4561:4565   */\n  0x20\n    /* \"#utility.yul\":4558:4559   */\n  dup2\n    /* \"#utility.yul\":4554:4566   */\n  add\n    /* \"#utility.yul\":4549:4566   */\n  swap1\n  pop\n    /* \"#utility.yul\":4524:4732   */\n  jump(tag_101)\ntag_103:\n    /* \"#utility.yul\":4760:4766   */\n  dup7\n    /* \"#utility.yul\":4751:4758   */\n  dup4\n    /* \"#utility.yul\":4748:4767   */\n  lt\n    /* \"#utility.yul\":4745:4924   */\n  iszero\n  tag_104\n  jumpi\n    /* \"#utility.yul\":4818:4827   */\n  dup5\n    /* \"#utility.yul\":4813:4816   */\n  dup10\n    /* \"#utility.yul\":4809:4828   */\n  add\n    /* \"#utility.yul\":4803:4829   */\n  mload\n    /* \"#utility.yul\":4861:4909   */\n  tag_105\n    /* \"#utility.yul\":4903:4907   */\n  0x1f\n    /* \"#utility.yul\":4895:4901   */\n  dup10\n    /* \"#utility.yul\":4891:4908   */\n  and\n    /* \"#utility.yul\":4880:4889   */\n  dup3\n    /* \"#utility.yul\":4861:4909   */\n  tag_42\n  jump\t// in\ntag_105:\n    /* \"#utility.yul\":4853:4859   */\n  dup4\n    /* \"#utility.yul\":4846:4910   */\n  sstore\n    /* \"#utility.yul\":4768:4924   */\n  pop\n    /* \"#utility.yul\":4745:4924   */\ntag_104:\n    /* \"#utility.yul\":4970:4971   */\n  0x01\n    /* \"#utility.yul\":4966:4967   */\n  0x02\n    /* \"#utility.yul\":4958:4964   */\n  dup9\n    /* \"#utility.yul\":4954:4968   */\n  mul\n    /* \"#utility.yul\":4950:4972   */\n  add\n    /* \"#utility.yul\":4944:4948   */\n  dup9\n    /* \"#utility.yul\":4937:4973   */\n  sstore\n    /* \"#utility.yul\":4372:4983   */\n  pop\n  pop\n  pop\n    /* \"#utility.yul\":4335:5222   */\ntag_96:\n  pop\n    /* \"#utility.yul\":3925:5228   */\n  pop\n  pop\n  pop\n    /* \"#utility.yul\":3833:5228   */\n  pop\n  pop\n  jump\t// out\n    /* \"contracts/ZodiacTokenRecommender.sol\":58:3920  contract ZodiacTokenRecommender {... */\ntag_5:\n  dataSize(sub_0)\n  dup1\n  dataOffset(sub_0)\n  0x00\n  codecopy\n  0x00\n  return\nstop\ndata_04392527d6e9e7042eb03aaa48694cd98158143804f3955e04fe5242e5ed8e3b 41206861726d6f6e696f757320746f6b656e20666f722062616c616e63656420706f7274666f6c696f732e\ndata_0a770c5a8b82057ee2b4fef30142faa0c0d70ff40b40ac0eeb68b9874a24cb89 4120666c75696420746f6b656e20666f7220647265616d7920696e766573746f72732e\ndata_11e989ae6386ff792244266c87cf31a8df9648cbabf57d2b834c68c8fb5baf9a 41207072656369736520746f6b656e20666f7220616e616c79746963616c206d696e64732e\ndata_1f89b0acf349e93ae615a0c28414bba207e7144082ef55b7e60a5215de2675a1 41206e7572747572696e6720746f6b656e207769746820656d6f74696f6e616c2076616c75652e\ndata_7fe8cb28d7fd6c846904a78859d3a78df6ea64fc19ee79d714806af0c7e3c13e 4120726567616c20746f6b656e20666f722074686f73652077686f206c6561642e\ndata_8b75162ffd9843ca4afbc70a3d8db325474ce3b64ffe0f2d3b3e223b75411116 416e20696e6e6f76617469766520746f6b656e20666f7220766973696f6e61726965732e\ndata_a3e176ec47dc9ce55e7428f3c847203d66e8197418dfc7a054a54f21c276a524 4120737461626c6520746f6b656e20666f722067726f756e64656420696e766573746f72732e\ndata_a7031d59d55152b9cc4911e80f88addf7bd2afcb619a04d53bf5b7af115bd127 416e20616476656e7475726f757320746f6b656e20666f72206578706c6f726572732e\ndata_e9c6373a2c8664db4b0287b0ef5bda8a81de9365b7d577db250ce5761356af8f 4120666965727920746f6b656e20666f7220626f6c64207269736b2d74616b65727321\ndata_f0eb97cd148984859eb773273399c09794776db504b1e7fcc328587d1fcf08e2 41206d7973746572696f757320746f6b656e2077697468206465657020706f74656e7469616c2e\ndata_fa91658017a31b978eebc0ca020e7c10039edaccb6ebc8158bd76912ec2a2883 412073747572647920746f6b656e20666f7220616d626974696f757320636c696d626572732e\ndata_faa929ba64820dae19b2e2abcfa459e8960e50d05a8d07439fa1fad40f847a11 4120766572736174696c6520746f6b656e20666f7220717569636b207468696e6b6572732e\n\nsub_0: assembly {\n        /* \"contracts/ZodiacTokenRecommender.sol\":58:3920  contract ZodiacTokenRecommender {... */\n      mstore(0x40, 0x80)\n      callvalue\n      dup1\n      iszero\n      tag_1\n      jumpi\n      revert(0x00, 0x00)\n    tag_1:\n      pop\n      jumpi(tag_2, lt(calldatasize, 0x04))\n      shr(0xe0, calldataload(0x00))\n      dup1\n      0x2a5c792a\n      eq\n      tag_3\n      jumpi\n      dup1\n      0x4b64b081\n      eq\n      tag_4\n      jumpi\n      dup1\n      0xbbf5066c\n      eq\n      tag_5\n      jumpi\n      dup1\n      0xf2bd2e96\n      eq\n      tag_6\n      jumpi\n    tag_2:\n      revert(0x00, 0x00)\n        /* \"contracts/ZodiacTokenRecommender.sol\":3778:3918  function getAllTokens() external view returns (string[12] memory, string[12] memory) {... */\n    tag_3:\n      tag_7\n      tag_8\n      jump\t// in\n    tag_7:\n      mload(0x40)\n      tag_9\n      swap3\n      swap2\n      swap1\n      tag_10\n      jump\t// in\n    tag_9:\n      mload(0x40)\n      dup1\n      swap2\n      sub\n      swap1\n      return\n        /* \"contracts/ZodiacTokenRecommender.sol\":3456:3701  function getRecommendation(address wallet) external view returns (TokenRecommendation memory) {... */\n    tag_4:\n      tag_11\n      0x04\n      dup1\n      calldatasize\n      sub\n      dup2\n      add\n      swap1\n      tag_12\n      swap2\n      swap1\n      tag_13\n      jump\t// in\n    tag_12:\n      tag_14\n      jump\t// in\n    tag_11:\n      mload(0x40)\n      tag_15\n      swap2\n      swap1\n      tag_16\n      jump\t// in\n    tag_15:\n      mload(0x40)\n      dup1\n      swap2\n      sub\n      swap1\n      return\n        /* \"contracts/ZodiacTokenRecommender.sol\":426:488  mapping(address => TokenRecommendation) public recommendations */\n    tag_5:\n      tag_17\n      0x04\n      dup1\n      calldatasize\n      sub\n      dup2\n      add\n      swap1\n      tag_18\n      swap2\n      swap1\n      tag_13\n      jump\t// in\n    tag_18:\n      tag_19\n      jump\t// in\n    tag_17:\n      mload(0x40)\n      tag_20\n      swap5\n      swap4\n      swap3\n      swap2\n      swap1\n      tag_21\n      jump\t// in\n    tag_20:\n      mload(0x40)\n      dup1\n      swap2\n      sub\n      swap1\n      return\n        /* \"contracts/ZodiacTokenRecommender.sol\":2290:3394  function recommendToken() external returns (TokenRecommendation memory) {... */\n    tag_6:\n      tag_22\n      tag_23\n      jump\t// in\n    tag_22:\n      mload(0x40)\n      tag_24\n      swap2\n      swap1\n      tag_16\n      jump\t// in\n    tag_24:\n      mload(0x40)\n      dup1\n      swap2\n      sub\n      swap1\n      return\n        /* \"contracts/ZodiacTokenRecommender.sol\":3778:3918  function getAllTokens() external view returns (string[12] memory, string[12] memory) {... */\n    tag_8:\n        /* \"contracts/ZodiacTokenRecommender.sol\":3825:3842  string[12] memory */\n      tag_25\n      tag_26\n      jump\t// in\n    tag_25:\n        /* \"contracts/ZodiacTokenRecommender.sol\":3844:3861  string[12] memory */\n      tag_27\n      tag_26\n      jump\t// in\n    tag_27:\n        /* \"contracts/ZodiacTokenRecommender.sol\":3881:3891  tokenNames */\n      0x01\n        /* \"contracts/ZodiacTokenRecommender.sol\":3893:3910  tokenDescriptions */\n      0x0d\n        /* \"contracts/ZodiacTokenRecommender.sol\":3873:3911  return (tokenNames, tokenDescriptions) */\n      dup2\n      0x0c\n      dup1\n      0x20\n      mul\n      mload(0x40)\n      swap1\n      dup2\n      add\n      0x40\n      mstore\n      dup1\n      swap3\n      swap2\n      swap1\n      0x00\n      swap1\n    tag_29:\n      dup3\n      dup3\n      lt\n      iszero\n      tag_30\n      jumpi\n      dup4\n      dup3\n      add\n      dup1\n      sload\n      tag_32\n      swap1\n      tag_33\n      jump\t// in\n    tag_32:\n      dup1\n      0x1f\n      add\n      0x20\n      dup1\n      swap2\n      div\n      mul\n      0x20\n      add\n      mload(0x40)\n      swap1\n      dup2\n      add\n      0x40\n      mstore\n      dup1\n      swap3\n      swap2\n      swap1\n      dup2\n      dup2\n      mstore\n      0x20\n      add\n      dup3\n      dup1\n      sload\n      tag_34\n      swap1\n      tag_33\n      jump\t// in\n    tag_34:\n      dup1\n      iszero\n      tag_35\n      jumpi\n      dup1\n      0x1f\n      lt\n      tag_36\n      jumpi\n      0x0100\n      dup1\n      dup4\n      sload\n      div\n      mul\n      dup4\n      mstore\n      swap2\n      0x20\n      add\n      swap2\n      jump(tag_35)\n    tag_36:\n      dup3\n      add\n      swap2\n      swap1\n      0x00\n      mstore\n      keccak256(0x00, 0x20)\n      swap1\n    tag_37:\n      dup2\n      sload\n      dup2\n      mstore\n      swap1\n      0x01\n      add\n      swap1\n      0x20\n      add\n      dup1\n      dup4\n      gt\n      tag_37\n      jumpi\n      dup3\n      swap1\n      sub\n      0x1f\n      and\n      dup3\n      add\n      swap2\n    tag_35:\n      pop\n      pop\n      pop\n      pop\n      pop\n      dup2\n      mstore\n      0x20\n      add\n      swap1\n      0x01\n      add\n      swap1\n      jump(tag_29)\n    tag_30:\n      pop\n      pop\n      pop\n      pop\n      swap2\n      pop\n      dup1\n      0x0c\n      dup1\n      0x20\n      mul\n      mload(0x40)\n      swap1\n      dup2\n      add\n      0x40\n      mstore\n      dup1\n      swap3\n      swap2\n      swap1\n      0x00\n      swap1\n    tag_38:\n      dup3\n      dup3\n      lt\n      iszero\n      tag_39\n      jumpi\n      dup4\n      dup3\n      add\n      dup1\n      sload\n      tag_41\n      swap1\n      tag_33\n      jump\t// in\n    tag_41:\n      dup1\n      0x1f\n      add\n      0x20\n      dup1\n      swap2\n      div\n      mul\n      0x20\n      add\n      mload(0x40)\n      swap1\n      dup2\n      add\n      0x40\n      mstore\n      dup1\n      swap3\n      swap2\n      swap1\n      dup2\n      dup2\n      mstore\n      0x20\n      add\n      dup3\n      dup1\n      sload\n      tag_42\n      swap1\n      tag_33\n      jump\t// in\n    tag_42:\n      dup1\n      iszero\n      tag_43\n      jumpi\n      dup1\n      0x1f\n      lt\n      tag_44\n      jumpi\n      0x0100\n      dup1\n      dup4\n      sload\n      div\n      mul\n      dup4\n      mstore\n      swap2\n      0x20\n      add\n      swap2\n      jump(tag_43)\n    tag_44:\n      dup3\n      add\n      swap2\n      swap1\n      0x00\n      mstore\n      keccak256(0x00, 0x20)\n      swap1\n    tag_45:\n      dup2\n      sload\n      dup2\n      mstore\n      swap1\n      0x01\n      add\n      swap1\n      0x20\n      add\n      dup1\n      dup4\n      gt\n      tag_45\n      jumpi\n      dup3\n      swap1\n      sub\n      0x1f\n      and\n      dup3\n      add\n      swap2\n    tag_43:\n      pop\n      pop\n      pop\n      pop\n      pop\n      dup2\n      mstore\n      0x20\n      add\n      swap1\n      0x01\n      add\n      swap1\n      jump(tag_38)\n    tag_39:\n      pop\n      pop\n      pop\n      pop\n      swap1\n      pop\n      swap2\n      pop\n      swap2\n      pop\n        /* \"contracts/ZodiacTokenRecommender.sol\":3778:3918  function getAllTokens() external view returns (string[12] memory, string[12] memory) {... */\n      swap1\n      swap2\n      jump\t// out\n        /* \"contracts/ZodiacTokenRecommender.sol\":3456:3701  function getRecommendation(address wallet) external view returns (TokenRecommendation memory) {... */\n    tag_14:\n        /* \"contracts/ZodiacTokenRecommender.sol\":3522:3548  TokenRecommendation memory */\n      tag_46\n      tag_47\n      jump\t// in\n    tag_46:\n        /* \"contracts/ZodiacTokenRecommender.sol\":3609:3610  0 */\n      0x00\n        /* \"contracts/ZodiacTokenRecommender.sol\":3568:3583  recommendations */\n      0x00\n        /* \"contracts/ZodiacTokenRecommender.sol\":3568:3591  recommendations[wallet] */\n      0x00\n        /* \"contracts/ZodiacTokenRecommender.sol\":3584:3590  wallet */\n      dup5\n        /* \"contracts/ZodiacTokenRecommender.sol\":3568:3591  recommendations[wallet] */\n      0xffffffffffffffffffffffffffffffffffffffff\n      and\n      0xffffffffffffffffffffffffffffffffffffffff\n      and\n      dup2\n      mstore\n      0x20\n      add\n      swap1\n      dup2\n      mstore\n      0x20\n      add\n      0x00\n      keccak256\n        /* \"contracts/ZodiacTokenRecommender.sol\":3568:3605  recommendations[wallet].recommendedAt */\n      0x03\n      add\n      sload\n        /* \"contracts/ZodiacTokenRecommender.sol\":3568:3610  recommendations[wallet].recommendedAt != 0 */\n      sub\n        /* \"contracts/ZodiacTokenRecommender.sol\":3560:3654  require(recommendations[wallet].recommendedAt != 0, \"No recommendation found for this wallet\") */\n      tag_49\n      jumpi\n      mload(0x40)\n      0x08c379a000000000000000000000000000000000000000000000000000000000\n      dup2\n      mstore\n      0x04\n      add\n      tag_50\n      swap1\n      tag_51\n      jump\t// in\n    tag_50:\n      mload(0x40)\n      dup1\n      swap2\n      sub\n      swap1\n      revert\n    tag_49:\n        /* \"contracts/ZodiacTokenRecommender.sol\":3671:3686  recommendations */\n      0x00\n        /* \"contracts/ZodiacTokenRecommender.sol\":3671:3694  recommendations[wallet] */\n      0x00\n        /* \"contracts/ZodiacTokenRecommender.sol\":3687:3693  wallet */\n      dup4\n        /* \"contracts/ZodiacTokenRecommender.sol\":3671:3694  recommendations[wallet] */\n      0xffffffffffffffffffffffffffffffffffffffff\n      and\n      0xffffffffffffffffffffffffffffffffffffffff\n      and\n      dup2\n      mstore\n      0x20\n      add\n      swap1\n      dup2\n      mstore\n      0x20\n      add\n      0x00\n      keccak256\n        /* \"contracts/ZodiacTokenRecommender.sol\":3664:3694  return recommendations[wallet] */\n      mload(0x40)\n      dup1\n      0x80\n      add\n      0x40\n      mstore\n      swap1\n      dup2\n      0x00\n      dup3\n      add\n      dup1\n      sload\n      tag_52\n      swap1\n      tag_33\n      jump\t// in\n    tag_52:\n      dup1\n      0x1f\n      add\n      0x20\n      dup1\n      swap2\n      div\n      mul\n      0x20\n      add\n      mload(0x40)\n      swap1\n      dup2\n      add\n      0x40\n      mstore\n      dup1\n      swap3\n      swap2\n      swap1\n      dup2\n      dup2\n      mstore\n      0x20\n      add\n      dup3\n      dup1\n      sload\n      tag_53\n      swap1\n      tag_33\n      jump\t// in\n    tag_53:\n      dup1\n      iszero\n      tag_54\n      jumpi\n      dup1\n      0x1f\n      lt\n      tag_55\n      jumpi\n      0x0100\n      dup1\n      dup4\n      sload\n      div\n      mul\n      dup4\n      mstore\n      swap2\n      0x20\n      add\n      swap2\n      jump(tag_54)\n    tag_55:\n      dup3\n      add\n      swap2\n      swap1\n      0x00\n      mstore\n      keccak256(0x00, 0x20)\n      swap1\n    tag_56:\n      dup2\n      sload\n      dup2\n      mstore\n      swap1\n      0x01\n      add\n      swap1\n      0x20\n      add\n      dup1\n      dup4\n      gt\n      tag_56\n      jumpi\n      dup3\n      swap1\n      sub\n      0x1f\n      and\n      dup3\n      add\n      swap2\n    tag_54:\n      pop\n      pop\n      pop\n      pop\n      pop\n      dup2\n      mstore\n      0x20\n      add\n      0x01\n      dup3\n      add\n      dup1\n      sload\n      tag_57\n      swap1\n      tag_33\n      jump\t// in\n    tag_57:\n      dup1\n      0x1f\n      add\n      0x20\n      dup1\n      swap2\n      div\n      mul\n      0x20\n      add\n      mload(0x40)\n      swap1\n      dup2\n      add\n      0x40\n      mstore\n      dup1\n      swap3\n      swap2\n      swap1\n      dup2\n      dup2\n      mstore\n      0x20\n      add\n      dup3\n      dup1\n      sload\n      tag_58\n      swap1\n      tag_33\n      jump\t// in\n    tag_58:\n      dup1\n      iszero\n      tag_59\n      jumpi\n      dup1\n      0x1f\n      lt\n      tag_60\n      jumpi\n      0x0100\n      dup1\n      dup4\n      sload\n      div\n      mul\n      dup4\n      mstore\n      swap2\n      0x20\n      add\n      swap2\n      jump(tag_59)\n    tag_60:\n      dup3\n      add\n      swap2\n      swap1\n      0x00\n      mstore\n      keccak256(0x00, 0x20)\n      swap1\n    tag_61:\n      dup2\n      sload\n      dup2\n      mstore\n      swap1\n      0x01\n      add\n      swap1\n      0x20\n      add\n      dup1\n      dup4\n      gt\n      tag_61\n      jumpi\n      dup3\n      swap1\n      sub\n      0x1f\n      and\n      dup3\n      add\n      swap2\n    tag_59:\n      pop\n      pop\n      pop\n      pop\n      pop\n      dup2\n      mstore\n      0x20\n      add\n      0x02\n      dup3\n      add\n      sload\n      dup2\n      mstore\n      0x20\n      add\n      0x03\n      dup3\n      add\n      sload\n      dup2\n      mstore\n      pop\n      pop\n      swap1\n      pop\n        /* \"contracts/ZodiacTokenRecommender.sol\":3456:3701  function getRecommendation(address wallet) external view returns (TokenRecommendation memory) {... */\n      swap2\n      swap1\n      pop\n      jump\t// out\n        /* \"contracts/ZodiacTokenRecommender.sol\":426:488  mapping(address => TokenRecommendation) public recommendations */\n    tag_19:\n      mstore(0x20, 0x00)\n      dup1\n      0x00\n      mstore\n      keccak256(0x00, 0x40)\n      0x00\n      swap2\n      pop\n      swap1\n      pop\n      dup1\n      0x00\n      add\n      dup1\n      sload\n      tag_62\n      swap1\n      tag_33\n      jump\t// in\n    tag_62:\n      dup1\n      0x1f\n      add\n      0x20\n      dup1\n      swap2\n      div\n      mul\n      0x20\n      add\n      mload(0x40)\n      swap1\n      dup2\n      add\n      0x40\n      mstore\n      dup1\n      swap3\n      swap2\n      swap1\n      dup2\n      dup2\n      mstore\n      0x20\n      add\n      dup3\n      dup1\n      sload\n      tag_63\n      swap1\n      tag_33\n      jump\t// in\n    tag_63:\n      dup1\n      iszero\n      tag_64\n      jumpi\n      dup1\n      0x1f\n      lt\n      tag_65\n      jumpi\n      0x0100\n      dup1\n      dup4\n      sload\n      div\n      mul\n      dup4\n      mstore\n      swap2\n      0x20\n      add\n      swap2\n      jump(tag_64)\n    tag_65:\n      dup3\n      add\n      swap2\n      swap1\n      0x00\n      mstore\n      keccak256(0x00, 0x20)\n      swap1\n    tag_66:\n      dup2\n      sload\n      dup2\n      mstore\n      swap1\n      0x01\n      add\n      swap1\n      0x20\n      add\n      dup1\n      dup4\n      gt\n      tag_66\n      jumpi\n      dup3\n      swap1\n      sub\n      0x1f\n      and\n      dup3\n      add\n      swap2\n    tag_64:\n      pop\n      pop\n      pop\n      pop\n      pop\n      swap1\n      dup1\n      0x01\n      add\n      dup1\n      sload\n      tag_67\n      swap1\n      tag_33\n      jump\t// in\n    tag_67:\n      dup1\n      0x1f\n      add\n      0x20\n      dup1\n      swap2\n      div\n      mul\n      0x20\n      add\n      mload(0x40)\n      swap1\n      dup2\n      add\n      0x40\n      mstore\n      dup1\n      swap3\n      swap2\n      swap1\n      dup2\n      dup2\n      mstore\n      0x20\n      add\n      dup3\n      dup1\n      sload\n      tag_68\n      swap1\n      tag_33\n      jump\t// in\n    tag_68:\n      dup1\n      iszero\n      tag_69\n      jumpi\n      dup1\n      0x1f\n      lt\n      tag_70\n      jumpi\n      0x0100\n      dup1\n      dup4\n      sload\n      div\n      mul\n      dup4\n      mstore\n      swap2\n      0x20\n      add\n      swap2\n      jump(tag_69)\n    tag_70:\n      dup3\n      add\n      swap2\n      swap1\n      0x00\n      mstore\n      keccak256(0x00, 0x20)\n      swap1\n    tag_71:\n      dup2\n      sload\n      dup2\n      mstore\n      swap1\n      0x01\n      add\n      swap1\n      0x20\n      add\n      dup1\n      dup4\n      gt\n      tag_71\n      jumpi\n      dup3\n      swap1\n      sub\n      0x1f\n      and\n      dup3\n      add\n      swap2\n    tag_69:\n      pop\n      pop\n      pop\n      pop\n      pop\n      swap1\n      dup1\n      0x02\n      add\n      sload\n      swap1\n      dup1\n      0x03\n      add\n      sload\n      swap1\n      pop\n      dup5\n      jump\t// out\n        /* \"contracts/ZodiacTokenRecommender.sol\":2290:3394  function recommendToken() external returns (TokenRecommendation memory) {... */\n    tag_23:\n        /* \"contracts/ZodiacTokenRecommender.sol\":2334:2360  TokenRecommendation memory */\n      tag_72\n      tag_47\n      jump\t// in\n    tag_72:\n        /* \"contracts/ZodiacTokenRecommender.sol\":2437:2456  uint256 zodiacIndex */\n      0x00\n        /* \"contracts/ZodiacTokenRecommender.sol\":2510:2512  12 */\n      0x0c\n        /* \"contracts/ZodiacTokenRecommender.sol\":2494:2504  msg.sender */\n      caller\n        /* \"contracts/ZodiacTokenRecommender.sol\":2477:2505  abi.encodePacked(msg.sender) */\n      add(0x20, mload(0x40))\n      tag_74\n      swap2\n      swap1\n      tag_75\n      jump\t// in\n    tag_74:\n      mload(0x40)\n      0x20\n      dup2\n      dup4\n      sub\n      sub\n      dup2\n      mstore\n      swap1\n      0x40\n      mstore\n        /* \"contracts/ZodiacTokenRecommender.sol\":2467:2506  keccak256(abi.encodePacked(msg.sender)) */\n      dup1\n      mload\n      swap1\n      0x20\n      add\n      keccak256\n        /* \"contracts/ZodiacTokenRecommender.sol\":2459:2507  uint256(keccak256(abi.encodePacked(msg.sender))) */\n      0x00\n      shr\n        /* \"contracts/ZodiacTokenRecommender.sol\":2459:2512  uint256(keccak256(abi.encodePacked(msg.sender))) % 12 */\n      tag_76\n      swap2\n      swap1\n      tag_77\n      jump\t// in\n    tag_76:\n        /* \"contracts/ZodiacTokenRecommender.sol\":2437:2512  uint256 zodiacIndex = uint256(keccak256(abi.encodePacked(msg.sender))) % 12 */\n      swap1\n      pop\n        /* \"contracts/ZodiacTokenRecommender.sol\":2605:2623  uint256 luckFactor */\n      0x00\n        /* \"contracts/ZodiacTokenRecommender.sol\":2716:2717  1 */\n      0x01\n        /* \"contracts/ZodiacTokenRecommender.sol\":2709:2712  100 */\n      0x64\n        /* \"contracts/ZodiacTokenRecommender.sol\":2662:2672  msg.sender */\n      caller\n        /* \"contracts/ZodiacTokenRecommender.sol\":2674:2689  block.timestamp */\n      timestamp\n        /* \"contracts/ZodiacTokenRecommender.sol\":2691:2703  block.number */\n      number\n        /* \"contracts/ZodiacTokenRecommender.sol\":2645:2704  abi.encodePacked(msg.sender, block.timestamp, block.number) */\n      add(0x20, mload(0x40))\n      tag_78\n      swap4\n      swap3\n      swap2\n      swap1\n      tag_79\n      jump\t// in\n    tag_78:\n      mload(0x40)\n      0x20\n      dup2\n      dup4\n      sub\n      sub\n      dup2\n      mstore\n      swap1\n      0x40\n      mstore\n        /* \"contracts/ZodiacTokenRecommender.sol\":2635:2705  keccak256(abi.encodePacked(msg.sender, block.timestamp, block.number)) */\n      dup1\n      mload\n      swap1\n      0x20\n      add\n      keccak256\n        /* \"contracts/ZodiacTokenRecommender.sol\":2627:2706  uint256(keccak256(abi.encodePacked(msg.sender, block.timestamp, block.number))) */\n      0x00\n      shr\n        /* \"contracts/ZodiacTokenRecommender.sol\":2627:2712  uint256(keccak256(abi.encodePacked(msg.sender, block.timestamp, block.number))) % 100 */\n      tag_80\n      swap2\n      swap1\n      tag_77\n      jump\t// in\n    tag_80:\n        /* \"contracts/ZodiacTokenRecommender.sol\":2626:2717  (uint256(keccak256(abi.encodePacked(msg.sender, block.timestamp, block.number))) % 100) + 1 */\n      tag_81\n      swap2\n      swap1\n      tag_82\n      jump\t// in\n    tag_81:\n        /* \"contracts/ZodiacTokenRecommender.sol\":2605:2717  uint256 luckFactor = (uint256(keccak256(abi.encodePacked(msg.sender, block.timestamp, block.number))) % 100) + 1 */\n      swap1\n      pop\n        /* \"contracts/ZodiacTokenRecommender.sol\":2761:2802  TokenRecommendation memory recommendation */\n      0x00\n        /* \"contracts/ZodiacTokenRecommender.sol\":2805:3021  TokenRecommendation({... */\n      mload(0x40)\n      dup1\n      0x80\n      add\n      0x40\n      mstore\n      dup1\n        /* \"contracts/ZodiacTokenRecommender.sol\":2850:2860  tokenNames */\n      0x01\n        /* \"contracts/ZodiacTokenRecommender.sol\":2861:2872  zodiacIndex */\n      dup6\n        /* \"contracts/ZodiacTokenRecommender.sol\":2850:2873  tokenNames[zodiacIndex] */\n      0x0c\n      dup2\n      lt\n      tag_83\n      jumpi\n      tag_84\n      tag_85\n      jump\t// in\n    tag_84:\n    tag_83:\n      add\n        /* \"contracts/ZodiacTokenRecommender.sol\":2805:3021  TokenRecommendation({... */\n      dup1\n      sload\n      tag_87\n      swap1\n      tag_33\n      jump\t// in\n    tag_87:\n      dup1\n      0x1f\n      add\n      0x20\n      dup1\n      swap2\n      div\n      mul\n      0x20\n      add\n      mload(0x40)\n      swap1\n      dup2\n      add\n      0x40\n      mstore\n      dup1\n      swap3\n      swap2\n      swap1\n      dup2\n      dup2\n      mstore\n      0x20\n      add\n      dup3\n      dup1\n      sload\n      tag_88\n      swap1\n      tag_33\n      jump\t// in\n    tag_88:\n      dup1\n      iszero\n      tag_89\n      jumpi\n      dup1\n      0x1f\n      lt\n      tag_90\n      jumpi\n      0x0100\n      dup1\n      dup4\n      sload\n      div\n      mul\n      dup4\n      mstore\n      swap2\n      0x20\n      add\n      swap2\n      jump(tag_89)\n    tag_90:\n      dup3\n      add\n      swap2\n      swap1\n      0x00\n      mstore\n      keccak256(0x00, 0x20)\n      swap1\n    tag_91:\n      dup2\n      sload\n      dup2\n      mstore\n      swap1\n      0x01\n      add\n      swap1\n      0x20\n      add\n      dup1\n      dup4\n      gt\n      tag_91\n      jumpi\n      dup3\n      swap1\n      sub\n      0x1f\n      and\n      dup3\n      add\n      swap2\n    tag_89:\n      pop\n      pop\n      pop\n      pop\n      pop\n      dup2\n      mstore\n      0x20\n      add\n        /* \"contracts/ZodiacTokenRecommender.sol\":2900:2917  tokenDescriptions */\n      0x0d\n        /* \"contracts/ZodiacTokenRecommender.sol\":2918:2929  zodiacIndex */\n      dup6\n        /* \"contracts/ZodiacTokenRecommender.sol\":2900:2930  tokenDescriptions[zodiacIndex] */\n      0x0c\n      dup2\n      lt\n      tag_92\n      jumpi\n      tag_93\n      tag_85\n      jump\t// in\n    tag_93:\n    tag_92:\n      add\n        /* \"contracts/ZodiacTokenRecommender.sol\":2805:3021  TokenRecommendation({... */\n      dup1\n      sload\n      tag_95\n      swap1\n      tag_33\n      jump\t// in\n    tag_95:\n      dup1\n      0x1f\n      add\n      0x20\n      dup1\n      swap2\n      div\n      mul\n      0x20\n      add\n      mload(0x40)\n      swap1\n      dup2\n      add\n      0x40\n      mstore\n      dup1\n      swap3\n      swap2\n      swap1\n      dup2\n      dup2\n      mstore\n      0x20\n      add\n      dup3\n      dup1\n      sload\n      tag_96\n      swap1\n      tag_33\n      jump\t// in\n    tag_96:\n      dup1\n      iszero\n      tag_97\n      jumpi\n      dup1\n      0x1f\n      lt\n      tag_98\n      jumpi\n      0x0100\n      dup1\n      dup4\n      sload\n      div\n      mul\n      dup4\n      mstore\n      swap2\n      0x20\n      add\n      swap2\n      jump(tag_97)\n    tag_98:\n      dup3\n      add\n      swap2\n      swap1\n      0x00\n      mstore\n      keccak256(0x00, 0x20)\n      swap1\n    tag_99:\n      dup2\n      sload\n      dup2\n      mstore\n      swap1\n      0x01\n      add\n      swap1\n      0x20\n      add\n      dup1\n      dup4\n      gt\n      tag_99\n      jumpi\n      dup3\n      swap1\n      sub\n      0x1f\n      and\n      dup3\n      add\n      swap2\n    tag_97:\n      pop\n      pop\n      pop\n      pop\n      pop\n      dup2\n      mstore\n      0x20\n      add\n        /* \"contracts/ZodiacTokenRecommender.sol\":2956:2966  luckFactor */\n      dup4\n        /* \"contracts/ZodiacTokenRecommender.sol\":2805:3021  TokenRecommendation({... */\n      dup2\n      mstore\n      0x20\n      add\n        /* \"contracts/ZodiacTokenRecommender.sol\":2995:3010  block.timestamp */\n      timestamp\n        /* \"contracts/ZodiacTokenRecommender.sol\":2805:3021  TokenRecommendation({... */\n      dup2\n      mstore\n      pop\n        /* \"contracts/ZodiacTokenRecommender.sol\":2761:3021  TokenRecommendation memory recommendation = TokenRecommendation({... */\n      swap1\n      pop\n        /* \"contracts/ZodiacTokenRecommender.sol\":3094:3108  recommendation */\n      dup1\n        /* \"contracts/ZodiacTokenRecommender.sol\":3064:3079  recommendations */\n      0x00\n        /* \"contracts/ZodiacTokenRecommender.sol\":3064:3091  recommendations[msg.sender] */\n      0x00\n        /* \"contracts/ZodiacTokenRecommender.sol\":3080:3090  msg.sender */\n      caller\n        /* \"contracts/ZodiacTokenRecommender.sol\":3064:3091  recommendations[msg.sender] */\n      0xffffffffffffffffffffffffffffffffffffffff\n      and\n      0xffffffffffffffffffffffffffffffffffffffff\n      and\n      dup2\n      mstore\n      0x20\n      add\n      swap1\n      dup2\n      mstore\n      0x20\n      add\n      0x00\n      keccak256\n        /* \"contracts/ZodiacTokenRecommender.sol\":3064:3108  recommendations[msg.sender] = recommendation */\n      0x00\n      dup3\n      add\n      mload\n      dup2\n      0x00\n      add\n      swap1\n      dup2\n      tag_100\n      swap2\n      swap1\n      tag_101\n      jump\t// in\n    tag_100:\n      pop\n      0x20\n      dup3\n      add\n      mload\n      dup2\n      0x01\n      add\n      swap1\n      dup2\n      tag_102\n      swap2\n      swap1\n      tag_101\n      jump\t// in\n    tag_102:\n      pop\n      0x40\n      dup3\n      add\n      mload\n      dup2\n      0x02\n      add\n      sstore\n      0x60\n      dup3\n      add\n      mload\n      dup2\n      0x03\n      add\n      sstore\n      swap1\n      pop\n      pop\n        /* \"contracts/ZodiacTokenRecommender.sol\":3176:3186  msg.sender */\n      caller\n        /* \"contracts/ZodiacTokenRecommender.sol\":3146:3355  TokenRecommended(... */\n      0xffffffffffffffffffffffffffffffffffffffff\n      and\n      0xae7290a17adbeac3efa0d7b613b25b0bdc655d0f8d8d76f7470dcd25e441b224\n        /* \"contracts/ZodiacTokenRecommender.sol\":3200:3214  recommendation */\n      dup3\n        /* \"contracts/ZodiacTokenRecommender.sol\":3200:3224  recommendation.tokenName */\n      0x00\n      add\n      mload\n        /* \"contracts/ZodiacTokenRecommender.sol\":3238:3252  recommendation */\n      dup4\n        /* \"contracts/ZodiacTokenRecommender.sol\":3238:3264  recommendation.description */\n      0x20\n      add\n      mload\n        /* \"contracts/ZodiacTokenRecommender.sol\":3278:3292  recommendation */\n      dup5\n        /* \"contracts/ZodiacTokenRecommender.sol\":3278:3303  recommendation.luckFactor */\n      0x40\n      add\n      mload\n        /* \"contracts/ZodiacTokenRecommender.sol\":3317:3331  recommendation */\n      dup6\n        /* \"contracts/ZodiacTokenRecommender.sol\":3317:3345  recommendation.recommendedAt */\n      0x60\n      add\n      mload\n        /* \"contracts/ZodiacTokenRecommender.sol\":3146:3355  TokenRecommended(... */\n      mload(0x40)\n      tag_103\n      swap5\n      swap4\n      swap3\n      swap2\n      swap1\n      tag_21\n      jump\t// in\n    tag_103:\n      mload(0x40)\n      dup1\n      swap2\n      sub\n      swap1\n      log2\n        /* \"contracts/ZodiacTokenRecommender.sol\":3373:3387  recommendation */\n      dup1\n        /* \"contracts/ZodiacTokenRecommender.sol\":3366:3387  return recommendation */\n      swap4\n      pop\n      pop\n      pop\n      pop\n        /* \"contracts/ZodiacTokenRecommender.sol\":2290:3394  function recommendToken() external returns (TokenRecommendation memory) {... */\n      swap1\n      jump\t// out\n    tag_26:\n      mload(0x40)\n      dup1\n      0x0180\n      add\n      0x40\n      mstore\n      dup1\n      0x0c\n      swap1\n    tag_104:\n      0x60\n      dup2\n      mstore\n      0x20\n      add\n      swap1\n      0x01\n      swap1\n      sub\n      swap1\n      dup2\n      tag_104\n      jumpi\n      swap1\n      pop\n      pop\n      swap1\n      jump\t// out\n    tag_47:\n      mload(0x40)\n      dup1\n      0x80\n      add\n      0x40\n      mstore\n      dup1\n      0x60\n      dup2\n      mstore\n      0x20\n      add\n      0x60\n      dup2\n      mstore\n      0x20\n      add\n      0x00\n      dup2\n      mstore\n      0x20\n      add\n      0x00\n      dup2\n      mstore\n      pop\n      swap1\n      jump\t// out\n        /* \"#utility.yul\":7:122   */\n    tag_105:\n        /* \"#utility.yul\":83:89   */\n      0x00\n        /* \"#utility.yul\":111:115   */\n      0x0c\n        /* \"#utility.yul\":101:115   */\n      swap1\n      pop\n        /* \"#utility.yul\":7:122   */\n      swap2\n      swap1\n      pop\n      jump\t// out\n        /* \"#utility.yul\":128:282   */\n    tag_106:\n        /* \"#utility.yul\":236:247   */\n      0x00\n        /* \"#utility.yul\":273:276   */\n      dup2\n        /* \"#utility.yul\":258:276   */\n      swap1\n      pop\n        /* \"#utility.yul\":128:282   */\n      swap3\n      swap2\n      pop\n      pop\n      jump\t// out\n        /* \"#utility.yul\":288:397   */\n    tag_107:\n        /* \"#utility.yul\":364:368   */\n      0x00\n        /* \"#utility.yul\":387:390   */\n      dup2\n        /* \"#utility.yul\":379:390   */\n      swap1\n      pop\n        /* \"#utility.yul\":288:397   */\n      swap2\n      swap1\n      pop\n      jump\t// out\n        /* \"#utility.yul\":403:502   */\n    tag_108:\n        /* \"#utility.yul\":455:461   */\n      0x00\n        /* \"#utility.yul\":489:494   */\n      dup2\n        /* \"#utility.yul\":483:495   */\n      mload\n        /* \"#utility.yul\":473:495   */\n      swap1\n      pop\n        /* \"#utility.yul\":403:502   */\n      swap2\n      swap1\n      pop\n      jump\t// out\n        /* \"#utility.yul\":508:667   */\n    tag_109:\n        /* \"#utility.yul\":582:593   */\n      0x00\n        /* \"#utility.yul\":616:622   */\n      dup3\n        /* \"#utility.yul\":611:614   */\n      dup3\n        /* \"#utility.yul\":604:623   */\n      mstore\n        /* \"#utility.yul\":656:660   */\n      0x20\n        /* \"#utility.yul\":651:654   */\n      dup3\n        /* \"#utility.yul\":647:661   */\n      add\n        /* \"#utility.yul\":632:661   */\n      swap1\n      pop\n        /* \"#utility.yul\":508:667   */\n      swap3\n      swap2\n      pop\n      pop\n      jump\t// out\n        /* \"#utility.yul\":673:812   */\n    tag_110:\n        /* \"#utility.yul\":762:768   */\n      dup3\n        /* \"#utility.yul\":757:760   */\n      dup2\n        /* \"#utility.yul\":752:755   */\n      dup4\n        /* \"#utility.yul\":746:769   */\n      mcopy\n        /* \"#utility.yul\":803:804   */\n      0x00\n        /* \"#utility.yul\":794:800   */\n      dup4\n        /* \"#utility.yul\":789:792   */\n      dup4\n        /* \"#utility.yul\":785:801   */\n      add\n        /* \"#utility.yul\":778:805   */\n      mstore\n        /* \"#utility.yul\":673:812   */\n      pop\n      pop\n      pop\n      jump\t// out\n        /* \"#utility.yul\":818:920   */\n    tag_111:\n        /* \"#utility.yul\":859:865   */\n      0x00\n        /* \"#utility.yul\":910:912   */\n      0x1f\n        /* \"#utility.yul\":906:913   */\n      not\n        /* \"#utility.yul\":901:903   */\n      0x1f\n        /* \"#utility.yul\":894:899   */\n      dup4\n        /* \"#utility.yul\":890:904   */\n      add\n        /* \"#utility.yul\":886:914   */\n      and\n        /* \"#utility.yul\":876:914   */\n      swap1\n      pop\n        /* \"#utility.yul\":818:920   */\n      swap2\n      swap1\n      pop\n      jump\t// out\n        /* \"#utility.yul\":926:1283   */\n    tag_112:\n        /* \"#utility.yul\":1004:1007   */\n      0x00\n        /* \"#utility.yul\":1032:1071   */\n      tag_165\n        /* \"#utility.yul\":1065:1070   */\n      dup3\n        /* \"#utility.yul\":1032:1071   */\n      tag_108\n      jump\t// in\n    tag_165:\n        /* \"#utility.yul\":1087:1148   */\n      tag_166\n        /* \"#utility.yul\":1141:1147   */\n      dup2\n        /* \"#utility.yul\":1136:1139   */\n      dup6\n        /* \"#utility.yul\":1087:1148   */\n      tag_109\n      jump\t// in\n    tag_166:\n        /* \"#utility.yul\":1080:1148   */\n      swap4\n      pop\n        /* \"#utility.yul\":1157:1222   */\n      tag_167\n        /* \"#utility.yul\":1215:1221   */\n      dup2\n        /* \"#utility.yul\":1210:1213   */\n      dup6\n        /* \"#utility.yul\":1203:1207   */\n      0x20\n        /* \"#utility.yul\":1196:1201   */\n      dup7\n        /* \"#utility.yul\":1192:1208   */\n      add\n        /* \"#utility.yul\":1157:1222   */\n      tag_110\n      jump\t// in\n    tag_167:\n        /* \"#utility.yul\":1247:1276   */\n      tag_168\n        /* \"#utility.yul\":1269:1275   */\n      dup2\n        /* \"#utility.yul\":1247:1276   */\n      tag_111\n      jump\t// in\n    tag_168:\n        /* \"#utility.yul\":1242:1245   */\n      dup5\n        /* \"#utility.yul\":1238:1277   */\n      add\n        /* \"#utility.yul\":1231:1277   */\n      swap2\n      pop\n        /* \"#utility.yul\":1008:1283   */\n      pop\n        /* \"#utility.yul\":926:1283   */\n      swap3\n      swap2\n      pop\n      pop\n      jump\t// out\n        /* \"#utility.yul\":1289:1485   */\n    tag_113:\n        /* \"#utility.yul\":1378:1388   */\n      0x00\n        /* \"#utility.yul\":1413:1479   */\n      tag_170\n        /* \"#utility.yul\":1475:1478   */\n      dup4\n        /* \"#utility.yul\":1467:1473   */\n      dup4\n        /* \"#utility.yul\":1413:1479   */\n      tag_112\n      jump\t// in\n    tag_170:\n        /* \"#utility.yul\":1399:1479   */\n      swap1\n      pop\n        /* \"#utility.yul\":1289:1485   */\n      swap3\n      swap2\n      pop\n      pop\n      jump\t// out\n        /* \"#utility.yul\":1491:1613   */\n    tag_114:\n        /* \"#utility.yul\":1570:1574   */\n      0x00\n        /* \"#utility.yul\":1602:1606   */\n      0x20\n        /* \"#utility.yul\":1597:1600   */\n      dup3\n        /* \"#utility.yul\":1593:1607   */\n      add\n        /* \"#utility.yul\":1585:1607   */\n      swap1\n      pop\n        /* \"#utility.yul\":1491:1613   */\n      swap2\n      swap1\n      pop\n      jump\t// out\n        /* \"#utility.yul\":1651:2636   */\n    tag_115:\n        /* \"#utility.yul\":1788:1791   */\n      0x00\n        /* \"#utility.yul\":1817:1880   */\n      tag_173\n        /* \"#utility.yul\":1874:1879   */\n      dup3\n        /* \"#utility.yul\":1817:1880   */\n      tag_105\n      jump\t// in\n    tag_173:\n        /* \"#utility.yul\":1896:1991   */\n      tag_174\n        /* \"#utility.yul\":1984:1990   */\n      dup2\n        /* \"#utility.yul\":1979:1982   */\n      dup6\n        /* \"#utility.yul\":1896:1991   */\n      tag_106\n      jump\t// in\n    tag_174:\n        /* \"#utility.yul\":1889:1991   */\n      swap4\n      pop\n        /* \"#utility.yul\":2017:2020   */\n      dup4\n        /* \"#utility.yul\":2062:2066   */\n      0x20\n        /* \"#utility.yul\":2054:2060   */\n      dup3\n        /* \"#utility.yul\":2050:2067   */\n      mul\n        /* \"#utility.yul\":2045:2048   */\n      dup6\n        /* \"#utility.yul\":2041:2068   */\n      add\n        /* \"#utility.yul\":2092:2157   */\n      tag_175\n        /* \"#utility.yul\":2151:2156   */\n      dup6\n        /* \"#utility.yul\":2092:2157   */\n      tag_107\n      jump\t// in\n    tag_175:\n        /* \"#utility.yul\":2180:2187   */\n      dup1\n        /* \"#utility.yul\":2211:2212   */\n      0x00\n        /* \"#utility.yul\":2196:2591   */\n    tag_176:\n        /* \"#utility.yul\":2221:2227   */\n      dup6\n        /* \"#utility.yul\":2218:2219   */\n      dup2\n        /* \"#utility.yul\":2215:2228   */\n      lt\n        /* \"#utility.yul\":2196:2591   */\n      iszero\n      tag_178\n      jumpi\n        /* \"#utility.yul\":2292:2301   */\n      dup5\n        /* \"#utility.yul\":2286:2290   */\n      dup5\n        /* \"#utility.yul\":2282:2302   */\n      sub\n        /* \"#utility.yul\":2277:2280   */\n      dup10\n        /* \"#utility.yul\":2270:2303   */\n      mstore\n        /* \"#utility.yul\":2343:2349   */\n      dup2\n        /* \"#utility.yul\":2337:2350   */\n      mload\n        /* \"#utility.yul\":2371:2455   */\n      tag_179\n        /* \"#utility.yul\":2450:2454   */\n      dup6\n        /* \"#utility.yul\":2435:2448   */\n      dup3\n        /* \"#utility.yul\":2371:2455   */\n      tag_113\n      jump\t// in\n    tag_179:\n        /* \"#utility.yul\":2363:2455   */\n      swap5\n      pop\n        /* \"#utility.yul\":2478:2547   */\n      tag_180\n        /* \"#utility.yul\":2540:2546   */\n      dup4\n        /* \"#utility.yul\":2478:2547   */\n      tag_114\n      jump\t// in\n    tag_180:\n        /* \"#utility.yul\":2468:2547   */\n      swap3\n      pop\n        /* \"#utility.yul\":2576:2580   */\n      0x20\n        /* \"#utility.yul\":2571:2574   */\n      dup11\n        /* \"#utility.yul\":2567:2581   */\n      add\n        /* \"#utility.yul\":2560:2581   */\n      swap10\n      pop\n        /* \"#utility.yul\":2256:2591   */\n      pop\n        /* \"#utility.yul\":2243:2244   */\n      0x01\n        /* \"#utility.yul\":2240:2241   */\n      dup2\n        /* \"#utility.yul\":2236:2245   */\n      add\n        /* \"#utility.yul\":2231:2245   */\n      swap1\n      pop\n        /* \"#utility.yul\":2196:2591   */\n      jump(tag_176)\n    tag_178:\n        /* \"#utility.yul\":2200:2214   */\n      pop\n        /* \"#utility.yul\":2607:2611   */\n      dup3\n        /* \"#utility.yul\":2600:2611   */\n      swap8\n      pop\n        /* \"#utility.yul\":2627:2630   */\n      dup8\n        /* \"#utility.yul\":2620:2630   */\n      swap6\n      pop\n        /* \"#utility.yul\":1793:2636   */\n      pop\n      pop\n      pop\n      pop\n      pop\n        /* \"#utility.yul\":1651:2636   */\n      swap3\n      swap2\n      pop\n      pop\n      jump\t// out\n        /* \"#utility.yul\":2642:3348   */\n    tag_10:\n        /* \"#utility.yul\":2899:2903   */\n      0x00\n        /* \"#utility.yul\":2937:2939   */\n      0x40\n        /* \"#utility.yul\":2926:2935   */\n      dup3\n        /* \"#utility.yul\":2922:2940   */\n      add\n        /* \"#utility.yul\":2914:2940   */\n      swap1\n      pop\n        /* \"#utility.yul\":2986:2995   */\n      dup2\n        /* \"#utility.yul\":2980:2984   */\n      dup2\n        /* \"#utility.yul\":2976:2996   */\n      sub\n        /* \"#utility.yul\":2972:2973   */\n      0x00\n        /* \"#utility.yul\":2961:2970   */\n      dup4\n        /* \"#utility.yul\":2957:2974   */\n      add\n        /* \"#utility.yul\":2950:2997   */\n      mstore\n        /* \"#utility.yul\":3014:3140   */\n      tag_182\n        /* \"#utility.yul\":3135:3139   */\n      dup2\n        /* \"#utility.yul\":3126:3132   */\n      dup6\n        /* \"#utility.yul\":3014:3140   */\n      tag_115\n      jump\t// in\n    tag_182:\n        /* \"#utility.yul\":3006:3140   */\n      swap1\n      pop\n        /* \"#utility.yul\":3187:3196   */\n      dup2\n        /* \"#utility.yul\":3181:3185   */\n      dup2\n        /* \"#utility.yul\":3177:3197   */\n      sub\n        /* \"#utility.yul\":3172:3174   */\n      0x20\n        /* \"#utility.yul\":3161:3170   */\n      dup4\n        /* \"#utility.yul\":3157:3175   */\n      add\n        /* \"#utility.yul\":3150:3198   */\n      mstore\n        /* \"#utility.yul\":3215:3341   */\n      tag_183\n        /* \"#utility.yul\":3336:3340   */\n      dup2\n        /* \"#utility.yul\":3327:3333   */\n      dup5\n        /* \"#utility.yul\":3215:3341   */\n      tag_115\n      jump\t// in\n    tag_183:\n        /* \"#utility.yul\":3207:3341   */\n      swap1\n      pop\n        /* \"#utility.yul\":2642:3348   */\n      swap4\n      swap3\n      pop\n      pop\n      pop\n      jump\t// out\n        /* \"#utility.yul\":3435:3552   */\n    tag_117:\n        /* \"#utility.yul\":3544:3545   */\n      0x00\n        /* \"#utility.yul\":3541:3542   */\n      0x00\n        /* \"#utility.yul\":3534:3546   */\n      revert\n        /* \"#utility.yul\":3681:3807   */\n    tag_119:\n        /* \"#utility.yul\":3718:3725   */\n      0x00\n        /* \"#utility.yul\":3758:3800   */\n      0xffffffffffffffffffffffffffffffffffffffff\n        /* \"#utility.yul\":3751:3756   */\n      dup3\n        /* \"#utility.yul\":3747:3801   */\n      and\n        /* \"#utility.yul\":3736:3801   */\n      swap1\n      pop\n        /* \"#utility.yul\":3681:3807   */\n      swap2\n      swap1\n      pop\n      jump\t// out\n        /* \"#utility.yul\":3813:3909   */\n    tag_120:\n        /* \"#utility.yul\":3850:3857   */\n      0x00\n        /* \"#utility.yul\":3879:3903   */\n      tag_189\n        /* \"#utility.yul\":3897:3902   */\n      dup3\n        /* \"#utility.yul\":3879:3903   */\n      tag_119\n      jump\t// in\n    tag_189:\n        /* \"#utility.yul\":3868:3903   */\n      swap1\n      pop\n        /* \"#utility.yul\":3813:3909   */\n      swap2\n      swap1\n      pop\n      jump\t// out\n        /* \"#utility.yul\":3915:4037   */\n    tag_121:\n        /* \"#utility.yul\":3988:4012   */\n      tag_191\n        /* \"#utility.yul\":4006:4011   */\n      dup2\n        /* \"#utility.yul\":3988:4012   */\n      tag_120\n      jump\t// in\n    tag_191:\n        /* \"#utility.yul\":3981:3986   */\n      dup2\n        /* \"#utility.yul\":3978:4013   */\n      eq\n        /* \"#utility.yul\":3968:4031   */\n      tag_192\n      jumpi\n        /* \"#utility.yul\":4027:4028   */\n      0x00\n        /* \"#utility.yul\":4024:4025   */\n      0x00\n        /* \"#utility.yul\":4017:4029   */\n      revert\n        /* \"#utility.yul\":3968:4031   */\n    tag_192:\n        /* \"#utility.yul\":3915:4037   */\n      pop\n      jump\t// out\n        /* \"#utility.yul\":4043:4182   */\n    tag_122:\n        /* \"#utility.yul\":4089:4094   */\n      0x00\n        /* \"#utility.yul\":4127:4133   */\n      dup2\n        /* \"#utility.yul\":4114:4134   */\n      calldataload\n        /* \"#utility.yul\":4105:4134   */\n      swap1\n      pop\n        /* \"#utility.yul\":4143:4176   */\n      tag_194\n        /* \"#utility.yul\":4170:4175   */\n      dup2\n        /* \"#utility.yul\":4143:4176   */\n      tag_121\n      jump\t// in\n    tag_194:\n        /* \"#utility.yul\":4043:4182   */\n      swap3\n      swap2\n      pop\n      pop\n      jump\t// out\n        /* \"#utility.yul\":4188:4517   */\n    tag_13:\n        /* \"#utility.yul\":4247:4253   */\n      0x00\n        /* \"#utility.yul\":4296:4298   */\n      0x20\n        /* \"#utility.yul\":4284:4293   */\n      dup3\n        /* \"#utility.yul\":4275:4282   */\n      dup5\n        /* \"#utility.yul\":4271:4294   */\n      sub\n        /* \"#utility.yul\":4267:4299   */\n      slt\n        /* \"#utility.yul\":4264:4383   */\n      iszero\n      tag_196\n      jumpi\n        /* \"#utility.yul\":4302:4381   */\n      tag_197\n      tag_117\n      jump\t// in\n    tag_197:\n        /* \"#utility.yul\":4264:4383   */\n    tag_196:\n        /* \"#utility.yul\":4422:4423   */\n      0x00\n        /* \"#utility.yul\":4447:4500   */\n      tag_198\n        /* \"#utility.yul\":4492:4499   */\n      dup5\n        /* \"#utility.yul\":4483:4489   */\n      dup3\n        /* \"#utility.yul\":4472:4481   */\n      dup6\n        /* \"#utility.yul\":4468:4490   */\n      add\n        /* \"#utility.yul\":4447:4500   */\n      tag_122\n      jump\t// in\n    tag_198:\n        /* \"#utility.yul\":4437:4500   */\n      swap2\n      pop\n        /* \"#utility.yul\":4393:4510   */\n      pop\n        /* \"#utility.yul\":4188:4517   */\n      swap3\n      swap2\n      pop\n      pop\n      jump\t// out\n        /* \"#utility.yul\":4523:4600   */\n    tag_123:\n        /* \"#utility.yul\":4560:4567   */\n      0x00\n        /* \"#utility.yul\":4589:4594   */\n      dup2\n        /* \"#utility.yul\":4578:4594   */\n      swap1\n      pop\n        /* \"#utility.yul\":4523:4600   */\n      swap2\n      swap1\n      pop\n      jump\t// out\n        /* \"#utility.yul\":4606:4714   */\n    tag_124:\n        /* \"#utility.yul\":4683:4707   */\n      tag_201\n        /* \"#utility.yul\":4701:4706   */\n      dup2\n        /* \"#utility.yul\":4683:4707   */\n      tag_123\n      jump\t// in\n    tag_201:\n        /* \"#utility.yul\":4678:4681   */\n      dup3\n        /* \"#utility.yul\":4671:4708   */\n      mstore\n        /* \"#utility.yul\":4606:4714   */\n      pop\n      pop\n      jump\t// out\n        /* \"#utility.yul\":4830:5902   */\n    tag_125:\n        /* \"#utility.yul\":4969:4972   */\n      0x00\n        /* \"#utility.yul\":5005:5009   */\n      0x80\n        /* \"#utility.yul\":5000:5003   */\n      dup4\n        /* \"#utility.yul\":4996:5010   */\n      add\n        /* \"#utility.yul\":5097:5101   */\n      0x00\n        /* \"#utility.yul\":5090:5095   */\n      dup4\n        /* \"#utility.yul\":5086:5102   */\n      add\n        /* \"#utility.yul\":5080:5103   */\n      mload\n        /* \"#utility.yul\":5150:5153   */\n      dup5\n        /* \"#utility.yul\":5144:5148   */\n      dup3\n        /* \"#utility.yul\":5140:5154   */\n      sub\n        /* \"#utility.yul\":5133:5137   */\n      0x00\n        /* \"#utility.yul\":5128:5131   */\n      dup7\n        /* \"#utility.yul\":5124:5138   */\n      add\n        /* \"#utility.yul\":5117:5155   */\n      mstore\n        /* \"#utility.yul\":5176:5249   */\n      tag_203\n        /* \"#utility.yul\":5244:5248   */\n      dup3\n        /* \"#utility.yul\":5230:5242   */\n      dup3\n        /* \"#utility.yul\":5176:5249   */\n      tag_112\n      jump\t// in\n    tag_203:\n        /* \"#utility.yul\":5168:5249   */\n      swap2\n      pop\n        /* \"#utility.yul\":5020:5260   */\n      pop\n        /* \"#utility.yul\":5349:5353   */\n      0x20\n        /* \"#utility.yul\":5342:5347   */\n      dup4\n        /* \"#utility.yul\":5338:5354   */\n      add\n        /* \"#utility.yul\":5332:5355   */\n      mload\n        /* \"#utility.yul\":5402:5405   */\n      dup5\n        /* \"#utility.yul\":5396:5400   */\n      dup3\n        /* \"#utility.yul\":5392:5406   */\n      sub\n        /* \"#utility.yul\":5385:5389   */\n      0x20\n        /* \"#utility.yul\":5380:5383   */\n      dup7\n        /* \"#utility.yul\":5376:5390   */\n      add\n        /* \"#utility.yul\":5369:5407   */\n      mstore\n        /* \"#utility.yul\":5428:5501   */\n      tag_204\n        /* \"#utility.yul\":5496:5500   */\n      dup3\n        /* \"#utility.yul\":5482:5494   */\n      dup3\n        /* \"#utility.yul\":5428:5501   */\n      tag_112\n      jump\t// in\n    tag_204:\n        /* \"#utility.yul\":5420:5501   */\n      swap2\n      pop\n        /* \"#utility.yul\":5270:5512   */\n      pop\n        /* \"#utility.yul\":5600:5604   */\n      0x40\n        /* \"#utility.yul\":5593:5598   */\n      dup4\n        /* \"#utility.yul\":5589:5605   */\n      add\n        /* \"#utility.yul\":5583:5606   */\n      mload\n        /* \"#utility.yul\":5619:5682   */\n      tag_205\n        /* \"#utility.yul\":5676:5680   */\n      0x40\n        /* \"#utility.yul\":5671:5674   */\n      dup7\n        /* \"#utility.yul\":5667:5681   */\n      add\n        /* \"#utility.yul\":5653:5665   */\n      dup3\n        /* \"#utility.yul\":5619:5682   */\n      tag_124\n      jump\t// in\n    tag_205:\n        /* \"#utility.yul\":5522:5692   */\n      pop\n        /* \"#utility.yul\":5783:5787   */\n      0x60\n        /* \"#utility.yul\":5776:5781   */\n      dup4\n        /* \"#utility.yul\":5772:5788   */\n      add\n        /* \"#utility.yul\":5766:5789   */\n      mload\n        /* \"#utility.yul\":5802:5865   */\n      tag_206\n        /* \"#utility.yul\":5859:5863   */\n      0x60\n        /* \"#utility.yul\":5854:5857   */\n      dup7\n        /* \"#utility.yul\":5850:5864   */\n      add\n        /* \"#utility.yul\":5836:5848   */\n      dup3\n        /* \"#utility.yul\":5802:5865   */\n      tag_124\n      jump\t// in\n    tag_206:\n        /* \"#utility.yul\":5702:5875   */\n      pop\n        /* \"#utility.yul\":5892:5896   */\n      dup1\n        /* \"#utility.yul\":5885:5896   */\n      swap2\n      pop\n        /* \"#utility.yul\":4974:5902   */\n      pop\n        /* \"#utility.yul\":4830:5902   */\n      swap3\n      swap2\n      pop\n      pop\n      jump\t// out\n        /* \"#utility.yul\":5908:6321   */\n    tag_16:\n        /* \"#utility.yul\":6071:6075   */\n      0x00\n        /* \"#utility.yul\":6109:6111   */\n      0x20\n        /* \"#utility.yul\":6098:6107   */\n      dup3\n        /* \"#utility.yul\":6094:6112   */\n      add\n        /* \"#utility.yul\":6086:6112   */\n      swap1\n      pop\n        /* \"#utility.yul\":6158:6167   */\n      dup2\n        /* \"#utility.yul\":6152:6156   */\n      dup2\n        /* \"#utility.yul\":6148:6168   */\n      sub\n        /* \"#utility.yul\":6144:6145   */\n      0x00\n        /* \"#utility.yul\":6133:6142   */\n      dup4\n        /* \"#utility.yul\":6129:6146   */\n      add\n        /* \"#utility.yul\":6122:6169   */\n      mstore\n        /* \"#utility.yul\":6186:6314   */\n      tag_208\n        /* \"#utility.yul\":6309:6313   */\n      dup2\n        /* \"#utility.yul\":6300:6306   */\n      dup5\n        /* \"#utility.yul\":6186:6314   */\n      tag_125\n      jump\t// in\n    tag_208:\n        /* \"#utility.yul\":6178:6314   */\n      swap1\n      pop\n        /* \"#utility.yul\":5908:6321   */\n      swap3\n      swap2\n      pop\n      pop\n      jump\t// out\n        /* \"#utility.yul\":6327:6496   */\n    tag_126:\n        /* \"#utility.yul\":6411:6422   */\n      0x00\n        /* \"#utility.yul\":6445:6451   */\n      dup3\n        /* \"#utility.yul\":6440:6443   */\n      dup3\n        /* \"#utility.yul\":6433:6452   */\n      mstore\n        /* \"#utility.yul\":6485:6489   */\n      0x20\n        /* \"#utility.yul\":6480:6483   */\n      dup3\n        /* \"#utility.yul\":6476:6490   */\n      add\n        /* \"#utility.yul\":6461:6490   */\n      swap1\n      pop\n        /* \"#utility.yul\":6327:6496   */\n      swap3\n      swap2\n      pop\n      pop\n      jump\t// out\n        /* \"#utility.yul\":6502:6879   */\n    tag_127:\n        /* \"#utility.yul\":6590:6593   */\n      0x00\n        /* \"#utility.yul\":6618:6657   */\n      tag_211\n        /* \"#utility.yul\":6651:6656   */\n      dup3\n        /* \"#utility.yul\":6618:6657   */\n      tag_108\n      jump\t// in\n    tag_211:\n        /* \"#utility.yul\":6673:6744   */\n      tag_212\n        /* \"#utility.yul\":6737:6743   */\n      dup2\n        /* \"#utility.yul\":6732:6735   */\n      dup6\n        /* \"#utility.yul\":6673:6744   */\n      tag_126\n      jump\t// in\n    tag_212:\n        /* \"#utility.yul\":6666:6744   */\n      swap4\n      pop\n        /* \"#utility.yul\":6753:6818   */\n      tag_213\n        /* \"#utility.yul\":6811:6817   */\n      dup2\n        /* \"#utility.yul\":6806:6809   */\n      dup6\n        /* \"#utility.yul\":6799:6803   */\n      0x20\n        /* \"#utility.yul\":6792:6797   */\n      dup7\n        /* \"#utility.yul\":6788:6804   */\n      add\n        /* \"#utility.yul\":6753:6818   */\n      tag_110\n      jump\t// in\n    tag_213:\n        /* \"#utility.yul\":6843:6872   */\n      tag_214\n        /* \"#utility.yul\":6865:6871   */\n      dup2\n        /* \"#utility.yul\":6843:6872   */\n      tag_111\n      jump\t// in\n    tag_214:\n        /* \"#utility.yul\":6838:6841   */\n      dup5\n        /* \"#utility.yul\":6834:6873   */\n      add\n        /* \"#utility.yul\":6827:6873   */\n      swap2\n      pop\n        /* \"#utility.yul\":6594:6879   */\n      pop\n        /* \"#utility.yul\":6502:6879   */\n      swap3\n      swap2\n      pop\n      pop\n      jump\t// out\n        /* \"#utility.yul\":6885:7003   */\n    tag_128:\n        /* \"#utility.yul\":6972:6996   */\n      tag_216\n        /* \"#utility.yul\":6990:6995   */\n      dup2\n        /* \"#utility.yul\":6972:6996   */\n      tag_123\n      jump\t// in\n    tag_216:\n        /* \"#utility.yul\":6967:6970   */\n      dup3\n        /* \"#utility.yul\":6960:6997   */\n      mstore\n        /* \"#utility.yul\":6885:7003   */\n      pop\n      pop\n      jump\t// out\n        /* \"#utility.yul\":7009:7744   */\n    tag_21:\n        /* \"#utility.yul\":7226:7230   */\n      0x00\n        /* \"#utility.yul\":7264:7267   */\n      0x80\n        /* \"#utility.yul\":7253:7262   */\n      dup3\n        /* \"#utility.yul\":7249:7268   */\n      add\n        /* \"#utility.yul\":7241:7268   */\n      swap1\n      pop\n        /* \"#utility.yul\":7314:7323   */\n      dup2\n        /* \"#utility.yul\":7308:7312   */\n      dup2\n        /* \"#utility.yul\":7304:7324   */\n      sub\n        /* \"#utility.yul\":7300:7301   */\n      0x00\n        /* \"#utility.yul\":7289:7298   */\n      dup4\n        /* \"#utility.yul\":7285:7302   */\n      add\n        /* \"#utility.yul\":7278:7325   */\n      mstore\n        /* \"#utility.yul\":7342:7420   */\n      tag_218\n        /* \"#utility.yul\":7415:7419   */\n      dup2\n        /* \"#utility.yul\":7406:7412   */\n      dup8\n        /* \"#utility.yul\":7342:7420   */\n      tag_127\n      jump\t// in\n    tag_218:\n        /* \"#utility.yul\":7334:7420   */\n      swap1\n      pop\n        /* \"#utility.yul\":7467:7476   */\n      dup2\n        /* \"#utility.yul\":7461:7465   */\n      dup2\n        /* \"#utility.yul\":7457:7477   */\n      sub\n        /* \"#utility.yul\":7452:7454   */\n      0x20\n        /* \"#utility.yul\":7441:7450   */\n      dup4\n        /* \"#utility.yul\":7437:7455   */\n      add\n        /* \"#utility.yul\":7430:7478   */\n      mstore\n        /* \"#utility.yul\":7495:7573   */\n      tag_219\n        /* \"#utility.yul\":7568:7572   */\n      dup2\n        /* \"#utility.yul\":7559:7565   */\n      dup7\n        /* \"#utility.yul\":7495:7573   */\n      tag_127\n      jump\t// in\n    tag_219:\n        /* \"#utility.yul\":7487:7573   */\n      swap1\n      pop\n        /* \"#utility.yul\":7583:7655   */\n      tag_220\n        /* \"#utility.yul\":7651:7653   */\n      0x40\n        /* \"#utility.yul\":7640:7649   */\n      dup4\n        /* \"#utility.yul\":7636:7654   */\n      add\n        /* \"#utility.yul\":7627:7633   */\n      dup6\n        /* \"#utility.yul\":7583:7655   */\n      tag_128\n      jump\t// in\n    tag_220:\n        /* \"#utility.yul\":7665:7737   */\n      tag_221\n        /* \"#utility.yul\":7733:7735   */\n      0x60\n        /* \"#utility.yul\":7722:7731   */\n      dup4\n        /* \"#utility.yul\":7718:7736   */\n      add\n        /* \"#utility.yul\":7709:7715   */\n      dup5\n        /* \"#utility.yul\":7665:7737   */\n      tag_128\n      jump\t// in\n    tag_221:\n        /* \"#utility.yul\":7009:7744   */\n      swap6\n      swap5\n      pop\n      pop\n      pop\n      pop\n      pop\n      jump\t// out\n        /* \"#utility.yul\":7750:7930   */\n    tag_129:\n        /* \"#utility.yul\":7798:7875   */\n      0x4e487b7100000000000000000000000000000000000000000000000000000000\n        /* \"#utility.yul\":7795:7796   */\n      0x00\n        /* \"#utility.yul\":7788:7876   */\n      mstore\n        /* \"#utility.yul\":7895:7899   */\n      0x22\n        /* \"#utility.yul\":7892:7893   */\n      0x04\n        /* \"#utility.yul\":7885:7900   */\n      mstore\n        /* \"#utility.yul\":7919:7923   */\n      0x24\n        /* \"#utility.yul\":7916:7917   */\n      0x00\n        /* \"#utility.yul\":7909:7924   */\n      revert\n        /* \"#utility.yul\":7936:8256   */\n    tag_33:\n        /* \"#utility.yul\":7980:7986   */\n      0x00\n        /* \"#utility.yul\":8017:8018   */\n      0x02\n        /* \"#utility.yul\":8011:8015   */\n      dup3\n        /* \"#utility.yul\":8007:8019   */\n      div\n        /* \"#utility.yul\":7997:8019   */\n      swap1\n      pop\n        /* \"#utility.yul\":8064:8065   */\n      0x01\n        /* \"#utility.yul\":8058:8062   */\n      dup3\n        /* \"#utility.yul\":8054:8066   */\n      and\n        /* \"#utility.yul\":8085:8103   */\n      dup1\n        /* \"#utility.yul\":8075:8156   */\n      tag_224\n      jumpi\n        /* \"#utility.yul\":8141:8145   */\n      0x7f\n        /* \"#utility.yul\":8133:8139   */\n      dup3\n        /* \"#utility.yul\":8129:8146   */\n      and\n        /* \"#utility.yul\":8119:8146   */\n      swap2\n      pop\n        /* \"#utility.yul\":8075:8156   */\n    tag_224:\n        /* \"#utility.yul\":8203:8205   */\n      0x20\n        /* \"#utility.yul\":8195:8201   */\n      dup3\n        /* \"#utility.yul\":8192:8206   */\n      lt\n        /* \"#utility.yul\":8172:8190   */\n      dup2\n        /* \"#utility.yul\":8169:8207   */\n      sub\n        /* \"#utility.yul\":8166:8250   */\n      tag_225\n      jumpi\n        /* \"#utility.yul\":8222:8240   */\n      tag_226\n      tag_129\n      jump\t// in\n    tag_226:\n        /* \"#utility.yul\":8166:8250   */\n    tag_225:\n        /* \"#utility.yul\":7987:8256   */\n      pop\n        /* \"#utility.yul\":7936:8256   */\n      swap2\n      swap1\n      pop\n      jump\t// out\n        /* \"#utility.yul\":8262:8488   */\n    tag_130:\n        /* \"#utility.yul\":8402:8436   */\n      0x4e6f207265636f6d6d656e646174696f6e20666f756e6420666f722074686973\n        /* \"#utility.yul\":8398:8399   */\n      0x00\n        /* \"#utility.yul\":8390:8396   */\n      dup3\n        /* \"#utility.yul\":8386:8400   */\n      add\n        /* \"#utility.yul\":8379:8437   */\n      mstore\n        /* \"#utility.yul\":8471:8480   */\n      0x2077616c6c657400000000000000000000000000000000000000000000000000\n        /* \"#utility.yul\":8466:8468   */\n      0x20\n        /* \"#utility.yul\":8458:8464   */\n      dup3\n        /* \"#utility.yul\":8454:8469   */\n      add\n        /* \"#utility.yul\":8447:8481   */\n      mstore\n        /* \"#utility.yul\":8262:8488   */\n      pop\n      jump\t// out\n        /* \"#utility.yul\":8494:8860   */\n    tag_131:\n        /* \"#utility.yul\":8636:8639   */\n      0x00\n        /* \"#utility.yul\":8657:8724   */\n      tag_229\n        /* \"#utility.yul\":8721:8723   */\n      0x27\n        /* \"#utility.yul\":8716:8719   */\n      dup4\n        /* \"#utility.yul\":8657:8724   */\n      tag_126\n      jump\t// in\n    tag_229:\n        /* \"#utility.yul\":8650:8724   */\n      swap2\n      pop\n        /* \"#utility.yul\":8733:8826   */\n      tag_230\n        /* \"#utility.yul\":8822:8825   */\n      dup3\n        /* \"#utility.yul\":8733:8826   */\n      tag_130\n      jump\t// in\n    tag_230:\n        /* \"#utility.yul\":8851:8853   */\n      0x40\n        /* \"#utility.yul\":8846:8849   */\n      dup3\n        /* \"#utility.yul\":8842:8854   */\n      add\n        /* \"#utility.yul\":8835:8854   */\n      swap1\n      pop\n        /* \"#utility.yul\":8494:8860   */\n      swap2\n      swap1\n      pop\n      jump\t// out\n        /* \"#utility.yul\":8866:9285   */\n    tag_51:\n        /* \"#utility.yul\":9032:9036   */\n      0x00\n        /* \"#utility.yul\":9070:9072   */\n      0x20\n        /* \"#utility.yul\":9059:9068   */\n      dup3\n        /* \"#utility.yul\":9055:9073   */\n      add\n        /* \"#utility.yul\":9047:9073   */\n      swap1\n      pop\n        /* \"#utility.yul\":9119:9128   */\n      dup2\n        /* \"#utility.yul\":9113:9117   */\n      dup2\n        /* \"#utility.yul\":9109:9129   */\n      sub\n        /* \"#utility.yul\":9105:9106   */\n      0x00\n        /* \"#utility.yul\":9094:9103   */\n      dup4\n        /* \"#utility.yul\":9090:9107   */\n      add\n        /* \"#utility.yul\":9083:9130   */\n      mstore\n        /* \"#utility.yul\":9147:9278   */\n      tag_232\n        /* \"#utility.yul\":9273:9277   */\n      dup2\n        /* \"#utility.yul\":9147:9278   */\n      tag_131\n      jump\t// in\n    tag_232:\n        /* \"#utility.yul\":9139:9278   */\n      swap1\n      pop\n        /* \"#utility.yul\":8866:9285   */\n      swap2\n      swap1\n      pop\n      jump\t// out\n        /* \"#utility.yul\":9291:9385   */\n    tag_132:\n        /* \"#utility.yul\":9324:9332   */\n      0x00\n        /* \"#utility.yul\":9372:9377   */\n      dup2\n        /* \"#utility.yul\":9368:9370   */\n      0x60\n        /* \"#utility.yul\":9364:9378   */\n      shl\n        /* \"#utility.yul\":9343:9378   */\n      swap1\n      pop\n        /* \"#utility.yul\":9291:9385   */\n      swap2\n      swap1\n      pop\n      jump\t// out\n        /* \"#utility.yul\":9391:9485   */\n    tag_133:\n        /* \"#utility.yul\":9430:9437   */\n      0x00\n        /* \"#utility.yul\":9459:9479   */\n      tag_235\n        /* \"#utility.yul\":9473:9478   */\n      dup3\n        /* \"#utility.yul\":9459:9479   */\n      tag_132\n      jump\t// in\n    tag_235:\n        /* \"#utility.yul\":9448:9479   */\n      swap1\n      pop\n        /* \"#utility.yul\":9391:9485   */\n      swap2\n      swap1\n      pop\n      jump\t// out\n        /* \"#utility.yul\":9491:9591   */\n    tag_134:\n        /* \"#utility.yul\":9530:9537   */\n      0x00\n        /* \"#utility.yul\":9559:9585   */\n      tag_237\n        /* \"#utility.yul\":9579:9584   */\n      dup3\n        /* \"#utility.yul\":9559:9585   */\n      tag_133\n      jump\t// in\n    tag_237:\n        /* \"#utility.yul\":9548:9585   */\n      swap1\n      pop\n        /* \"#utility.yul\":9491:9591   */\n      swap2\n      swap1\n      pop\n      jump\t// out\n        /* \"#utility.yul\":9597:9754   */\n    tag_135:\n        /* \"#utility.yul\":9702:9747   */\n      tag_239\n        /* \"#utility.yul\":9722:9746   */\n      tag_240\n        /* \"#utility.yul\":9740:9745   */\n      dup3\n        /* \"#utility.yul\":9722:9746   */\n      tag_120\n      jump\t// in\n    tag_240:\n        /* \"#utility.yul\":9702:9747   */\n      tag_134\n      jump\t// in\n    tag_239:\n        /* \"#utility.yul\":9697:9700   */\n      dup3\n        /* \"#utility.yul\":9690:9748   */\n      mstore\n        /* \"#utility.yul\":9597:9754   */\n      pop\n      pop\n      jump\t// out\n        /* \"#utility.yul\":9760:10016   */\n    tag_75:\n        /* \"#utility.yul\":9872:9875   */\n      0x00\n        /* \"#utility.yul\":9887:9962   */\n      tag_242\n        /* \"#utility.yul\":9958:9961   */\n      dup3\n        /* \"#utility.yul\":9949:9955   */\n      dup5\n        /* \"#utility.yul\":9887:9962   */\n      tag_135\n      jump\t// in\n    tag_242:\n        /* \"#utility.yul\":9987:9989   */\n      0x14\n        /* \"#utility.yul\":9982:9985   */\n      dup3\n        /* \"#utility.yul\":9978:9990   */\n      add\n        /* \"#utility.yul\":9971:9990   */\n      swap2\n      pop\n        /* \"#utility.yul\":10007:10010   */\n      dup2\n        /* \"#utility.yul\":10000:10010   */\n      swap1\n      pop\n        /* \"#utility.yul\":9760:10016   */\n      swap3\n      swap2\n      pop\n      pop\n      jump\t// out\n        /* \"#utility.yul\":10022:10202   */\n    tag_136:\n        /* \"#utility.yul\":10070:10147   */\n      0x4e487b7100000000000000000000000000000000000000000000000000000000\n        /* \"#utility.yul\":10067:10068   */\n      0x00\n        /* \"#utility.yul\":10060:10148   */\n      mstore\n        /* \"#utility.yul\":10167:10171   */\n      0x12\n        /* \"#utility.yul\":10164:10165   */\n      0x04\n        /* \"#utility.yul\":10157:10172   */\n      mstore\n        /* \"#utility.yul\":10191:10195   */\n      0x24\n        /* \"#utility.yul\":10188:10189   */\n      0x00\n        /* \"#utility.yul\":10181:10196   */\n      revert\n        /* \"#utility.yul\":10208:10384   */\n    tag_77:\n        /* \"#utility.yul\":10240:10241   */\n      0x00\n        /* \"#utility.yul\":10257:10277   */\n      tag_245\n        /* \"#utility.yul\":10275:10276   */\n      dup3\n        /* \"#utility.yul\":10257:10277   */\n      tag_123\n      jump\t// in\n    tag_245:\n        /* \"#utility.yul\":10252:10277   */\n      swap2\n      pop\n        /* \"#utility.yul\":10291:10311   */\n      tag_246\n        /* \"#utility.yul\":10309:10310   */\n      dup4\n        /* \"#utility.yul\":10291:10311   */\n      tag_123\n      jump\t// in\n    tag_246:\n        /* \"#utility.yul\":10286:10311   */\n      swap3\n      pop\n        /* \"#utility.yul\":10330:10331   */\n      dup3\n        /* \"#utility.yul\":10320:10355   */\n      tag_247\n      jumpi\n        /* \"#utility.yul\":10335:10353   */\n      tag_248\n      tag_136\n      jump\t// in\n    tag_248:\n        /* \"#utility.yul\":10320:10355   */\n    tag_247:\n        /* \"#utility.yul\":10376:10377   */\n      dup3\n        /* \"#utility.yul\":10373:10374   */\n      dup3\n        /* \"#utility.yul\":10369:10378   */\n      mod\n        /* \"#utility.yul\":10364:10378   */\n      swap1\n      pop\n        /* \"#utility.yul\":10208:10384   */\n      swap3\n      swap2\n      pop\n      pop\n      jump\t// out\n        /* \"#utility.yul\":10390:10469   */\n    tag_137:\n        /* \"#utility.yul\":10429:10436   */\n      0x00\n        /* \"#utility.yul\":10458:10463   */\n      dup2\n        /* \"#utility.yul\":10447:10463   */\n      swap1\n      pop\n        /* \"#utility.yul\":10390:10469   */\n      swap2\n      swap1\n      pop\n      jump\t// out\n        /* \"#utility.yul\":10475:10632   */\n    tag_138:\n        /* \"#utility.yul\":10580:10625   */\n      tag_251\n        /* \"#utility.yul\":10600:10624   */\n      tag_252\n        /* \"#utility.yul\":10618:10623   */\n      dup3\n        /* \"#utility.yul\":10600:10624   */\n      tag_123\n      jump\t// in\n    tag_252:\n        /* \"#utility.yul\":10580:10625   */\n      tag_137\n      jump\t// in\n    tag_251:\n        /* \"#utility.yul\":10575:10578   */\n      dup3\n        /* \"#utility.yul\":10568:10626   */\n      mstore\n        /* \"#utility.yul\":10475:10632   */\n      pop\n      pop\n      jump\t// out\n        /* \"#utility.yul\":10638:11176   */\n    tag_79:\n        /* \"#utility.yul\":10806:10809   */\n      0x00\n        /* \"#utility.yul\":10821:10896   */\n      tag_254\n        /* \"#utility.yul\":10892:10895   */\n      dup3\n        /* \"#utility.yul\":10883:10889   */\n      dup7\n        /* \"#utility.yul\":10821:10896   */\n      tag_135\n      jump\t// in\n    tag_254:\n        /* \"#utility.yul\":10921:10923   */\n      0x14\n        /* \"#utility.yul\":10916:10919   */\n      dup3\n        /* \"#utility.yul\":10912:10924   */\n      add\n        /* \"#utility.yul\":10905:10924   */\n      swap2\n      pop\n        /* \"#utility.yul\":10934:11009   */\n      tag_255\n        /* \"#utility.yul\":11005:11008   */\n      dup3\n        /* \"#utility.yul\":10996:11002   */\n      dup6\n        /* \"#utility.yul\":10934:11009   */\n      tag_138\n      jump\t// in\n    tag_255:\n        /* \"#utility.yul\":11034:11036   */\n      0x20\n        /* \"#utility.yul\":11029:11032   */\n      dup3\n        /* \"#utility.yul\":11025:11037   */\n      add\n        /* \"#utility.yul\":11018:11037   */\n      swap2\n      pop\n        /* \"#utility.yul\":11047:11122   */\n      tag_256\n        /* \"#utility.yul\":11118:11121   */\n      dup3\n        /* \"#utility.yul\":11109:11115   */\n      dup5\n        /* \"#utility.yul\":11047:11122   */\n      tag_138\n      jump\t// in\n    tag_256:\n        /* \"#utility.yul\":11147:11149   */\n      0x20\n        /* \"#utility.yul\":11142:11145   */\n      dup3\n        /* \"#utility.yul\":11138:11150   */\n      add\n        /* \"#utility.yul\":11131:11150   */\n      swap2\n      pop\n        /* \"#utility.yul\":11167:11170   */\n      dup2\n        /* \"#utility.yul\":11160:11170   */\n      swap1\n      pop\n        /* \"#utility.yul\":10638:11176   */\n      swap5\n      swap4\n      pop\n      pop\n      pop\n      pop\n      jump\t// out\n        /* \"#utility.yul\":11182:11362   */\n    tag_139:\n        /* \"#utility.yul\":11230:11307   */\n      0x4e487b7100000000000000000000000000000000000000000000000000000000\n        /* \"#utility.yul\":11227:11228   */\n      0x00\n        /* \"#utility.yul\":11220:11308   */\n      mstore\n        /* \"#utility.yul\":11327:11331   */\n      0x11\n        /* \"#utility.yul\":11324:11325   */\n      0x04\n        /* \"#utility.yul\":11317:11332   */\n      mstore\n        /* \"#utility.yul\":11351:11355   */\n      0x24\n        /* \"#utility.yul\":11348:11349   */\n      0x00\n        /* \"#utility.yul\":11341:11356   */\n      revert\n        /* \"#utility.yul\":11368:11559   */\n    tag_82:\n        /* \"#utility.yul\":11408:11411   */\n      0x00\n        /* \"#utility.yul\":11427:11447   */\n      tag_259\n        /* \"#utility.yul\":11445:11446   */\n      dup3\n        /* \"#utility.yul\":11427:11447   */\n      tag_123\n      jump\t// in\n    tag_259:\n        /* \"#utility.yul\":11422:11447   */\n      swap2\n      pop\n        /* \"#utility.yul\":11461:11481   */\n      tag_260\n        /* \"#utility.yul\":11479:11480   */\n      dup4\n        /* \"#utility.yul\":11461:11481   */\n      tag_123\n      jump\t// in\n    tag_260:\n        /* \"#utility.yul\":11456:11481   */\n      swap3\n      pop\n        /* \"#utility.yul\":11504:11505   */\n      dup3\n        /* \"#utility.yul\":11501:11502   */\n      dup3\n        /* \"#utility.yul\":11497:11506   */\n      add\n        /* \"#utility.yul\":11490:11506   */\n      swap1\n      pop\n        /* \"#utility.yul\":11525:11528   */\n      dup1\n        /* \"#utility.yul\":11522:11523   */\n      dup3\n        /* \"#utility.yul\":11519:11529   */\n      gt\n        /* \"#utility.yul\":11516:11552   */\n      iszero\n      tag_261\n      jumpi\n        /* \"#utility.yul\":11532:11550   */\n      tag_262\n      tag_139\n      jump\t// in\n    tag_262:\n        /* \"#utility.yul\":11516:11552   */\n    tag_261:\n        /* \"#utility.yul\":11368:11559   */\n      swap3\n      swap2\n      pop\n      pop\n      jump\t// out\n        /* \"#utility.yul\":11565:11745   */\n    tag_85:\n        /* \"#utility.yul\":11613:11690   */\n      0x4e487b7100000000000000000000000000000000000000000000000000000000\n        /* \"#utility.yul\":11610:11611   */\n      0x00\n        /* \"#utility.yul\":11603:11691   */\n      mstore\n        /* \"#utility.yul\":11710:11714   */\n      0x32\n        /* \"#utility.yul\":11707:11708   */\n      0x04\n        /* \"#utility.yul\":11700:11715   */\n      mstore\n        /* \"#utility.yul\":11734:11738   */\n      0x24\n        /* \"#utility.yul\":11731:11732   */\n      0x00\n        /* \"#utility.yul\":11724:11739   */\n      revert\n        /* \"#utility.yul\":11751:11931   */\n    tag_140:\n        /* \"#utility.yul\":11799:11876   */\n      0x4e487b7100000000000000000000000000000000000000000000000000000000\n        /* \"#utility.yul\":11796:11797   */\n      0x00\n        /* \"#utility.yul\":11789:11877   */\n      mstore\n        /* \"#utility.yul\":11896:11900   */\n      0x41\n        /* \"#utility.yul\":11893:11894   */\n      0x04\n        /* \"#utility.yul\":11886:11901   */\n      mstore\n        /* \"#utility.yul\":11920:11924   */\n      0x24\n        /* \"#utility.yul\":11917:11918   */\n      0x00\n        /* \"#utility.yul\":11910:11925   */\n      revert\n        /* \"#utility.yul\":11937:12078   */\n    tag_141:\n        /* \"#utility.yul\":11986:11990   */\n      0x00\n        /* \"#utility.yul\":12009:12012   */\n      dup2\n        /* \"#utility.yul\":12001:12012   */\n      swap1\n      pop\n        /* \"#utility.yul\":12032:12035   */\n      dup2\n        /* \"#utility.yul\":12029:12030   */\n      0x00\n        /* \"#utility.yul\":12022:12036   */\n      mstore\n        /* \"#utility.yul\":12066:12070   */\n      0x20\n        /* \"#utility.yul\":12063:12064   */\n      0x00\n        /* \"#utility.yul\":12053:12071   */\n      keccak256\n        /* \"#utility.yul\":12045:12071   */\n      swap1\n      pop\n        /* \"#utility.yul\":11937:12078   */\n      swap2\n      swap1\n      pop\n      jump\t// out\n        /* \"#utility.yul\":12084:12177   */\n    tag_142:\n        /* \"#utility.yul\":12121:12127   */\n      0x00\n        /* \"#utility.yul\":12168:12170   */\n      0x20\n        /* \"#utility.yul\":12163:12165   */\n      0x1f\n        /* \"#utility.yul\":12156:12161   */\n      dup4\n        /* \"#utility.yul\":12152:12166   */\n      add\n        /* \"#utility.yul\":12148:12171   */\n      div\n        /* \"#utility.yul\":12138:12171   */\n      swap1\n      pop\n        /* \"#utility.yul\":12084:12177   */\n      swap2\n      swap1\n      pop\n      jump\t// out\n        /* \"#utility.yul\":12183:12290   */\n    tag_143:\n        /* \"#utility.yul\":12227:12235   */\n      0x00\n        /* \"#utility.yul\":12277:12282   */\n      dup3\n        /* \"#utility.yul\":12271:12275   */\n      dup3\n        /* \"#utility.yul\":12267:12283   */\n      shl\n        /* \"#utility.yul\":12246:12283   */\n      swap1\n      pop\n        /* \"#utility.yul\":12183:12290   */\n      swap3\n      swap2\n      pop\n      pop\n      jump\t// out\n        /* \"#utility.yul\":12296:12689   */\n    tag_144:\n        /* \"#utility.yul\":12365:12371   */\n      0x00\n        /* \"#utility.yul\":12415:12416   */\n      0x08\n        /* \"#utility.yul\":12403:12413   */\n      dup4\n        /* \"#utility.yul\":12399:12417   */\n      mul\n        /* \"#utility.yul\":12438:12535   */\n      tag_269\n        /* \"#utility.yul\":12468:12534   */\n      0xffffffffffffffffffffffffffffffffffffffffffffffffffffffffffffffff\n        /* \"#utility.yul\":12457:12466   */\n      dup3\n        /* \"#utility.yul\":12438:12535   */\n      tag_143\n      jump\t// in\n    tag_269:\n        /* \"#utility.yul\":12556:12595   */\n      tag_270\n        /* \"#utility.yul\":12586:12594   */\n      dup7\n        /* \"#utility.yul\":12575:12584   */\n      dup4\n        /* \"#utility.yul\":12556:12595   */\n      tag_143\n      jump\t// in\n    tag_270:\n        /* \"#utility.yul\":12544:12595   */\n      swap6\n      pop\n        /* \"#utility.yul\":12628:12632   */\n      dup1\n        /* \"#utility.yul\":12624:12633   */\n      not\n        /* \"#utility.yul\":12617:12622   */\n      dup5\n        /* \"#utility.yul\":12613:12634   */\n      and\n        /* \"#utility.yul\":12604:12634   */\n      swap4\n      pop\n        /* \"#utility.yul\":12677:12681   */\n      dup1\n        /* \"#utility.yul\":12667:12675   */\n      dup7\n        /* \"#utility.yul\":12663:12682   */\n      and\n        /* \"#utility.yul\":12656:12661   */\n      dup5\n        /* \"#utility.yul\":12653:12683   */\n      or\n        /* \"#utility.yul\":12643:12683   */\n      swap3\n      pop\n        /* \"#utility.yul\":12372:12689   */\n      pop\n      pop\n        /* \"#utility.yul\":12296:12689   */\n      swap4\n      swap3\n      pop\n      pop\n      pop\n      jump\t// out\n        /* \"#utility.yul\":12695:12755   */\n    tag_145:\n        /* \"#utility.yul\":12723:12726   */\n      0x00\n        /* \"#utility.yul\":12744:12749   */\n      dup2\n        /* \"#utility.yul\":12737:12749   */\n      swap1\n      pop\n        /* \"#utility.yul\":12695:12755   */\n      swap2\n      swap1\n      pop\n      jump\t// out\n        /* \"#utility.yul\":12761:12903   */\n    tag_146:\n        /* \"#utility.yul\":12811:12820   */\n      0x00\n        /* \"#utility.yul\":12844:12897   */\n      tag_273\n        /* \"#utility.yul\":12862:12896   */\n      tag_274\n        /* \"#utility.yul\":12871:12895   */\n      tag_275\n        /* \"#utility.yul\":12889:12894   */\n      dup5\n        /* \"#utility.yul\":12871:12895   */\n      tag_123\n      jump\t// in\n    tag_275:\n        /* \"#utility.yul\":12862:12896   */\n      tag_145\n      jump\t// in\n    tag_274:\n        /* \"#utility.yul\":12844:12897   */\n      tag_123\n      jump\t// in\n    tag_273:\n        /* \"#utility.yul\":12831:12897   */\n      swap1\n      pop\n        /* \"#utility.yul\":12761:12903   */\n      swap2\n      swap1\n      pop\n      jump\t// out\n        /* \"#utility.yul\":12909:12984   */\n    tag_147:\n        /* \"#utility.yul\":12952:12955   */\n      0x00\n        /* \"#utility.yul\":12973:12978   */\n      dup2\n        /* \"#utility.yul\":12966:12978   */\n      swap1\n      pop\n        /* \"#utility.yul\":12909:12984   */\n      swap2\n      swap1\n      pop\n      jump\t// out\n        /* \"#utility.yul\":12990:13259   */\n    tag_148:\n        /* \"#utility.yul\":13100:13139   */\n      tag_278\n        /* \"#utility.yul\":13131:13138   */\n      dup4\n        /* \"#utility.yul\":13100:13139   */\n      tag_146\n      jump\t// in\n    tag_278:\n        /* \"#utility.yul\":13161:13252   */\n      tag_279\n        /* \"#utility.yul\":13210:13251   */\n      tag_280\n        /* \"#utility.yul\":13234:13250   */\n      dup3\n        /* \"#utility.yul\":13210:13251   */\n      tag_147\n      jump\t// in\n    tag_280:\n        /* \"#utility.yul\":13202:13208   */\n      dup5\n        /* \"#utility.yul\":13195:13199   */\n      dup5\n        /* \"#utility.yul\":13189:13200   */\n      sload\n        /* \"#utility.yul\":13161:13252   */\n      tag_144\n      jump\t// in\n    tag_279:\n        /* \"#utility.yul\":13155:13159   */\n      dup3\n        /* \"#utility.yul\":13148:13253   */\n      sstore\n        /* \"#utility.yul\":13066:13259   */\n      pop\n        /* \"#utility.yul\":12990:13259   */\n      pop\n      pop\n      pop\n      jump\t// out\n        /* \"#utility.yul\":13265:13338   */\n    tag_149:\n        /* \"#utility.yul\":13310:13313   */\n      0x00\n        /* \"#utility.yul\":13331:13332   */\n      0x00\n        /* \"#utility.yul\":13324:13332   */\n      swap1\n      pop\n        /* \"#utility.yul\":13265:13338   */\n      swap1\n      jump\t// out\n        /* \"#utility.yul\":13344:13533   */\n    tag_150:\n        /* \"#utility.yul\":13421:13453   */\n      tag_283\n      tag_149\n      jump\t// in\n    tag_283:\n        /* \"#utility.yul\":13462:13527   */\n      tag_284\n        /* \"#utility.yul\":13520:13526   */\n      dup2\n        /* \"#utility.yul\":13512:13518   */\n      dup5\n        /* \"#utility.yul\":13506:13510   */\n      dup5\n        /* \"#utility.yul\":13462:13527   */\n      tag_148\n      jump\t// in\n    tag_284:\n        /* \"#utility.yul\":13397:13533   */\n      pop\n        /* \"#utility.yul\":13344:13533   */\n      pop\n      pop\n      jump\t// out\n        /* \"#utility.yul\":13539:13725   */\n    tag_151:\n        /* \"#utility.yul\":13599:13719   */\n    tag_286:\n        /* \"#utility.yul\":13616:13619   */\n      dup2\n        /* \"#utility.yul\":13609:13614   */\n      dup2\n        /* \"#utility.yul\":13606:13620   */\n      lt\n        /* \"#utility.yul\":13599:13719   */\n      iszero\n      tag_288\n      jumpi\n        /* \"#utility.yul\":13670:13709   */\n      tag_289\n        /* \"#utility.yul\":13707:13708   */\n      0x00\n        /* \"#utility.yul\":13700:13705   */\n      dup3\n        /* \"#utility.yul\":13670:13709   */\n      tag_150\n      jump\t// in\n    tag_289:\n        /* \"#utility.yul\":13643:13644   */\n      0x01\n        /* \"#utility.yul\":13636:13641   */\n      dup2\n        /* \"#utility.yul\":13632:13645   */\n      add\n        /* \"#utility.yul\":13623:13645   */\n      swap1\n      pop\n        /* \"#utility.yul\":13599:13719   */\n      jump(tag_286)\n    tag_288:\n        /* \"#utility.yul\":13539:13725   */\n      pop\n      pop\n      jump\t// out\n        /* \"#utility.yul\":13731:14274   */\n    tag_152:\n        /* \"#utility.yul\":13832:13834   */\n      0x1f\n        /* \"#utility.yul\":13827:13830   */\n      dup3\n        /* \"#utility.yul\":13824:13835   */\n      gt\n        /* \"#utility.yul\":13821:14267   */\n      iszero\n      tag_291\n      jumpi\n        /* \"#utility.yul\":13866:13904   */\n      tag_292\n        /* \"#utility.yul\":13898:13903   */\n      dup2\n        /* \"#utility.yul\":13866:13904   */\n      tag_141\n      jump\t// in\n    tag_292:\n        /* \"#utility.yul\":13950:13979   */\n      tag_293\n        /* \"#utility.yul\":13968:13978   */\n      dup5\n        /* \"#utility.yul\":13950:13979   */\n      tag_142\n      jump\t// in\n    tag_293:\n        /* \"#utility.yul\":13940:13948   */\n      dup2\n        /* \"#utility.yul\":13936:13980   */\n      add\n        /* \"#utility.yul\":14133:14135   */\n      0x20\n        /* \"#utility.yul\":14121:14131   */\n      dup6\n        /* \"#utility.yul\":14118:14136   */\n      lt\n        /* \"#utility.yul\":14115:14164   */\n      iszero\n      tag_294\n      jumpi\n        /* \"#utility.yul\":14154:14162   */\n      dup2\n        /* \"#utility.yul\":14139:14162   */\n      swap1\n      pop\n        /* \"#utility.yul\":14115:14164   */\n    tag_294:\n        /* \"#utility.yul\":14177:14257   */\n      tag_295\n        /* \"#utility.yul\":14233:14255   */\n      tag_296\n        /* \"#utility.yul\":14251:14254   */\n      dup6\n        /* \"#utility.yul\":14233:14255   */\n      tag_142\n      jump\t// in\n    tag_296:\n        /* \"#utility.yul\":14223:14231   */\n      dup4\n        /* \"#utility.yul\":14219:14256   */\n      add\n        /* \"#utility.yul\":14206:14217   */\n      dup3\n        /* \"#utility.yul\":14177:14257   */\n      tag_151\n      jump\t// in\n    tag_295:\n        /* \"#utility.yul\":13836:14267   */\n      pop\n      pop\n        /* \"#utility.yul\":13821:14267   */\n    tag_291:\n        /* \"#utility.yul\":13731:14274   */\n      pop\n      pop\n      pop\n      jump\t// out\n        /* \"#utility.yul\":14280:14397   */\n    tag_153:\n        /* \"#utility.yul\":14334:14342   */\n      0x00\n        /* \"#utility.yul\":14384:14389   */\n      dup3\n        /* \"#utility.yul\":14378:14382   */\n      dup3\n        /* \"#utility.yul\":14374:14390   */\n      shr\n        /* \"#utility.yul\":14353:14390   */\n      swap1\n      pop\n        /* \"#utility.yul\":14280:14397   */\n      swap3\n      swap2\n      pop\n      pop\n      jump\t// out\n        /* \"#utility.yul\":14403:14572   */\n    tag_154:\n        /* \"#utility.yul\":14447:14453   */\n      0x00\n        /* \"#utility.yul\":14480:14531   */\n      tag_299\n        /* \"#utility.yul\":14528:14529   */\n      0x00\n        /* \"#utility.yul\":14524:14530   */\n      not\n        /* \"#utility.yul\":14516:14521   */\n      dup5\n        /* \"#utility.yul\":14513:14514   */\n      0x08\n        /* \"#utility.yul\":14509:14522   */\n      mul\n        /* \"#utility.yul\":14480:14531   */\n      tag_153\n      jump\t// in\n    tag_299:\n        /* \"#utility.yul\":14476:14532   */\n      not\n        /* \"#utility.yul\":14561:14565   */\n      dup1\n        /* \"#utility.yul\":14555:14559   */\n      dup4\n        /* \"#utility.yul\":14551:14566   */\n      and\n        /* \"#utility.yul\":14541:14566   */\n      swap2\n      pop\n        /* \"#utility.yul\":14454:14572   */\n      pop\n        /* \"#utility.yul\":14403:14572   */\n      swap3\n      swap2\n      pop\n      pop\n      jump\t// out\n        /* \"#utility.yul\":14577:14872   */\n    tag_155:\n        /* \"#utility.yul\":14653:14657   */\n      0x00\n        /* \"#utility.yul\":14799:14828   */\n      tag_301\n        /* \"#utility.yul\":14824:14827   */\n      dup4\n        /* \"#utility.yul\":14818:14822   */\n      dup4\n        /* \"#utility.yul\":14799:14828   */\n      tag_154\n      jump\t// in\n    tag_301:\n        /* \"#utility.yul\":14791:14828   */\n      swap2\n      pop\n        /* \"#utility.yul\":14861:14864   */\n      dup3\n        /* \"#utility.yul\":14858:14859   */\n      0x02\n        /* \"#utility.yul\":14854:14865   */\n      mul\n        /* \"#utility.yul\":14848:14852   */\n      dup3\n        /* \"#utility.yul\":14845:14866   */\n      or\n        /* \"#utility.yul\":14837:14866   */\n      swap1\n      pop\n        /* \"#utility.yul\":14577:14872   */\n      swap3\n      swap2\n      pop\n      pop\n      jump\t// out\n        /* \"#utility.yul\":14877:16272   */\n    tag_101:\n        /* \"#utility.yul\":14994:15031   */\n      tag_303\n        /* \"#utility.yul\":15027:15030   */\n      dup3\n        /* \"#utility.yul\":14994:15031   */\n      tag_108\n      jump\t// in\n    tag_303:\n        /* \"#utility.yul\":15096:15114   */\n      0xffffffffffffffff\n        /* \"#utility.yul\":15088:15094   */\n      dup2\n        /* \"#utility.yul\":15085:15115   */\n      gt\n        /* \"#utility.yul\":15082:15138   */\n      iszero\n      tag_304\n      jumpi\n        /* \"#utility.yul\":15118:15136   */\n      tag_305\n      tag_140\n      jump\t// in\n    tag_305:\n        /* \"#utility.yul\":15082:15138   */\n    tag_304:\n        /* \"#utility.yul\":15162:15200   */\n      tag_306\n        /* \"#utility.yul\":15194:15198   */\n      dup3\n        /* \"#utility.yul\":15188:15199   */\n      sload\n        /* \"#utility.yul\":15162:15200   */\n      tag_33\n      jump\t// in\n    tag_306:\n        /* \"#utility.yul\":15247:15314   */\n      tag_307\n        /* \"#utility.yul\":15307:15313   */\n      dup3\n        /* \"#utility.yul\":15299:15305   */\n      dup3\n        /* \"#utility.yul\":15293:15297   */\n      dup6\n        /* \"#utility.yul\":15247:15314   */\n      tag_152\n      jump\t// in\n    tag_307:\n        /* \"#utility.yul\":15341:15342   */\n      0x00\n        /* \"#utility.yul\":15365:15369   */\n      0x20\n        /* \"#utility.yul\":15352:15369   */\n      swap1\n      pop\n        /* \"#utility.yul\":15397:15399   */\n      0x1f\n        /* \"#utility.yul\":15389:15395   */\n      dup4\n        /* \"#utility.yul\":15386:15400   */\n      gt\n        /* \"#utility.yul\":15414:15415   */\n      0x01\n        /* \"#utility.yul\":15409:16027   */\n      dup2\n      eq\n      tag_309\n      jumpi\n        /* \"#utility.yul\":16071:16072   */\n      0x00\n        /* \"#utility.yul\":16088:16094   */\n      dup5\n        /* \"#utility.yul\":16085:16162   */\n      iszero\n      tag_310\n      jumpi\n        /* \"#utility.yul\":16137:16146   */\n      dup3\n        /* \"#utility.yul\":16132:16135   */\n      dup8\n        /* \"#utility.yul\":16128:16147   */\n      add\n        /* \"#utility.yul\":16122:16148   */\n      mload\n        /* \"#utility.yul\":16113:16148   */\n      swap1\n      pop\n        /* \"#utility.yul\":16085:16162   */\n    tag_310:\n        /* \"#utility.yul\":16188:16255   */\n      tag_311\n        /* \"#utility.yul\":16248:16254   */\n      dup6\n        /* \"#utility.yul\":16241:16246   */\n      dup3\n        /* \"#utility.yul\":16188:16255   */\n      tag_155\n      jump\t// in\n    tag_311:\n        /* \"#utility.yul\":16182:16186   */\n      dup7\n        /* \"#utility.yul\":16175:16256   */\n      sstore\n        /* \"#utility.yul\":16044:16266   */\n      pop\n        /* \"#utility.yul\":15379:16266   */\n      jump(tag_308)\n        /* \"#utility.yul\":15409:16027   */\n    tag_309:\n        /* \"#utility.yul\":15461:15465   */\n      0x1f\n        /* \"#utility.yul\":15457:15466   */\n      not\n        /* \"#utility.yul\":15449:15455   */\n      dup5\n        /* \"#utility.yul\":15445:15467   */\n      and\n        /* \"#utility.yul\":15495:15532   */\n      tag_312\n        /* \"#utility.yul\":15527:15531   */\n      dup7\n        /* \"#utility.yul\":15495:15532   */\n      tag_141\n      jump\t// in\n    tag_312:\n        /* \"#utility.yul\":15554:15555   */\n      0x00\n        /* \"#utility.yul\":15568:15776   */\n    tag_313:\n        /* \"#utility.yul\":15582:15589   */\n      dup3\n        /* \"#utility.yul\":15579:15580   */\n      dup2\n        /* \"#utility.yul\":15576:15590   */\n      lt\n        /* \"#utility.yul\":15568:15776   */\n      iszero\n      tag_315\n      jumpi\n        /* \"#utility.yul\":15661:15670   */\n      dup5\n        /* \"#utility.yul\":15656:15659   */\n      dup10\n        /* \"#utility.yul\":15652:15671   */\n      add\n        /* \"#utility.yul\":15646:15672   */\n      mload\n        /* \"#utility.yul\":15638:15644   */\n      dup3\n        /* \"#utility.yul\":15631:15673   */\n      sstore\n        /* \"#utility.yul\":15712:15713   */\n      0x01\n        /* \"#utility.yul\":15704:15710   */\n      dup3\n        /* \"#utility.yul\":15700:15714   */\n      add\n        /* \"#utility.yul\":15690:15714   */\n      swap2\n      pop\n        /* \"#utility.yul\":15759:15761   */\n      0x20\n        /* \"#utility.yul\":15748:15757   */\n      dup6\n        /* \"#utility.yul\":15744:15762   */\n      add\n        /* \"#utility.yul\":15731:15762   */\n      swap5\n      pop\n        /* \"#utility.yul\":15605:15609   */\n      0x20\n        /* \"#utility.yul\":15602:15603   */\n      dup2\n        /* \"#utility.yul\":15598:15610   */\n      add\n        /* \"#utility.yul\":15593:15610   */\n      swap1\n      pop\n        /* \"#utility.yul\":15568:15776   */\n      jump(tag_313)\n    tag_315:\n        /* \"#utility.yul\":15804:15810   */\n      dup7\n        /* \"#utility.yul\":15795:15802   */\n      dup4\n        /* \"#utility.yul\":15792:15811   */\n      lt\n        /* \"#utility.yul\":15789:15968   */\n      iszero\n      tag_316\n      jumpi\n        /* \"#utility.yul\":15862:15871   */\n      dup5\n        /* \"#utility.yul\":15857:15860   */\n      dup10\n        /* \"#utility.yul\":15853:15872   */\n      add\n        /* \"#utility.yul\":15847:15873   */\n      mload\n        /* \"#utility.yul\":15905:15953   */\n      tag_317\n        /* \"#utility.yul\":15947:15951   */\n      0x1f\n        /* \"#utility.yul\":15939:15945   */\n      dup10\n        /* \"#utility.yul\":15935:15952   */\n      and\n        /* \"#utility.yul\":15924:15933   */\n      dup3\n        /* \"#utility.yul\":15905:15953   */\n      tag_154\n      jump\t// in\n    tag_317:\n        /* \"#utility.yul\":15897:15903   */\n      dup4\n        /* \"#utility.yul\":15890:15954   */\n      sstore\n        /* \"#utility.yul\":15812:15968   */\n      pop\n        /* \"#utility.yul\":15789:15968   */\n    tag_316:\n        /* \"#utility.yul\":16014:16015   */\n      0x01\n        /* \"#utility.yul\":16010:16011   */\n      0x02\n        /* \"#utility.yul\":16002:16008   */\n      dup9\n        /* \"#utility.yul\":15998:16012   */\n      mul\n        /* \"#utility.yul\":15994:16016   */\n      add\n        /* \"#utility.yul\":15988:15992   */\n      dup9\n        /* \"#utility.yul\":15981:16017   */\n      sstore\n        /* \"#utility.yul\":15416:16027   */\n      pop\n      pop\n      pop\n        /* \"#utility.yul\":15379:16266   */\n    tag_308:\n      pop\n        /* \"#utility.yul\":14969:16272   */\n      pop\n      pop\n      pop\n        /* \"#utility.yul\":14877:16272   */\n      pop\n      pop\n      jump\t// out\n\n    auxdata: 0xa2646970667358221220604bfbaa65cec2a1fa564fae1471183d496c1d562459bda1f62d3ba9a659accd64736f6c634300081e0033\n}\n",
				"bytecode": {
					"linkReferences": {},
					"object": "60806040526040518061018001604052806040518060400160405280600881526020017f46697265436f696e00000000000000000000000000000000000000000000000081525081526020016040518060400160405280600a81526020017f4561727468546f6b656e0000000000000000000000000000000000000000000081525081526020016040518060400160405280600881526020017f4169724275636b7300000000000000000000000000000000000000000000000081525081526020016040518060400160405280600881526020017f43726162436f696e00000000000000000000000000000000000000000000000081525081526020016040518060400160405280600981526020017f4c696f6e546f6b656e000000000000000000000000000000000000000000000081525081526020016040518060400160405280600b81526020017f48617276657374436f696e00000000000000000000000000000000000000000081525081526020016040518060400160405280600c81526020017f42616c616e63654275636b73000000000000000000000000000000000000000081525081526020016040518060400160405280600c81526020017f53636f7270696f546f6b656e000000000000000000000000000000000000000081525081526020016040518060400160405280600a81526020017f417263686572436f696e0000000000000000000000000000000000000000000081525081526020016040518060400160405280600d81526020017f4d6f756e7461696e546f6b656e0000000000000000000000000000000000000081525081526020016040518060400160405280600981526020017f41717561546f6b656e000000000000000000000000000000000000000000000081525081526020016040518060400160405280600881526020017f46697368436f696e000000000000000000000000000000000000000000000000815250815250600190600c6102e2929190610477565b50604051806101800160405280604051806060016040528060238152602001611ae6602391398152602001604051806060016040528060268152602001611a9d602691398152602001604051806060016040528060258152602001611b56602591398152602001604051806060016040528060278152602001611a31602791398152602001604051806060016040528060218152602001611a58602191398152602001604051806060016040528060258152602001611a0c6025913981526020016040518060600160405280602b81526020016119be602b91398152602001604051806060016040528060278152602001611b09602791398152602001604051806060016040528060238152602001611ac3602391398152602001604051806060016040528060268152602001611b30602691398152602001604051806060016040528060248152602001611a796024913981526020016040518060600160405280602381526020016119e960239139815250600d90600c610465929190610477565b50348015610471575f5ffd5b5061084a565b82600c81019282156104b2579160200282015b828111156104b15782518290816104a1919061077b565b509160200191906001019061048a565b5b5090506104bf91906104c3565b5090565b5b808211156104e2575f81816104d991906104e6565b506001016104c4565b5090565b5080546104f2906105a2565b5f825580601f106105035750610520565b601f0160209004905f5260205f209081019061051f9190610523565b5b50565b5b8082111561053a575f815f905550600101610524565b5090565b5f81519050919050565b7f4e487b71000000000000000000000000000000000000000000000000000000005f52604160045260245ffd5b7f4e487b71000000000000000000000000000000000000000000000000000000005f52602260045260245ffd5b5f60028204905060018216806105b957607f821691505b6020821081036105cc576105cb610575565b5b50919050565b5f819050815f5260205f209050919050565b5f6020601f8301049050919050565b5f82821b905092915050565b5f6008830261062e7fffffffffffffffffffffffffffffffffffffffffffffffffffffffffffffffff826105f3565b61063886836105f3565b95508019841693508086168417925050509392505050565b5f819050919050565b5f819050919050565b5f61067c61067761067284610650565b610659565b610650565b9050919050565b5f819050919050565b61069583610662565b6106a96106a182610683565b8484546105ff565b825550505050565b5f5f905090565b6106c06106b1565b6106cb81848461068c565b505050565b5b818110156106ee576106e35f826106b8565b6001810190506106d1565b5050565b601f82111561073357610704816105d2565b61070d846105e4565b8101602085101561071c578190505b610730610728856105e4565b8301826106d0565b50505b505050565b5f82821c905092915050565b5f6107535f1984600802610738565b1980831691505092915050565b5f61076b8383610744565b9150826002028217905092915050565b6107848261053e565b67ffffffffffffffff81111561079d5761079c610548565b5b6107a782546105a2565b6107b28282856106f2565b5f60209050601f8311600181146107e3575f84156107d1578287015190505b6107db8582610760565b865550610842565b601f1984166107f1866105d2565b5f5b82811015610818578489015182556001820191506020850194506020810190506107f3565b868310156108355784890151610831601f891682610744565b8355505b6001600288020188555050505b505050505050565b611167806108575f395ff3fe608060405234801561000f575f5ffd5b506004361061004a575f3560e01c80632a5c792a1461004e5780634b64b0811461006d578063bbf5066c1461009d578063f2bd2e96146100d0575b5f5ffd5b6100566100ee565b604051610064929190610a00565b60405180910390f35b61008760048036038101906100829190610a93565b610286565b6040516100949190610b3d565b60405180910390f35b6100b760048036038101906100b29190610a93565b610490565b6040516100c79493929190610bb4565b60405180910390f35b6100d86105c7565b6040516100e59190610b3d565b60405180910390f35b6100f6610893565b6100fe610893565b6001600d81600c80602002604051908101604052809291905f905b828210156101ba57838201805461012f90610c32565b80601f016020809104026020016040519081016040528092919081815260200182805461015b90610c32565b80156101a65780601f1061017d576101008083540402835291602001916101a6565b820191905f5260205f20905b81548152906001019060200180831161018957829003601f168201915b505050505081526020019060010190610119565b50505050915080600c80602002604051908101604052809291905f905b828210156102785783820180546101ed90610c32565b80601f016020809104026020016040519081016040528092919081815260200182805461021990610c32565b80156102645780601f1061023b57610100808354040283529160200191610264565b820191905f5260205f20905b81548152906001019060200180831161024757829003601f168201915b5050505050815260200190600101906101d7565b505050509050915091509091565b61028e6108bb565b5f5f5f8473ffffffffffffffffffffffffffffffffffffffff1673ffffffffffffffffffffffffffffffffffffffff1681526020019081526020015f20600301540361030f576040517f08c379a000000000000000000000000000000000000000000000000000000000815260040161030690610cd2565b60405180910390fd5b5f5f8373ffffffffffffffffffffffffffffffffffffffff1673ffffffffffffffffffffffffffffffffffffffff1681526020019081526020015f206040518060800160405290815f8201805461036590610c32565b80601f016020809104026020016040519081016040528092919081815260200182805461039190610c32565b80156103dc5780601f106103b3576101008083540402835291602001916103dc565b820191905f5260205f20905b8154815290600101906020018083116103bf57829003601f168201915b505050505081526020016001820180546103f590610c32565b80601f016020809104026020016040519081016040528092919081815260200182805461042190610c32565b801561046c5780601f106104435761010080835404028352916020019161046c565b820191905f5260205f20905b81548152906001019060200180831161044f57829003601f168201915b50505050508152602001600282015481526020016003820154815250509050919050565b5f602052805f5260405f205f91509050805f0180546104ae90610c32565b80601f01602080910402602001604051908101604052809291908181526020018280546104da90610c32565b80156105255780601f106104fc57610100808354040283529160200191610525565b820191905f5260205f20905b81548152906001019060200180831161050857829003601f168201915b50505050509080600101805461053a90610c32565b80601f016020809104026020016040519081016040528092919081815260200182805461056690610c32565b80156105b15780601f10610588576101008083540402835291602001916105b1565b820191905f5260205f20905b81548152906001019060200180831161059457829003601f168201915b5050505050908060020154908060030154905084565b6105cf6108bb565b5f600c336040516020016105e39190610d35565b604051602081830303815290604052805190602001205f1c6106059190610d7c565b90505f6001606433424360405160200161062193929190610dcc565b604051602081830303815290604052805190602001205f1c6106439190610d7c565b61064d9190610e35565b90505f6040518060800160405280600185600c811061066f5761066e610e68565b5b01805461067b90610c32565b80601f01602080910402602001604051908101604052809291908181526020018280546106a790610c32565b80156106f25780601f106106c9576101008083540402835291602001916106f2565b820191905f5260205f20905b8154815290600101906020018083116106d557829003601f168201915b50505050508152602001600d85600c81106107105761070f610e68565b5b01805461071c90610c32565b80601f016020809104026020016040519081016040528092919081815260200182805461074890610c32565b80156107935780601f1061076a57610100808354040283529160200191610793565b820191905f5260205f20905b81548152906001019060200180831161077657829003601f168201915b50505050508152602001838152602001428152509050805f5f3373ffffffffffffffffffffffffffffffffffffffff1673ffffffffffffffffffffffffffffffffffffffff1681526020019081526020015f205f820151815f0190816107f99190611062565b50602082015181600101908161080f9190611062565b5060408201518160020155606082015181600301559050503373ffffffffffffffffffffffffffffffffffffffff167fae7290a17adbeac3efa0d7b613b25b0bdc655d0f8d8d76f7470dcd25e441b224825f01518360200151846040015185606001516040516108829493929190610bb4565b60405180910390a280935050505090565b604051806101800160405280600c905b60608152602001906001900390816108a35790505090565b604051806080016040528060608152602001606081526020015f81526020015f81525090565b5f600c9050919050565b5f81905092915050565b5f819050919050565b5f81519050919050565b5f82825260208201905092915050565b8281835e5f83830152505050565b5f601f19601f8301169050919050565b5f610940826108fe565b61094a8185610908565b935061095a818560208601610918565b61096381610926565b840191505092915050565b5f6109798383610936565b905092915050565b5f602082019050919050565b5f610997826108e1565b6109a181856108eb565b9350836020820285016109b3856108f5565b805f5b858110156109ee57848403895281516109cf858261096e565b94506109da83610981565b925060208a019950506001810190506109b6565b50829750879550505050505092915050565b5f6040820190508181035f830152610a18818561098d565b90508181036020830152610a2c818461098d565b90509392505050565b5f5ffd5b5f73ffffffffffffffffffffffffffffffffffffffff82169050919050565b5f610a6282610a39565b9050919050565b610a7281610a58565b8114610a7c575f5ffd5b50565b5f81359050610a8d81610a69565b92915050565b5f60208284031215610aa857610aa7610a35565b5b5f610ab584828501610a7f565b91505092915050565b5f819050919050565b610ad081610abe565b82525050565b5f608083015f8301518482035f860152610af08282610936565b91505060208301518482036020860152610b0a8282610936565b9150506040830151610b1f6040860182610ac7565b506060830151610b326060860182610ac7565b508091505092915050565b5f6020820190508181035f830152610b558184610ad6565b905092915050565b5f82825260208201905092915050565b5f610b77826108fe565b610b818185610b5d565b9350610b91818560208601610918565b610b9a81610926565b840191505092915050565b610bae81610abe565b82525050565b5f6080820190508181035f830152610bcc8187610b6d565b90508181036020830152610be08186610b6d565b9050610bef6040830185610ba5565b610bfc6060830184610ba5565b95945050505050565b7f4e487b71000000000000000000000000000000000000000000000000000000005f52602260045260245ffd5b5f6002820490506001821680610c4957607f821691505b602082108103610c5c57610c5b610c05565b5b50919050565b7f4e6f207265636f6d6d656e646174696f6e20666f756e6420666f7220746869735f8201527f2077616c6c657400000000000000000000000000000000000000000000000000602082015250565b5f610cbc602783610b5d565b9150610cc782610c62565b604082019050919050565b5f6020820190508181035f830152610ce981610cb0565b9050919050565b5f8160601b9050919050565b5f610d0682610cf0565b9050919050565b5f610d1782610cfc565b9050919050565b610d2f610d2a82610a58565b610d0d565b82525050565b5f610d408284610d1e565b60148201915081905092915050565b7f4e487b71000000000000000000000000000000000000000000000000000000005f52601260045260245ffd5b5f610d8682610abe565b9150610d9183610abe565b925082610da157610da0610d4f565b5b828206905092915050565b5f819050919050565b610dc6610dc182610abe565b610dac565b82525050565b5f610dd78286610d1e565b601482019150610de78285610db5565b602082019150610df78284610db5565b602082019150819050949350505050565b7f4e487b71000000000000000000000000000000000000000000000000000000005f52601160045260245ffd5b5f610e3f82610abe565b9150610e4a83610abe565b9250828201905080821115610e6257610e61610e08565b5b92915050565b7f4e487b71000000000000000000000000000000000000000000000000000000005f52603260045260245ffd5b7f4e487b71000000000000000000000000000000000000000000000000000000005f52604160045260245ffd5b5f819050815f5260205f209050919050565b5f6020601f8301049050919050565b5f82821b905092915050565b5f60088302610f1e7fffffffffffffffffffffffffffffffffffffffffffffffffffffffffffffffff82610ee3565b610f288683610ee3565b95508019841693508086168417925050509392505050565b5f819050919050565b5f610f63610f5e610f5984610abe565b610f40565b610abe565b9050919050565b5f819050919050565b610f7c83610f49565b610f90610f8882610f6a565b848454610eef565b825550505050565b5f5f905090565b610fa7610f98565b610fb2818484610f73565b505050565b5b81811015610fd557610fca5f82610f9f565b600181019050610fb8565b5050565b601f82111561101a57610feb81610ec2565b610ff484610ed4565b81016020851015611003578190505b61101761100f85610ed4565b830182610fb7565b50505b505050565b5f82821c905092915050565b5f61103a5f198460080261101f565b1980831691505092915050565b5f611052838361102b565b9150826002028217905092915050565b61106b826108fe565b67ffffffffffffffff81111561108457611083610e95565b5b61108e8254610c32565b611099828285610fd9565b5f60209050601f8311600181146110ca575f84156110b8578287015190505b6110c28582611047565b865550611129565b601f1984166110d886610ec2565b5f5b828110156110ff578489015182556001820191506020850194506020810190506110da565b8683101561111c5784890151611118601f89168261102b565b8355505b6001600288020188555050505b50505050505056fea2646970667358221220604bfbaa65cec2a1fa564fae1471183d496c1d562459bda1f62d3ba9a659accd64736f6c634300081e003341206861726d6f6e696f757320746f6b656e20666f722062616c616e63656420706f7274666f6c696f732e4120666c75696420746f6b656e20666f7220647265616d7920696e766573746f72732e41207072656369736520746f6b656e20666f7220616e616c79746963616c206d696e64732e41206e7572747572696e6720746f6b656e207769746820656d6f74696f6e616c2076616c75652e4120726567616c20746f6b656e20666f722074686f73652077686f206c6561642e416e20696e6e6f76617469766520746f6b656e20666f7220766973696f6e61726965732e4120737461626c6520746f6b656e20666f722067726f756e64656420696e766573746f72732e416e20616476656e7475726f757320746f6b656e20666f72206578706c6f726572732e4120666965727920746f6b656e20666f7220626f6c64207269736b2d74616b6572732141206d7973746572696f757320746f6b656e2077697468206465657020706f74656e7469616c2e412073747572647920746f6b656e20666f7220616d626974696f757320636c696d626572732e4120766572736174696c6520746f6b656e20666f7220717569636b207468696e6b6572732e",
					"opcodes": "PUSH1 0x80 PUSH1 0x40 MSTORE PUSH1 0x40 MLOAD DUP1 PUSH2 0x180 ADD PUSH1 0x40 MSTORE DUP1 PUSH1 0x40 MLOAD DUP1 PUSH1 0x40 ADD PUSH1 0x40 MSTORE DUP1 PUSH1 0x8 DUP2 MSTORE PUSH1 0x20 ADD PUSH32 0x46697265436F696E000000000000000000000000000000000000000000000000 DUP2 MSTORE POP DUP2 MSTORE PUSH1 0x20 ADD PUSH1 0x40 MLOAD DUP1 PUSH1 0x40 ADD PUSH1 0x40 MSTORE DUP1 PUSH1 0xA DUP2 MSTORE PUSH1 0x20 ADD PUSH32 0x4561727468546F6B656E00000000000000000000000000000000000000000000 DUP2 MSTORE POP DUP2 MSTORE PUSH1 0x20 ADD PUSH1 0x40 MLOAD DUP1 PUSH1 0x40 ADD PUSH1 0x40 MSTORE DUP1 PUSH1 0x8 DUP2 MSTORE PUSH1 0x20 ADD PUSH32 0x4169724275636B73000000000000000000000000000000000000000000000000 DUP2 MSTORE POP DUP2 MSTORE PUSH1 0x20 ADD PUSH1 0x40 MLOAD DUP1 PUSH1 0x40 ADD PUSH1 0x40 MSTORE DUP1 PUSH1 0x8 DUP2 MSTORE PUSH1 0x20 ADD PUSH32 0x43726162436F696E000000000000000000000000000000000000000000000000 DUP2 MSTORE POP DUP2 MSTORE PUSH1 0x20 ADD PUSH1 0x40 MLOAD DUP1 PUSH1 0x40 ADD PUSH1 0x40 MSTORE DUP1 PUSH1 0x9 DUP2 MSTORE PUSH1 0x20 ADD PUSH32 0x4C696F6E546F6B656E0000000000000000000000000000000000000000000000 DUP2 MSTORE POP DUP2 MSTORE PUSH1 0x20 ADD PUSH1 0x40 MLOAD DUP1 PUSH1 0x40 ADD PUSH1 0x40 MSTORE DUP1 PUSH1 0xB DUP2 MSTORE PUSH1 0x20 ADD PUSH32 0x48617276657374436F696E000000000000000000000000000000000000000000 DUP2 MSTORE POP DUP2 MSTORE PUSH1 0x20 ADD PUSH1 0x40 MLOAD DUP1 PUSH1 0x40 ADD PUSH1 0x40 MSTORE DUP1 PUSH1 0xC DUP2 MSTORE PUSH1 0x20 ADD PUSH32 0x42616C616E63654275636B730000000000000000000000000000000000000000 DUP2 MSTORE POP DUP2 MSTORE PUSH1 0x20 ADD PUSH1 0x40 MLOAD DUP1 PUSH1 0x40 ADD PUSH1 0x40 MSTORE DUP1 PUSH1 0xC DUP2 MSTORE PUSH1 0x20 ADD PUSH32 0x53636F7270696F546F6B656E0000000000000000000000000000000000000000 DUP2 MSTORE POP DUP2 MSTORE PUSH1 0x20 ADD PUSH1 0x40 MLOAD DUP1 PUSH1 0x40 ADD PUSH1 0x40 MSTORE DUP1 PUSH1 0xA DUP2 MSTORE PUSH1 0x20 ADD PUSH32 0x417263686572436F696E00000000000000000000000000000000000000000000 DUP2 MSTORE POP DUP2 MSTORE PUSH1 0x20 ADD PUSH1 0x40 MLOAD DUP1 PUSH1 0x40 ADD PUSH1 0x40 MSTORE DUP1 PUSH1 0xD DUP2 MSTORE PUSH1 0x20 ADD PUSH32 0x4D6F756E7461696E546F6B656E00000000000000000000000000000000000000 DUP2 MSTORE POP DUP2 MSTORE PUSH1 0x20 ADD PUSH1 0x40 MLOAD DUP1 PUSH1 0x40 ADD PUSH1 0x40 MSTORE DUP1 PUSH1 0x9 DUP2 MSTORE PUSH1 0x20 ADD PUSH32 0x41717561546F6B656E0000000000000000000000000000000000000000000000 DUP2 MSTORE POP DUP2 MSTORE PUSH1 0x20 ADD PUSH1 0x40 MLOAD DUP1 PUSH1 0x40 ADD PUSH1 0x40 MSTORE DUP1 PUSH1 0x8 DUP2 MSTORE PUSH1 0x20 ADD PUSH32 0x46697368436F696E000000000000000000000000000000000000000000000000 DUP2 MSTORE POP DUP2 MSTORE POP PUSH1 0x1 SWAP1 PUSH1 0xC PUSH2 0x2E2 SWAP3 SWAP2 SWAP1 PUSH2 0x477 JUMP JUMPDEST POP PUSH1 0x40 MLOAD DUP1 PUSH2 0x180 ADD PUSH1 0x40 MSTORE DUP1 PUSH1 0x40 MLOAD DUP1 PUSH1 0x60 ADD PUSH1 0x40 MSTORE DUP1 PUSH1 0x23 DUP2 MSTORE PUSH1 0x20 ADD PUSH2 0x1AE6 PUSH1 0x23 SWAP2 CODECOPY DUP2 MSTORE PUSH1 0x20 ADD PUSH1 0x40 MLOAD DUP1 PUSH1 0x60 ADD PUSH1 0x40 MSTORE DUP1 PUSH1 0x26 DUP2 MSTORE PUSH1 0x20 ADD PUSH2 0x1A9D PUSH1 0x26 SWAP2 CODECOPY DUP2 MSTORE PUSH1 0x20 ADD PUSH1 0x40 MLOAD DUP1 PUSH1 0x60 ADD PUSH1 0x40 MSTORE DUP1 PUSH1 0x25 DUP2 MSTORE PUSH1 0x20 ADD PUSH2 0x1B56 PUSH1 0x25 SWAP2 CODECOPY DUP2 MSTORE PUSH1 0x20 ADD PUSH1 0x40 MLOAD DUP1 PUSH1 0x60 ADD PUSH1 0x40 MSTORE DUP1 PUSH1 0x27 DUP2 MSTORE PUSH1 0x20 ADD PUSH2 0x1A31 PUSH1 0x27 SWAP2 CODECOPY DUP2 MSTORE PUSH1 0x20 ADD PUSH1 0x40 MLOAD DUP1 PUSH1 0x60 ADD PUSH1 0x40 MSTORE DUP1 PUSH1 0x21 DUP2 MSTORE PUSH1 0x20 ADD PUSH2 0x1A58 PUSH1 0x21 SWAP2 CODECOPY DUP2 MSTORE PUSH1 0x20 ADD PUSH1 0x40 MLOAD DUP1 PUSH1 0x60 ADD PUSH1 0x40 MSTORE DUP1 PUSH1 0x25 DUP2 MSTORE PUSH1 0x20 ADD PUSH2 0x1A0C PUSH1 0x25 SWAP2 CODECOPY DUP2 MSTORE PUSH1 0x20 ADD PUSH1 0x40 MLOAD DUP1 PUSH1 0x60 ADD PUSH1 0x40 MSTORE DUP1 PUSH1 0x2B DUP2 MSTORE PUSH1 0x20 ADD PUSH2 0x19BE PUSH1 0x2B SWAP2 CODECOPY DUP2 MSTORE PUSH1 0x20 ADD PUSH1 0x40 MLOAD DUP1 PUSH1 0x60 ADD PUSH1 0x40 MSTORE DUP1 PUSH1 0x27 DUP2 MSTORE PUSH1 0x20 ADD PUSH2 0x1B09 PUSH1 0x27 SWAP2 CODECOPY DUP2 MSTORE PUSH1 0x20 ADD PUSH1 0x40 MLOAD DUP1 PUSH1 0x60 ADD PUSH1 0x40 MSTORE DUP1 PUSH1 0x23 DUP2 MSTORE PUSH1 0x20 ADD PUSH2 0x1AC3 PUSH1 0x23 SWAP2 CODECOPY DUP2 MSTORE PUSH1 0x20 ADD PUSH1 0x40 MLOAD DUP1 PUSH1 0x60 ADD PUSH1 0x40 MSTORE DUP1 PUSH1 0x26 DUP2 MSTORE PUSH1 0x20 ADD PUSH2 0x1B30 PUSH1 0x26 SWAP2 CODECOPY DUP2 MSTORE PUSH1 0x20 ADD PUSH1 0x40 MLOAD DUP1 PUSH1 0x60 ADD PUSH1 0x40 MSTORE DUP1 PUSH1 0x24 DUP2 MSTORE PUSH1 0x20 ADD PUSH2 0x1A79 PUSH1 0x24 SWAP2 CODECOPY DUP2 MSTORE PUSH1 0x20 ADD PUSH1 0x40 MLOAD DUP1 PUSH1 0x60 ADD PUSH1 0x40 MSTORE DUP1 PUSH1 0x23 DUP2 MSTORE PUSH1 0x20 ADD PUSH2 0x19E9 PUSH1 0x23 SWAP2 CODECOPY DUP2 MSTORE POP PUSH1 0xD SWAP1 PUSH1 0xC PUSH2 0x465 SWAP3 SWAP2 SWAP1 PUSH2 0x477 JUMP JUMPDEST POP CALLVALUE DUP1 ISZERO PUSH2 0x471 JUMPI PUSH0 PUSH0 REVERT JUMPDEST POP PUSH2 0x84A JUMP JUMPDEST DUP3 PUSH1 0xC DUP2 ADD SWAP3 DUP3 ISZERO PUSH2 0x4B2 JUMPI SWAP2 PUSH1 0x20 MUL DUP3 ADD JUMPDEST DUP3 DUP2 GT ISZERO PUSH2 0x4B1 JUMPI DUP3 MLOAD DUP3 SWAP1 DUP2 PUSH2 0x4A1 SWAP2 SWAP1 PUSH2 0x77B JUMP JUMPDEST POP SWAP2 PUSH1 0x20 ADD SWAP2 SWAP1 PUSH1 0x1 ADD SWAP1 PUSH2 0x48A JUMP JUMPDEST JUMPDEST POP SWAP1 POP PUSH2 0x4BF SWAP2 SWAP1 PUSH2 0x4C3 JUMP JUMPDEST POP SWAP1 JUMP JUMPDEST JUMPDEST DUP1 DUP3 GT ISZERO PUSH2 0x4E2 JUMPI PUSH0 DUP2 DUP2 PUSH2 0x4D9 SWAP2 SWAP1 PUSH2 0x4E6 JUMP JUMPDEST POP PUSH1 0x1 ADD PUSH2 0x4C4 JUMP JUMPDEST POP SWAP1 JUMP JUMPDEST POP DUP1 SLOAD PUSH2 0x4F2 SWAP1 PUSH2 0x5A2 JUMP JUMPDEST PUSH0 DUP3 SSTORE DUP1 PUSH1 0x1F LT PUSH2 0x503 JUMPI POP PUSH2 0x520 JUMP JUMPDEST PUSH1 0x1F ADD PUSH1 0x20 SWAP1 DIV SWAP1 PUSH0 MSTORE PUSH1 0x20 PUSH0 KECCAK256 SWAP1 DUP2 ADD SWAP1 PUSH2 0x51F SWAP2 SWAP1 PUSH2 0x523 JUMP JUMPDEST JUMPDEST POP JUMP JUMPDEST JUMPDEST DUP1 DUP3 GT ISZERO PUSH2 0x53A JUMPI PUSH0 DUP2 PUSH0 SWAP1 SSTORE POP PUSH1 0x1 ADD PUSH2 0x524 JUMP JUMPDEST POP SWAP1 JUMP JUMPDEST PUSH0 DUP2 MLOAD SWAP1 POP SWAP2 SWAP1 POP JUMP JUMPDEST PUSH32 0x4E487B7100000000000000000000000000000000000000000000000000000000 PUSH0 MSTORE PUSH1 0x41 PUSH1 0x4 MSTORE PUSH1 0x24 PUSH0 REVERT JUMPDEST PUSH32 0x4E487B7100000000000000000000000000000000000000000000000000000000 PUSH0 MSTORE PUSH1 0x22 PUSH1 0x4 MSTORE PUSH1 0x24 PUSH0 REVERT JUMPDEST PUSH0 PUSH1 0x2 DUP3 DIV SWAP1 POP PUSH1 0x1 DUP3 AND DUP1 PUSH2 0x5B9 JUMPI PUSH1 0x7F DUP3 AND SWAP2 POP JUMPDEST PUSH1 0x20 DUP3 LT DUP2 SUB PUSH2 0x5CC JUMPI PUSH2 0x5CB PUSH2 0x575 JUMP JUMPDEST JUMPDEST POP SWAP2 SWAP1 POP JUMP JUMPDEST PUSH0 DUP2 SWAP1 POP DUP2 PUSH0 MSTORE PUSH1 0x20 PUSH0 KECCAK256 SWAP1 POP SWAP2 SWAP1 POP JUMP JUMPDEST PUSH0 PUSH1 0x20 PUSH1 0x1F DUP4 ADD DIV SWAP1 POP SWAP2 SWAP1 POP JUMP JUMPDEST PUSH0 DUP3 DUP3 SHL SWAP1 POP SWAP3 SWAP2 POP POP JUMP JUMPDEST PUSH0 PUSH1 0x8 DUP4 MUL PUSH2 0x62E PUSH32 0xFFFFFFFFFFFFFFFFFFFFFFFFFFFFFFFFFFFFFFFFFFFFFFFFFFFFFFFFFFFFFFFF DUP3 PUSH2 0x5F3 JUMP JUMPDEST PUSH2 0x638 DUP7 DUP4 PUSH2 0x5F3 JUMP JUMPDEST SWAP6 POP DUP1 NOT DUP5 AND SWAP4 POP DUP1 DUP7 AND DUP5 OR SWAP3 POP POP POP SWAP4 SWAP3 POP POP POP JUMP JUMPDEST PUSH0 DUP2 SWAP1 POP SWAP2 SWAP1 POP JUMP JUMPDEST PUSH0 DUP2 SWAP1 POP SWAP2 SWAP1 POP JUMP JUMPDEST PUSH0 PUSH2 0x67C PUSH2 0x677 PUSH2 0x672 DUP5 PUSH2 0x650 JUMP JUMPDEST PUSH2 0x659 JUMP JUMPDEST PUSH2 0x650 JUMP JUMPDEST SWAP1 POP SWAP2 SWAP1 POP JUMP JUMPDEST PUSH0 DUP2 SWAP1 POP SWAP2 SWAP1 POP JUMP JUMPDEST PUSH2 0x695 DUP4 PUSH2 0x662 JUMP JUMPDEST PUSH2 0x6A9 PUSH2 0x6A1 DUP3 PUSH2 0x683 JUMP JUMPDEST DUP5 DUP5 SLOAD PUSH2 0x5FF JUMP JUMPDEST DUP3 SSTORE POP POP POP POP JUMP JUMPDEST PUSH0 PUSH0 SWAP1 POP SWAP1 JUMP JUMPDEST PUSH2 0x6C0 PUSH2 0x6B1 JUMP JUMPDEST PUSH2 0x6CB DUP2 DUP5 DUP5 PUSH2 0x68C JUMP JUMPDEST POP POP POP JUMP JUMPDEST JUMPDEST DUP2 DUP2 LT ISZERO PUSH2 0x6EE JUMPI PUSH2 0x6E3 PUSH0 DUP3 PUSH2 0x6B8 JUMP JUMPDEST PUSH1 0x1 DUP2 ADD SWAP1 POP PUSH2 0x6D1 JUMP JUMPDEST POP POP JUMP JUMPDEST PUSH1 0x1F DUP3 GT ISZERO PUSH2 0x733 JUMPI PUSH2 0x704 DUP2 PUSH2 0x5D2 JUMP JUMPDEST PUSH2 0x70D DUP5 PUSH2 0x5E4 JUMP JUMPDEST DUP2 ADD PUSH1 0x20 DUP6 LT ISZERO PUSH2 0x71C JUMPI DUP2 SWAP1 POP JUMPDEST PUSH2 0x730 PUSH2 0x728 DUP6 PUSH2 0x5E4 JUMP JUMPDEST DUP4 ADD DUP3 PUSH2 0x6D0 JUMP JUMPDEST POP POP JUMPDEST POP POP POP JUMP JUMPDEST PUSH0 DUP3 DUP3 SHR SWAP1 POP SWAP3 SWAP2 POP POP JUMP JUMPDEST PUSH0 PUSH2 0x753 PUSH0 NOT DUP5 PUSH1 0x8 MUL PUSH2 0x738 JUMP JUMPDEST NOT DUP1 DUP4 AND SWAP2 POP POP SWAP3 SWAP2 POP POP JUMP JUMPDEST PUSH0 PUSH2 0x76B DUP4 DUP4 PUSH2 0x744 JUMP JUMPDEST SWAP2 POP DUP3 PUSH1 0x2 MUL DUP3 OR SWAP1 POP SWAP3 SWAP2 POP POP JUMP JUMPDEST PUSH2 0x784 DUP3 PUSH2 0x53E JUMP JUMPDEST PUSH8 0xFFFFFFFFFFFFFFFF DUP2 GT ISZERO PUSH2 0x79D JUMPI PUSH2 0x79C PUSH2 0x548 JUMP JUMPDEST JUMPDEST PUSH2 0x7A7 DUP3 SLOAD PUSH2 0x5A2 JUMP JUMPDEST PUSH2 0x7B2 DUP3 DUP3 DUP6 PUSH2 0x6F2 JUMP JUMPDEST PUSH0 PUSH1 0x20 SWAP1 POP PUSH1 0x1F DUP4 GT PUSH1 0x1 DUP2 EQ PUSH2 0x7E3 JUMPI PUSH0 DUP5 ISZERO PUSH2 0x7D1 JUMPI DUP3 DUP8 ADD MLOAD SWAP1 POP JUMPDEST PUSH2 0x7DB DUP6 DUP3 PUSH2 0x760 JUMP JUMPDEST DUP7 SSTORE POP PUSH2 0x842 JUMP JUMPDEST PUSH1 0x1F NOT DUP5 AND PUSH2 0x7F1 DUP7 PUSH2 0x5D2 JUMP JUMPDEST PUSH0 JUMPDEST DUP3 DUP2 LT ISZERO PUSH2 0x818 JUMPI DUP5 DUP10 ADD MLOAD DUP3 SSTORE PUSH1 0x1 DUP3 ADD SWAP2 POP PUSH1 0x20 DUP6 ADD SWAP5 POP PUSH1 0x20 DUP2 ADD SWAP1 POP PUSH2 0x7F3 JUMP JUMPDEST DUP7 DUP4 LT ISZERO PUSH2 0x835 JUMPI DUP5 DUP10 ADD MLOAD PUSH2 0x831 PUSH1 0x1F DUP10 AND DUP3 PUSH2 0x744 JUMP JUMPDEST DUP4 SSTORE POP JUMPDEST PUSH1 0x1 PUSH1 0x2 DUP9 MUL ADD DUP9 SSTORE POP POP POP JUMPDEST POP POP POP POP POP POP JUMP JUMPDEST PUSH2 0x1167 DUP1 PUSH2 0x857 PUSH0 CODECOPY PUSH0 RETURN INVALID PUSH1 0x80 PUSH1 0x40 MSTORE CALLVALUE DUP1 ISZERO PUSH2 0xF JUMPI PUSH0 PUSH0 REVERT JUMPDEST POP PUSH1 0x4 CALLDATASIZE LT PUSH2 0x4A JUMPI PUSH0 CALLDATALOAD PUSH1 0xE0 SHR DUP1 PUSH4 0x2A5C792A EQ PUSH2 0x4E JUMPI DUP1 PUSH4 0x4B64B081 EQ PUSH2 0x6D JUMPI DUP1 PUSH4 0xBBF5066C EQ PUSH2 0x9D JUMPI DUP1 PUSH4 0xF2BD2E96 EQ PUSH2 0xD0 JUMPI JUMPDEST PUSH0 PUSH0 REVERT JUMPDEST PUSH2 0x56 PUSH2 0xEE JUMP JUMPDEST PUSH1 0x40 MLOAD PUSH2 0x64 SWAP3 SWAP2 SWAP1 PUSH2 0xA00 JUMP JUMPDEST PUSH1 0x40 MLOAD DUP1 SWAP2 SUB SWAP1 RETURN JUMPDEST PUSH2 0x87 PUSH1 0x4 DUP1 CALLDATASIZE SUB DUP2 ADD SWAP1 PUSH2 0x82 SWAP2 SWAP1 PUSH2 0xA93 JUMP JUMPDEST PUSH2 0x286 JUMP JUMPDEST PUSH1 0x40 MLOAD PUSH2 0x94 SWAP2 SWAP1 PUSH2 0xB3D JUMP JUMPDEST PUSH1 0x40 MLOAD DUP1 SWAP2 SUB SWAP1 RETURN JUMPDEST PUSH2 0xB7 PUSH1 0x4 DUP1 CALLDATASIZE SUB DUP2 ADD SWAP1 PUSH2 0xB2 SWAP2 SWAP1 PUSH2 0xA93 JUMP JUMPDEST PUSH2 0x490 JUMP JUMPDEST PUSH1 0x40 MLOAD PUSH2 0xC7 SWAP5 SWAP4 SWAP3 SWAP2 SWAP1 PUSH2 0xBB4 JUMP JUMPDEST PUSH1 0x40 MLOAD DUP1 SWAP2 SUB SWAP1 RETURN JUMPDEST PUSH2 0xD8 PUSH2 0x5C7 JUMP JUMPDEST PUSH1 0x40 MLOAD PUSH2 0xE5 SWAP2 SWAP1 PUSH2 0xB3D JUMP JUMPDEST PUSH1 0x40 MLOAD DUP1 SWAP2 SUB SWAP1 RETURN JUMPDEST PUSH2 0xF6 PUSH2 0x893 JUMP JUMPDEST PUSH2 0xFE PUSH2 0x893 JUMP JUMPDEST PUSH1 0x1 PUSH1 0xD DUP2 PUSH1 0xC DUP1 PUSH1 0x20 MUL PUSH1 0x40 MLOAD SWAP1 DUP2 ADD PUSH1 0x40 MSTORE DUP1 SWAP3 SWAP2 SWAP1 PUSH0 SWAP1 JUMPDEST DUP3 DUP3 LT ISZERO PUSH2 0x1BA JUMPI DUP4 DUP3 ADD DUP1 SLOAD PUSH2 0x12F SWAP1 PUSH2 0xC32 JUMP JUMPDEST DUP1 PUSH1 0x1F ADD PUSH1 0x20 DUP1 SWAP2 DIV MUL PUSH1 0x20 ADD PUSH1 0x40 MLOAD SWAP1 DUP2 ADD PUSH1 0x40 MSTORE DUP1 SWAP3 SWAP2 SWAP1 DUP2 DUP2 MSTORE PUSH1 0x20 ADD DUP3 DUP1 SLOAD PUSH2 0x15B SWAP1 PUSH2 0xC32 JUMP JUMPDEST DUP1 ISZERO PUSH2 0x1A6 JUMPI DUP1 PUSH1 0x1F LT PUSH2 0x17D JUMPI PUSH2 0x100 DUP1 DUP4 SLOAD DIV MUL DUP4 MSTORE SWAP2 PUSH1 0x20 ADD SWAP2 PUSH2 0x1A6 JUMP JUMPDEST DUP3 ADD SWAP2 SWAP1 PUSH0 MSTORE PUSH1 0x20 PUSH0 KECCAK256 SWAP1 JUMPDEST DUP2 SLOAD DUP2 MSTORE SWAP1 PUSH1 0x1 ADD SWAP1 PUSH1 0x20 ADD DUP1 DUP4 GT PUSH2 0x189 JUMPI DUP3 SWAP1 SUB PUSH1 0x1F AND DUP3 ADD SWAP2 JUMPDEST POP POP POP POP POP DUP2 MSTORE PUSH1 0x20 ADD SWAP1 PUSH1 0x1 ADD SWAP1 PUSH2 0x119 JUMP JUMPDEST POP POP POP POP SWAP2 POP DUP1 PUSH1 0xC DUP1 PUSH1 0x20 MUL PUSH1 0x40 MLOAD SWAP1 DUP2 ADD PUSH1 0x40 MSTORE DUP1 SWAP3 SWAP2 SWAP1 PUSH0 SWAP1 JUMPDEST DUP3 DUP3 LT ISZERO PUSH2 0x278 JUMPI DUP4 DUP3 ADD DUP1 SLOAD PUSH2 0x1ED SWAP1 PUSH2 0xC32 JUMP JUMPDEST DUP1 PUSH1 0x1F ADD PUSH1 0x20 DUP1 SWAP2 DIV MUL PUSH1 0x20 ADD PUSH1 0x40 MLOAD SWAP1 DUP2 ADD PUSH1 0x40 MSTORE DUP1 SWAP3 SWAP2 SWAP1 DUP2 DUP2 MSTORE PUSH1 0x20 ADD DUP3 DUP1 SLOAD PUSH2 0x219 SWAP1 PUSH2 0xC32 JUMP JUMPDEST DUP1 ISZERO PUSH2 0x264 JUMPI DUP1 PUSH1 0x1F LT PUSH2 0x23B JUMPI PUSH2 0x100 DUP1 DUP4 SLOAD DIV MUL DUP4 MSTORE SWAP2 PUSH1 0x20 ADD SWAP2 PUSH2 0x264 JUMP JUMPDEST DUP3 ADD SWAP2 SWAP1 PUSH0 MSTORE PUSH1 0x20 PUSH0 KECCAK256 SWAP1 JUMPDEST DUP2 SLOAD DUP2 MSTORE SWAP1 PUSH1 0x1 ADD SWAP1 PUSH1 0x20 ADD DUP1 DUP4 GT PUSH2 0x247 JUMPI DUP3 SWAP1 SUB PUSH1 0x1F AND DUP3 ADD SWAP2 JUMPDEST POP POP POP POP POP DUP2 MSTORE PUSH1 0x20 ADD SWAP1 PUSH1 0x1 ADD SWAP1 PUSH2 0x1D7 JUMP JUMPDEST POP POP POP POP SWAP1 POP SWAP2 POP SWAP2 POP SWAP1 SWAP2 JUMP JUMPDEST PUSH2 0x28E PUSH2 0x8BB JUMP JUMPDEST PUSH0 PUSH0 PUSH0 DUP5 PUSH20 0xFFFFFFFFFFFFFFFFFFFFFFFFFFFFFFFFFFFFFFFF AND PUSH20 0xFFFFFFFFFFFFFFFFFFFFFFFFFFFFFFFFFFFFFFFF AND DUP2 MSTORE PUSH1 0x20 ADD SWAP1 DUP2 MSTORE PUSH1 0x20 ADD PUSH0 KECCAK256 PUSH1 0x3 ADD SLOAD SUB PUSH2 0x30F JUMPI PUSH1 0x40 MLOAD PUSH32 0x8C379A000000000000000000000000000000000000000000000000000000000 DUP2 MSTORE PUSH1 0x4 ADD PUSH2 0x306 SWAP1 PUSH2 0xCD2 JUMP JUMPDEST PUSH1 0x40 MLOAD DUP1 SWAP2 SUB SWAP1 REVERT JUMPDEST PUSH0 PUSH0 DUP4 PUSH20 0xFFFFFFFFFFFFFFFFFFFFFFFFFFFFFFFFFFFFFFFF AND PUSH20 0xFFFFFFFFFFFFFFFFFFFFFFFFFFFFFFFFFFFFFFFF AND DUP2 MSTORE PUSH1 0x20 ADD SWAP1 DUP2 MSTORE PUSH1 0x20 ADD PUSH0 KECCAK256 PUSH1 0x40 MLOAD DUP1 PUSH1 0x80 ADD PUSH1 0x40 MSTORE SWAP1 DUP2 PUSH0 DUP3 ADD DUP1 SLOAD PUSH2 0x365 SWAP1 PUSH2 0xC32 JUMP JUMPDEST DUP1 PUSH1 0x1F ADD PUSH1 0x20 DUP1 SWAP2 DIV MUL PUSH1 0x20 ADD PUSH1 0x40 MLOAD SWAP1 DUP2 ADD PUSH1 0x40 MSTORE DUP1 SWAP3 SWAP2 SWAP1 DUP2 DUP2 MSTORE PUSH1 0x20 ADD DUP3 DUP1 SLOAD PUSH2 0x391 SWAP1 PUSH2 0xC32 JUMP JUMPDEST DUP1 ISZERO PUSH2 0x3DC JUMPI DUP1 PUSH1 0x1F LT PUSH2 0x3B3 JUMPI PUSH2 0x100 DUP1 DUP4 SLOAD DIV MUL DUP4 MSTORE SWAP2 PUSH1 0x20 ADD SWAP2 PUSH2 0x3DC JUMP JUMPDEST DUP3 ADD SWAP2 SWAP1 PUSH0 MSTORE PUSH1 0x20 PUSH0 KECCAK256 SWAP1 JUMPDEST DUP2 SLOAD DUP2 MSTORE SWAP1 PUSH1 0x1 ADD SWAP1 PUSH1 0x20 ADD DUP1 DUP4 GT PUSH2 0x3BF JUMPI DUP3 SWAP1 SUB PUSH1 0x1F AND DUP3 ADD SWAP2 JUMPDEST POP POP POP POP POP DUP2 MSTORE PUSH1 0x20 ADD PUSH1 0x1 DUP3 ADD DUP1 SLOAD PUSH2 0x3F5 SWAP1 PUSH2 0xC32 JUMP JUMPDEST DUP1 PUSH1 0x1F ADD PUSH1 0x20 DUP1 SWAP2 DIV MUL PUSH1 0x20 ADD PUSH1 0x40 MLOAD SWAP1 DUP2 ADD PUSH1 0x40 MSTORE DUP1 SWAP3 SWAP2 SWAP1 DUP2 DUP2 MSTORE PUSH1 0x20 ADD DUP3 DUP1 SLOAD PUSH2 0x421 SWAP1 PUSH2 0xC32 JUMP JUMPDEST DUP1 ISZERO PUSH2 0x46C JUMPI DUP1 PUSH1 0x1F LT PUSH2 0x443 JUMPI PUSH2 0x100 DUP1 DUP4 SLOAD DIV MUL DUP4 MSTORE SWAP2 PUSH1 0x20 ADD SWAP2 PUSH2 0x46C JUMP JUMPDEST DUP3 ADD SWAP2 SWAP1 PUSH0 MSTORE PUSH1 0x20 PUSH0 KECCAK256 SWAP1 JUMPDEST DUP2 SLOAD DUP2 MSTORE SWAP1 PUSH1 0x1 ADD SWAP1 PUSH1 0x20 ADD DUP1 DUP4 GT PUSH2 0x44F JUMPI DUP3 SWAP1 SUB PUSH1 0x1F AND DUP3 ADD SWAP2 JUMPDEST POP POP POP POP POP DUP2 MSTORE PUSH1 0x20 ADD PUSH1 0x2 DUP3 ADD SLOAD DUP2 MSTORE PUSH1 0x20 ADD PUSH1 0x3 DUP3 ADD SLOAD DUP2 MSTORE POP POP SWAP1 POP SWAP2 SWAP1 POP JUMP JUMPDEST PUSH0 PUSH1 0x20 MSTORE DUP1 PUSH0 MSTORE PUSH1 0x40 PUSH0 KECCAK256 PUSH0 SWAP2 POP SWAP1 POP DUP1 PUSH0 ADD DUP1 SLOAD PUSH2 0x4AE SWAP1 PUSH2 0xC32 JUMP JUMPDEST DUP1 PUSH1 0x1F ADD PUSH1 0x20 DUP1 SWAP2 DIV MUL PUSH1 0x20 ADD PUSH1 0x40 MLOAD SWAP1 DUP2 ADD PUSH1 0x40 MSTORE DUP1 SWAP3 SWAP2 SWAP1 DUP2 DUP2 MSTORE PUSH1 0x20 ADD DUP3 DUP1 SLOAD PUSH2 0x4DA SWAP1 PUSH2 0xC32 JUMP JUMPDEST DUP1 ISZERO PUSH2 0x525 JUMPI DUP1 PUSH1 0x1F LT PUSH2 0x4FC JUMPI PUSH2 0x100 DUP1 DUP4 SLOAD DIV MUL DUP4 MSTORE SWAP2 PUSH1 0x20 ADD SWAP2 PUSH2 0x525 JUMP JUMPDEST DUP3 ADD SWAP2 SWAP1 PUSH0 MSTORE PUSH1 0x20 PUSH0 KECCAK256 SWAP1 JUMPDEST DUP2 SLOAD DUP2 MSTORE SWAP1 PUSH1 0x1 ADD SWAP1 PUSH1 0x20 ADD DUP1 DUP4 GT PUSH2 0x508 JUMPI DUP3 SWAP1 SUB PUSH1 0x1F AND DUP3 ADD SWAP2 JUMPDEST POP POP POP POP POP SWAP1 DUP1 PUSH1 0x1 ADD DUP1 SLOAD PUSH2 0x53A SWAP1 PUSH2 0xC32 JUMP JUMPDEST DUP1 PUSH1 0x1F ADD PUSH1 0x20 DUP1 SWAP2 DIV MUL PUSH1 0x20 ADD PUSH1 0x40 MLOAD SWAP1 DUP2 ADD PUSH1 0x40 MSTORE DUP1 SWAP3 SWAP2 SWAP1 DUP2 DUP2 MSTORE PUSH1 0x20 ADD DUP3 DUP1 SLOAD PUSH2 0x566 SWAP1 PUSH2 0xC32 JUMP JUMPDEST DUP1 ISZERO PUSH2 0x5B1 JUMPI DUP1 PUSH1 0x1F LT PUSH2 0x588 JUMPI PUSH2 0x100 DUP1 DUP4 SLOAD DIV MUL DUP4 MSTORE SWAP2 PUSH1 0x20 ADD SWAP2 PUSH2 0x5B1 JUMP JUMPDEST DUP3 ADD SWAP2 SWAP1 PUSH0 MSTORE PUSH1 0x20 PUSH0 KECCAK256 SWAP1 JUMPDEST DUP2 SLOAD DUP2 MSTORE SWAP1 PUSH1 0x1 ADD SWAP1 PUSH1 0x20 ADD DUP1 DUP4 GT PUSH2 0x594 JUMPI DUP3 SWAP1 SUB PUSH1 0x1F AND DUP3 ADD SWAP2 JUMPDEST POP POP POP POP POP SWAP1 DUP1 PUSH1 0x2 ADD SLOAD SWAP1 DUP1 PUSH1 0x3 ADD SLOAD SWAP1 POP DUP5 JUMP JUMPDEST PUSH2 0x5CF PUSH2 0x8BB JUMP JUMPDEST PUSH0 PUSH1 0xC CALLER PUSH1 0x40 MLOAD PUSH1 0x20 ADD PUSH2 0x5E3 SWAP2 SWAP1 PUSH2 0xD35 JUMP JUMPDEST PUSH1 0x40 MLOAD PUSH1 0x20 DUP2 DUP4 SUB SUB DUP2 MSTORE SWAP1 PUSH1 0x40 MSTORE DUP1 MLOAD SWAP1 PUSH1 0x20 ADD KECCAK256 PUSH0 SHR PUSH2 0x605 SWAP2 SWAP1 PUSH2 0xD7C JUMP JUMPDEST SWAP1 POP PUSH0 PUSH1 0x1 PUSH1 0x64 CALLER TIMESTAMP NUMBER PUSH1 0x40 MLOAD PUSH1 0x20 ADD PUSH2 0x621 SWAP4 SWAP3 SWAP2 SWAP1 PUSH2 0xDCC JUMP JUMPDEST PUSH1 0x40 MLOAD PUSH1 0x20 DUP2 DUP4 SUB SUB DUP2 MSTORE SWAP1 PUSH1 0x40 MSTORE DUP1 MLOAD SWAP1 PUSH1 0x20 ADD KECCAK256 PUSH0 SHR PUSH2 0x643 SWAP2 SWAP1 PUSH2 0xD7C JUMP JUMPDEST PUSH2 0x64D SWAP2 SWAP1 PUSH2 0xE35 JUMP JUMPDEST SWAP1 POP PUSH0 PUSH1 0x40 MLOAD DUP1 PUSH1 0x80 ADD PUSH1 0x40 MSTORE DUP1 PUSH1 0x1 DUP6 PUSH1 0xC DUP2 LT PUSH2 0x66F JUMPI PUSH2 0x66E PUSH2 0xE68 JUMP JUMPDEST JUMPDEST ADD DUP1 SLOAD PUSH2 0x67B SWAP1 PUSH2 0xC32 JUMP JUMPDEST DUP1 PUSH1 0x1F ADD PUSH1 0x20 DUP1 SWAP2 DIV MUL PUSH1 0x20 ADD PUSH1 0x40 MLOAD SWAP1 DUP2 ADD PUSH1 0x40 MSTORE DUP1 SWAP3 SWAP2 SWAP1 DUP2 DUP2 MSTORE PUSH1 0x20 ADD DUP3 DUP1 SLOAD PUSH2 0x6A7 SWAP1 PUSH2 0xC32 JUMP JUMPDEST DUP1 ISZERO PUSH2 0x6F2 JUMPI DUP1 PUSH1 0x1F LT PUSH2 0x6C9 JUMPI PUSH2 0x100 DUP1 DUP4 SLOAD DIV MUL DUP4 MSTORE SWAP2 PUSH1 0x20 ADD SWAP2 PUSH2 0x6F2 JUMP JUMPDEST DUP3 ADD SWAP2 SWAP1 PUSH0 MSTORE PUSH1 0x20 PUSH0 KECCAK256 SWAP1 JUMPDEST DUP2 SLOAD DUP2 MSTORE SWAP1 PUSH1 0x1 ADD SWAP1 PUSH1 0x20 ADD DUP1 DUP4 GT PUSH2 0x6D5 JUMPI DUP3 SWAP1 SUB PUSH1 0x1F AND DUP3 ADD SWAP2 JUMPDEST POP POP POP POP POP DUP2 MSTORE PUSH1 0x20 ADD PUSH1 0xD DUP6 PUSH1 0xC DUP2 LT PUSH2 0x710 JUMPI PUSH2 0x70F PUSH2 0xE68 JUMP JUMPDEST JUMPDEST ADD DUP1 SLOAD PUSH2 0x71C SWAP1 PUSH2 0xC32 JUMP JUMPDEST DUP1 PUSH1 0x1F ADD PUSH1 0x20 DUP1 SWAP2 DIV MUL PUSH1 0x20 ADD PUSH1 0x40 MLOAD SWAP1 DUP2 ADD PUSH1 0x40 MSTORE DUP1 SWAP3 SWAP2 SWAP1 DUP2 DUP2 MSTORE PUSH1 0x20 ADD DUP3 DUP1 SLOAD PUSH2 0x748 SWAP1 PUSH2 0xC32 JUMP JUMPDEST DUP1 ISZERO PUSH2 0x793 JUMPI DUP1 PUSH1 0x1F LT PUSH2 0x76A JUMPI PUSH2 0x100 DUP1 DUP4 SLOAD DIV MUL DUP4 MSTORE SWAP2 PUSH1 0x20 ADD SWAP2 PUSH2 0x793 JUMP JUMPDEST DUP3 ADD SWAP2 SWAP1 PUSH0 MSTORE PUSH1 0x20 PUSH0 KECCAK256 SWAP1 JUMPDEST DUP2 SLOAD DUP2 MSTORE SWAP1 PUSH1 0x1 ADD SWAP1 PUSH1 0x20 ADD DUP1 DUP4 GT PUSH2 0x776 JUMPI DUP3 SWAP1 SUB PUSH1 0x1F AND DUP3 ADD SWAP2 JUMPDEST POP POP POP POP POP DUP2 MSTORE PUSH1 0x20 ADD DUP4 DUP2 MSTORE PUSH1 0x20 ADD TIMESTAMP DUP2 MSTORE POP SWAP1 POP DUP1 PUSH0 PUSH0 CALLER PUSH20 0xFFFFFFFFFFFFFFFFFFFFFFFFFFFFFFFFFFFFFFFF AND PUSH20 0xFFFFFFFFFFFFFFFFFFFFFFFFFFFFFFFFFFFFFFFF AND DUP2 MSTORE PUSH1 0x20 ADD SWAP1 DUP2 MSTORE PUSH1 0x20 ADD PUSH0 KECCAK256 PUSH0 DUP3 ADD MLOAD DUP2 PUSH0 ADD SWAP1 DUP2 PUSH2 0x7F9 SWAP2 SWAP1 PUSH2 0x1062 JUMP JUMPDEST POP PUSH1 0x20 DUP3 ADD MLOAD DUP2 PUSH1 0x1 ADD SWAP1 DUP2 PUSH2 0x80F SWAP2 SWAP1 PUSH2 0x1062 JUMP JUMPDEST POP PUSH1 0x40 DUP3 ADD MLOAD DUP2 PUSH1 0x2 ADD SSTORE PUSH1 0x60 DUP3 ADD MLOAD DUP2 PUSH1 0x3 ADD SSTORE SWAP1 POP POP CALLER PUSH20 0xFFFFFFFFFFFFFFFFFFFFFFFFFFFFFFFFFFFFFFFF AND PUSH32 0xAE7290A17ADBEAC3EFA0D7B613B25B0BDC655D0F8D8D76F7470DCD25E441B224 DUP3 PUSH0 ADD MLOAD DUP4 PUSH1 0x20 ADD MLOAD DUP5 PUSH1 0x40 ADD MLOAD DUP6 PUSH1 0x60 ADD MLOAD PUSH1 0x40 MLOAD PUSH2 0x882 SWAP5 SWAP4 SWAP3 SWAP2 SWAP1 PUSH2 0xBB4 JUMP JUMPDEST PUSH1 0x40 MLOAD DUP1 SWAP2 SUB SWAP1 LOG2 DUP1 SWAP4 POP POP POP POP SWAP1 JUMP JUMPDEST PUSH1 0x40 MLOAD DUP1 PUSH2 0x180 ADD PUSH1 0x40 MSTORE DUP1 PUSH1 0xC SWAP1 JUMPDEST PUSH1 0x60 DUP2 MSTORE PUSH1 0x20 ADD SWAP1 PUSH1 0x1 SWAP1 SUB SWAP1 DUP2 PUSH2 0x8A3 JUMPI SWAP1 POP POP SWAP1 JUMP JUMPDEST PUSH1 0x40 MLOAD DUP1 PUSH1 0x80 ADD PUSH1 0x40 MSTORE DUP1 PUSH1 0x60 DUP2 MSTORE PUSH1 0x20 ADD PUSH1 0x60 DUP2 MSTORE PUSH1 0x20 ADD PUSH0 DUP2 MSTORE PUSH1 0x20 ADD PUSH0 DUP2 MSTORE POP SWAP1 JUMP JUMPDEST PUSH0 PUSH1 0xC SWAP1 POP SWAP2 SWAP1 POP JUMP JUMPDEST PUSH0 DUP2 SWAP1 POP SWAP3 SWAP2 POP POP JUMP JUMPDEST PUSH0 DUP2 SWAP1 POP SWAP2 SWAP1 POP JUMP JUMPDEST PUSH0 DUP2 MLOAD SWAP1 POP SWAP2 SWAP1 POP JUMP JUMPDEST PUSH0 DUP3 DUP3 MSTORE PUSH1 0x20 DUP3 ADD SWAP1 POP SWAP3 SWAP2 POP POP JUMP JUMPDEST DUP3 DUP2 DUP4 MCOPY PUSH0 DUP4 DUP4 ADD MSTORE POP POP POP JUMP JUMPDEST PUSH0 PUSH1 0x1F NOT PUSH1 0x1F DUP4 ADD AND SWAP1 POP SWAP2 SWAP1 POP JUMP JUMPDEST PUSH0 PUSH2 0x940 DUP3 PUSH2 0x8FE JUMP JUMPDEST PUSH2 0x94A DUP2 DUP6 PUSH2 0x908 JUMP JUMPDEST SWAP4 POP PUSH2 0x95A DUP2 DUP6 PUSH1 0x20 DUP7 ADD PUSH2 0x918 JUMP JUMPDEST PUSH2 0x963 DUP2 PUSH2 0x926 JUMP JUMPDEST DUP5 ADD SWAP2 POP POP SWAP3 SWAP2 POP POP JUMP JUMPDEST PUSH0 PUSH2 0x979 DUP4 DUP4 PUSH2 0x936 JUMP JUMPDEST SWAP1 POP SWAP3 SWAP2 POP POP JUMP JUMPDEST PUSH0 PUSH1 0x20 DUP3 ADD SWAP1 POP SWAP2 SWAP1 POP JUMP JUMPDEST PUSH0 PUSH2 0x997 DUP3 PUSH2 0x8E1 JUMP JUMPDEST PUSH2 0x9A1 DUP2 DUP6 PUSH2 0x8EB JUMP JUMPDEST SWAP4 POP DUP4 PUSH1 0x20 DUP3 MUL DUP6 ADD PUSH2 0x9B3 DUP6 PUSH2 0x8F5 JUMP JUMPDEST DUP1 PUSH0 JUMPDEST DUP6 DUP2 LT ISZERO PUSH2 0x9EE JUMPI DUP5 DUP5 SUB DUP10 MSTORE DUP2 MLOAD PUSH2 0x9CF DUP6 DUP3 PUSH2 0x96E JUMP JUMPDEST SWAP5 POP PUSH2 0x9DA DUP4 PUSH2 0x981 JUMP JUMPDEST SWAP3 POP PUSH1 0x20 DUP11 ADD SWAP10 POP POP PUSH1 0x1 DUP2 ADD SWAP1 POP PUSH2 0x9B6 JUMP JUMPDEST POP DUP3 SWAP8 POP DUP8 SWAP6 POP POP POP POP POP POP SWAP3 SWAP2 POP POP JUMP JUMPDEST PUSH0 PUSH1 0x40 DUP3 ADD SWAP1 POP DUP2 DUP2 SUB PUSH0 DUP4 ADD MSTORE PUSH2 0xA18 DUP2 DUP6 PUSH2 0x98D JUMP JUMPDEST SWAP1 POP DUP2 DUP2 SUB PUSH1 0x20 DUP4 ADD MSTORE PUSH2 0xA2C DUP2 DUP5 PUSH2 0x98D JUMP JUMPDEST SWAP1 POP SWAP4 SWAP3 POP POP POP JUMP JUMPDEST PUSH0 PUSH0 REVERT JUMPDEST PUSH0 PUSH20 0xFFFFFFFFFFFFFFFFFFFFFFFFFFFFFFFFFFFFFFFF DUP3 AND SWAP1 POP SWAP2 SWAP1 POP JUMP JUMPDEST PUSH0 PUSH2 0xA62 DUP3 PUSH2 0xA39 JUMP JUMPDEST SWAP1 POP SWAP2 SWAP1 POP JUMP JUMPDEST PUSH2 0xA72 DUP2 PUSH2 0xA58 JUMP JUMPDEST DUP2 EQ PUSH2 0xA7C JUMPI PUSH0 PUSH0 REVERT JUMPDEST POP JUMP JUMPDEST PUSH0 DUP2 CALLDATALOAD SWAP1 POP PUSH2 0xA8D DUP2 PUSH2 0xA69 JUMP JUMPDEST SWAP3 SWAP2 POP POP JUMP JUMPDEST PUSH0 PUSH1 0x20 DUP3 DUP5 SUB SLT ISZERO PUSH2 0xAA8 JUMPI PUSH2 0xAA7 PUSH2 0xA35 JUMP JUMPDEST JUMPDEST PUSH0 PUSH2 0xAB5 DUP5 DUP3 DUP6 ADD PUSH2 0xA7F JUMP JUMPDEST SWAP2 POP POP SWAP3 SWAP2 POP POP JUMP JUMPDEST PUSH0 DUP2 SWAP1 POP SWAP2 SWAP1 POP JUMP JUMPDEST PUSH2 0xAD0 DUP2 PUSH2 0xABE JUMP JUMPDEST DUP3 MSTORE POP POP JUMP JUMPDEST PUSH0 PUSH1 0x80 DUP4 ADD PUSH0 DUP4 ADD MLOAD DUP5 DUP3 SUB PUSH0 DUP7 ADD MSTORE PUSH2 0xAF0 DUP3 DUP3 PUSH2 0x936 JUMP JUMPDEST SWAP2 POP POP PUSH1 0x20 DUP4 ADD MLOAD DUP5 DUP3 SUB PUSH1 0x20 DUP7 ADD MSTORE PUSH2 0xB0A DUP3 DUP3 PUSH2 0x936 JUMP JUMPDEST SWAP2 POP POP PUSH1 0x40 DUP4 ADD MLOAD PUSH2 0xB1F PUSH1 0x40 DUP7 ADD DUP3 PUSH2 0xAC7 JUMP JUMPDEST POP PUSH1 0x60 DUP4 ADD MLOAD PUSH2 0xB32 PUSH1 0x60 DUP7 ADD DUP3 PUSH2 0xAC7 JUMP JUMPDEST POP DUP1 SWAP2 POP POP SWAP3 SWAP2 POP POP JUMP JUMPDEST PUSH0 PUSH1 0x20 DUP3 ADD SWAP1 POP DUP2 DUP2 SUB PUSH0 DUP4 ADD MSTORE PUSH2 0xB55 DUP2 DUP5 PUSH2 0xAD6 JUMP JUMPDEST SWAP1 POP SWAP3 SWAP2 POP POP JUMP JUMPDEST PUSH0 DUP3 DUP3 MSTORE PUSH1 0x20 DUP3 ADD SWAP1 POP SWAP3 SWAP2 POP POP JUMP JUMPDEST PUSH0 PUSH2 0xB77 DUP3 PUSH2 0x8FE JUMP JUMPDEST PUSH2 0xB81 DUP2 DUP6 PUSH2 0xB5D JUMP JUMPDEST SWAP4 POP PUSH2 0xB91 DUP2 DUP6 PUSH1 0x20 DUP7 ADD PUSH2 0x918 JUMP JUMPDEST PUSH2 0xB9A DUP2 PUSH2 0x926 JUMP JUMPDEST DUP5 ADD SWAP2 POP POP SWAP3 SWAP2 POP POP JUMP JUMPDEST PUSH2 0xBAE DUP2 PUSH2 0xABE JUMP JUMPDEST DUP3 MSTORE POP POP JUMP JUMPDEST PUSH0 PUSH1 0x80 DUP3 ADD SWAP1 POP DUP2 DUP2 SUB PUSH0 DUP4 ADD MSTORE PUSH2 0xBCC DUP2 DUP8 PUSH2 0xB6D JUMP JUMPDEST SWAP1 POP DUP2 DUP2 SUB PUSH1 0x20 DUP4 ADD MSTORE PUSH2 0xBE0 DUP2 DUP7 PUSH2 0xB6D JUMP JUMPDEST SWAP1 POP PUSH2 0xBEF PUSH1 0x40 DUP4 ADD DUP6 PUSH2 0xBA5 JUMP JUMPDEST PUSH2 0xBFC PUSH1 0x60 DUP4 ADD DUP5 PUSH2 0xBA5 JUMP JUMPDEST SWAP6 SWAP5 POP POP POP POP POP JUMP JUMPDEST PUSH32 0x4E487B7100000000000000000000000000000000000000000000000000000000 PUSH0 MSTORE PUSH1 0x22 PUSH1 0x4 MSTORE PUSH1 0x24 PUSH0 REVERT JUMPDEST PUSH0 PUSH1 0x2 DUP3 DIV SWAP1 POP PUSH1 0x1 DUP3 AND DUP1 PUSH2 0xC49 JUMPI PUSH1 0x7F DUP3 AND SWAP2 POP JUMPDEST PUSH1 0x20 DUP3 LT DUP2 SUB PUSH2 0xC5C JUMPI PUSH2 0xC5B PUSH2 0xC05 JUMP JUMPDEST JUMPDEST POP SWAP2 SWAP1 POP JUMP JUMPDEST PUSH32 0x4E6F207265636F6D6D656E646174696F6E20666F756E6420666F722074686973 PUSH0 DUP3 ADD MSTORE PUSH32 0x2077616C6C657400000000000000000000000000000000000000000000000000 PUSH1 0x20 DUP3 ADD MSTORE POP JUMP JUMPDEST PUSH0 PUSH2 0xCBC PUSH1 0x27 DUP4 PUSH2 0xB5D JUMP JUMPDEST SWAP2 POP PUSH2 0xCC7 DUP3 PUSH2 0xC62 JUMP JUMPDEST PUSH1 0x40 DUP3 ADD SWAP1 POP SWAP2 SWAP1 POP JUMP JUMPDEST PUSH0 PUSH1 0x20 DUP3 ADD SWAP1 POP DUP2 DUP2 SUB PUSH0 DUP4 ADD MSTORE PUSH2 0xCE9 DUP2 PUSH2 0xCB0 JUMP JUMPDEST SWAP1 POP SWAP2 SWAP1 POP JUMP JUMPDEST PUSH0 DUP2 PUSH1 0x60 SHL SWAP1 POP SWAP2 SWAP1 POP JUMP JUMPDEST PUSH0 PUSH2 0xD06 DUP3 PUSH2 0xCF0 JUMP JUMPDEST SWAP1 POP SWAP2 SWAP1 POP JUMP JUMPDEST PUSH0 PUSH2 0xD17 DUP3 PUSH2 0xCFC JUMP JUMPDEST SWAP1 POP SWAP2 SWAP1 POP JUMP JUMPDEST PUSH2 0xD2F PUSH2 0xD2A DUP3 PUSH2 0xA58 JUMP JUMPDEST PUSH2 0xD0D JUMP JUMPDEST DUP3 MSTORE POP POP JUMP JUMPDEST PUSH0 PUSH2 0xD40 DUP3 DUP5 PUSH2 0xD1E JUMP JUMPDEST PUSH1 0x14 DUP3 ADD SWAP2 POP DUP2 SWAP1 POP SWAP3 SWAP2 POP POP JUMP JUMPDEST PUSH32 0x4E487B7100000000000000000000000000000000000000000000000000000000 PUSH0 MSTORE PUSH1 0x12 PUSH1 0x4 MSTORE PUSH1 0x24 PUSH0 REVERT JUMPDEST PUSH0 PUSH2 0xD86 DUP3 PUSH2 0xABE JUMP JUMPDEST SWAP2 POP PUSH2 0xD91 DUP4 PUSH2 0xABE JUMP JUMPDEST SWAP3 POP DUP3 PUSH2 0xDA1 JUMPI PUSH2 0xDA0 PUSH2 0xD4F JUMP JUMPDEST JUMPDEST DUP3 DUP3 MOD SWAP1 POP SWAP3 SWAP2 POP POP JUMP JUMPDEST PUSH0 DUP2 SWAP1 POP SWAP2 SWAP1 POP JUMP JUMPDEST PUSH2 0xDC6 PUSH2 0xDC1 DUP3 PUSH2 0xABE JUMP JUMPDEST PUSH2 0xDAC JUMP JUMPDEST DUP3 MSTORE POP POP JUMP JUMPDEST PUSH0 PUSH2 0xDD7 DUP3 DUP7 PUSH2 0xD1E JUMP JUMPDEST PUSH1 0x14 DUP3 ADD SWAP2 POP PUSH2 0xDE7 DUP3 DUP6 PUSH2 0xDB5 JUMP JUMPDEST PUSH1 0x20 DUP3 ADD SWAP2 POP PUSH2 0xDF7 DUP3 DUP5 PUSH2 0xDB5 JUMP JUMPDEST PUSH1 0x20 DUP3 ADD SWAP2 POP DUP2 SWAP1 POP SWAP5 SWAP4 POP POP POP POP JUMP JUMPDEST PUSH32 0x4E487B7100000000000000000000000000000000000000000000000000000000 PUSH0 MSTORE PUSH1 0x11 PUSH1 0x4 MSTORE PUSH1 0x24 PUSH0 REVERT JUMPDEST PUSH0 PUSH2 0xE3F DUP3 PUSH2 0xABE JUMP JUMPDEST SWAP2 POP PUSH2 0xE4A DUP4 PUSH2 0xABE JUMP JUMPDEST SWAP3 POP DUP3 DUP3 ADD SWAP1 POP DUP1 DUP3 GT ISZERO PUSH2 0xE62 JUMPI PUSH2 0xE61 PUSH2 0xE08 JUMP JUMPDEST JUMPDEST SWAP3 SWAP2 POP POP JUMP JUMPDEST PUSH32 0x4E487B7100000000000000000000000000000000000000000000000000000000 PUSH0 MSTORE PUSH1 0x32 PUSH1 0x4 MSTORE PUSH1 0x24 PUSH0 REVERT JUMPDEST PUSH32 0x4E487B7100000000000000000000000000000000000000000000000000000000 PUSH0 MSTORE PUSH1 0x41 PUSH1 0x4 MSTORE PUSH1 0x24 PUSH0 REVERT JUMPDEST PUSH0 DUP2 SWAP1 POP DUP2 PUSH0 MSTORE PUSH1 0x20 PUSH0 KECCAK256 SWAP1 POP SWAP2 SWAP1 POP JUMP JUMPDEST PUSH0 PUSH1 0x20 PUSH1 0x1F DUP4 ADD DIV SWAP1 POP SWAP2 SWAP1 POP JUMP JUMPDEST PUSH0 DUP3 DUP3 SHL SWAP1 POP SWAP3 SWAP2 POP POP JUMP JUMPDEST PUSH0 PUSH1 0x8 DUP4 MUL PUSH2 0xF1E PUSH32 0xFFFFFFFFFFFFFFFFFFFFFFFFFFFFFFFFFFFFFFFFFFFFFFFFFFFFFFFFFFFFFFFF DUP3 PUSH2 0xEE3 JUMP JUMPDEST PUSH2 0xF28 DUP7 DUP4 PUSH2 0xEE3 JUMP JUMPDEST SWAP6 POP DUP1 NOT DUP5 AND SWAP4 POP DUP1 DUP7 AND DUP5 OR SWAP3 POP POP POP SWAP4 SWAP3 POP POP POP JUMP JUMPDEST PUSH0 DUP2 SWAP1 POP SWAP2 SWAP1 POP JUMP JUMPDEST PUSH0 PUSH2 0xF63 PUSH2 0xF5E PUSH2 0xF59 DUP5 PUSH2 0xABE JUMP JUMPDEST PUSH2 0xF40 JUMP JUMPDEST PUSH2 0xABE JUMP JUMPDEST SWAP1 POP SWAP2 SWAP1 POP JUMP JUMPDEST PUSH0 DUP2 SWAP1 POP SWAP2 SWAP1 POP JUMP JUMPDEST PUSH2 0xF7C DUP4 PUSH2 0xF49 JUMP JUMPDEST PUSH2 0xF90 PUSH2 0xF88 DUP3 PUSH2 0xF6A JUMP JUMPDEST DUP5 DUP5 SLOAD PUSH2 0xEEF JUMP JUMPDEST DUP3 SSTORE POP POP POP POP JUMP JUMPDEST PUSH0 PUSH0 SWAP1 POP SWAP1 JUMP JUMPDEST PUSH2 0xFA7 PUSH2 0xF98 JUMP JUMPDEST PUSH2 0xFB2 DUP2 DUP5 DUP5 PUSH2 0xF73 JUMP JUMPDEST POP POP POP JUMP JUMPDEST JUMPDEST DUP2 DUP2 LT ISZERO PUSH2 0xFD5 JUMPI PUSH2 0xFCA PUSH0 DUP3 PUSH2 0xF9F JUMP JUMPDEST PUSH1 0x1 DUP2 ADD SWAP1 POP PUSH2 0xFB8 JUMP JUMPDEST POP POP JUMP JUMPDEST PUSH1 0x1F DUP3 GT ISZERO PUSH2 0x101A JUMPI PUSH2 0xFEB DUP2 PUSH2 0xEC2 JUMP JUMPDEST PUSH2 0xFF4 DUP5 PUSH2 0xED4 JUMP JUMPDEST DUP2 ADD PUSH1 0x20 DUP6 LT ISZERO PUSH2 0x1003 JUMPI DUP2 SWAP1 POP JUMPDEST PUSH2 0x1017 PUSH2 0x100F DUP6 PUSH2 0xED4 JUMP JUMPDEST DUP4 ADD DUP3 PUSH2 0xFB7 JUMP JUMPDEST POP POP JUMPDEST POP POP POP JUMP JUMPDEST PUSH0 DUP3 DUP3 SHR SWAP1 POP SWAP3 SWAP2 POP POP JUMP JUMPDEST PUSH0 PUSH2 0x103A PUSH0 NOT DUP5 PUSH1 0x8 MUL PUSH2 0x101F JUMP JUMPDEST NOT DUP1 DUP4 AND SWAP2 POP POP SWAP3 SWAP2 POP POP JUMP JUMPDEST PUSH0 PUSH2 0x1052 DUP4 DUP4 PUSH2 0x102B JUMP JUMPDEST SWAP2 POP DUP3 PUSH1 0x2 MUL DUP3 OR SWAP1 POP SWAP3 SWAP2 POP POP JUMP JUMPDEST PUSH2 0x106B DUP3 PUSH2 0x8FE JUMP JUMPDEST PUSH8 0xFFFFFFFFFFFFFFFF DUP2 GT ISZERO PUSH2 0x1084 JUMPI PUSH2 0x1083 PUSH2 0xE95 JUMP JUMPDEST JUMPDEST PUSH2 0x108E DUP3 SLOAD PUSH2 0xC32 JUMP JUMPDEST PUSH2 0x1099 DUP3 DUP3 DUP6 PUSH2 0xFD9 JUMP JUMPDEST PUSH0 PUSH1 0x20 SWAP1 POP PUSH1 0x1F DUP4 GT PUSH1 0x1 DUP2 EQ PUSH2 0x10CA JUMPI PUSH0 DUP5 ISZERO PUSH2 0x10B8 JUMPI DUP3 DUP8 ADD MLOAD SWAP1 POP JUMPDEST PUSH2 0x10C2 DUP6 DUP3 PUSH2 0x1047 JUMP JUMPDEST DUP7 SSTORE POP PUSH2 0x1129 JUMP JUMPDEST PUSH1 0x1F NOT DUP5 AND PUSH2 0x10D8 DUP7 PUSH2 0xEC2 JUMP JUMPDEST PUSH0 JUMPDEST DUP3 DUP2 LT ISZERO PUSH2 0x10FF JUMPI DUP5 DUP10 ADD MLOAD DUP3 SSTORE PUSH1 0x1 DUP3 ADD SWAP2 POP PUSH1 0x20 DUP6 ADD SWAP5 POP PUSH1 0x20 DUP2 ADD SWAP1 POP PUSH2 0x10DA JUMP JUMPDEST DUP7 DUP4 LT ISZERO PUSH2 0x111C JUMPI DUP5 DUP10 ADD MLOAD PUSH2 0x1118 PUSH1 0x1F DUP10 AND DUP3 PUSH2 0x102B JUMP JUMPDEST DUP4 SSTORE POP JUMPDEST PUSH1 0x1 PUSH1 0x2 DUP9 MUL ADD DUP9 SSTORE POP POP POP JUMPDEST POP POP POP POP POP POP JUMP INVALID LOG2 PUSH5 0x6970667358 0x22 SLT KECCAK256 PUSH1 0x4B EXTSTATICCALL 0xAA PUSH6 0xCEC2A1FA564F 0xAE EQ PUSH18 0x183D496C1D562459BDA1F62D3BA9A659ACCD PUSH5 0x736F6C6343 STOP ADDMOD 0x1E STOP CALLER COINBASE KECCAK256 PUSH9 0x61726D6F6E696F7573 KECCAK256 PUSH21 0x6F6B656E20666F722062616C616E63656420706F72 PUSH21 0x666F6C696F732E4120666C75696420746F6B656E20 PUSH7 0x6F722064726561 PUSH14 0x7920696E766573746F72732E4120 PUSH17 0x72656369736520746F6B656E20666F7220 PUSH2 0x6E61 PUSH13 0x79746963616C206D696E64732E COINBASE KECCAK256 PUSH15 0x7572747572696E6720746F6B656E20 PUSH24 0x69746820656D6F74696F6E616C2076616C75652E41207265 PUSH8 0x616C20746F6B656E KECCAK256 PUSH7 0x6F722074686F73 PUSH6 0x2077686F206C PUSH6 0x61642E416E20 PUSH10 0x6E6E6F76617469766520 PUSH21 0x6F6B656E20666F7220766973696F6E61726965732E COINBASE KECCAK256 PUSH20 0x7461626C6520746F6B656E20666F722067726F75 PUSH15 0x64656420696E766573746F72732E41 PUSH15 0x20616476656E7475726F757320746F PUSH12 0x656E20666F72206578706C6F PUSH19 0x6572732E4120666965727920746F6B656E2066 PUSH16 0x7220626F6C64207269736B2D74616B65 PUSH19 0x732141206D7973746572696F757320746F6B65 PUSH15 0x2077697468206465657020706F7465 PUSH15 0x7469616C2E41207374757264792074 PUSH16 0x6B656E20666F7220616D626974696F75 PUSH20 0x20636C696D626572732E4120766572736174696C PUSH6 0x20746F6B656E KECCAK256 PUSH7 0x6F722071756963 PUSH12 0x207468696E6B6572732E0000 "
				},
				"gasEstimates": {
					"creation": {
						"codeDepositCost": "891000",
						"executionCost": "infinite",
						"totalCost": "infinite"
					},
					"external": {
						"getAllTokens()": "infinite",
						"getRecommendation(address)": "infinite",
						"recommendToken()": "infinite",
						"recommendations(address)": "infinite"
					}
				},
				"methodIdentifiers": {
					"getAllTokens()": "2a5c792a",
					"getRecommendation(address)": "4b64b081",
					"recommendToken()": "f2bd2e96",
					"recommendations(address)": "bbf5066c"
				}
			},
			"storageLayout": {
				"storage": [
					{
						"astId": 15,
						"contract": "contracts/ZodiacTokenRecommender.sol:ZodiacTokenRecommender",
						"label": "recommendations",
						"offset": 0,
						"slot": "0",
						"type": "t_mapping(t_address,t_struct(TokenRecommendation)10_storage)"
					},
					{
						"astId": 32,
						"contract": "contracts/ZodiacTokenRecommender.sol:ZodiacTokenRecommender",
						"label": "tokenNames",
						"offset": 0,
						"slot": "1",
						"type": "t_array(t_string_storage)12_storage"
					},
					{
						"astId": 49,
						"contract": "contracts/ZodiacTokenRecommender.sol:ZodiacTokenRecommender",
						"label": "tokenDescriptions",
						"offset": 0,
						"slot": "13",
						"type": "t_array(t_string_storage)12_storage"
					}
				],
				"types": {
					"t_address": {
						"encoding": "inplace",
						"label": "address",
						"numberOfBytes": "20"
					},
					"t_array(t_string_storage)12_storage": {
						"base": "t_string_storage",
						"encoding": "inplace",
						"label": "string[12]",
						"numberOfBytes": "384"
					},
					"t_mapping(t_address,t_struct(TokenRecommendation)10_storage)": {
						"encoding": "mapping",
						"key": "t_address",
						"label": "mapping(address => struct ZodiacTokenRecommender.TokenRecommendation)",
						"numberOfBytes": "32",
						"value": "t_struct(TokenRecommendation)10_storage"
					},
					"t_string_storage": {
						"encoding": "bytes",
						"label": "string",
						"numberOfBytes": "32"
					},
					"t_struct(TokenRecommendation)10_storage": {
						"encoding": "inplace",
						"label": "struct ZodiacTokenRecommender.TokenRecommendation",
						"members": [
							{
								"astId": 3,
								"contract": "contracts/ZodiacTokenRecommender.sol:ZodiacTokenRecommender",
								"label": "tokenName",
								"offset": 0,
								"slot": "0",
								"type": "t_string_storage"
							},
							{
								"astId": 5,
								"contract": "contracts/ZodiacTokenRecommender.sol:ZodiacTokenRecommender",
								"label": "description",
								"offset": 0,
								"slot": "1",
								"type": "t_string_storage"
							},
							{
								"astId": 7,
								"contract": "contracts/ZodiacTokenRecommender.sol:ZodiacTokenRecommender",
								"label": "luckFactor",
								"offset": 0,
								"slot": "2",
								"type": "t_uint256"
							},
							{
								"astId": 9,
								"contract": "contracts/ZodiacTokenRecommender.sol:ZodiacTokenRecommender",
								"label": "recommendedAt",
								"offset": 0,
								"slot": "3",
								"type": "t_uint256"
							}
						],
						"numberOfBytes": "128"
					},
					"t_uint256": {
						"encoding": "inplace",
						"label": "uint256",
						"numberOfBytes": "32"
					}
				}
			},
			"userdoc": {
				"kind": "user",
				"methods": {},
				"version": 1
			}
		}
	}
}